{
  "address": "0xf4F344Cfa1A82eDD37C96E879f01D9CA03f385b9",
  "abi": [
    {
      "inputs": [
        {
          "internalType": "address[]",
          "name": "allowedRewards",
          "type": "address[]"
        }
      ],
      "name": "createExternalBribe",
      "outputs": [
        {
          "internalType": "address",
          "name": "",
          "type": "address"
        }
      ],
      "stateMutability": "nonpayable",
      "type": "function"
    },
    {
      "inputs": [
        {
          "internalType": "address[]",
          "name": "allowedRewards",
          "type": "address[]"
        }
      ],
      "name": "createInternalBribe",
      "outputs": [
        {
          "internalType": "address",
          "name": "",
          "type": "address"
        }
      ],
      "stateMutability": "nonpayable",
      "type": "function"
    },
    {
      "inputs": [],
      "name": "last_external_bribe",
      "outputs": [
        {
          "internalType": "address",
          "name": "",
          "type": "address"
        }
      ],
      "stateMutability": "view",
      "type": "function"
    },
    {
      "inputs": [],
      "name": "last_internal_bribe",
      "outputs": [
        {
          "internalType": "address",
          "name": "",
          "type": "address"
        }
      ],
      "stateMutability": "view",
      "type": "function"
    }
  ],
  "transactionHash": "0xbf242241c92ba4fe4c8c398fb59ba800f65487e29c50dddc5199b54763cffee9",
  "args": [],
  "numDeployments": 1,
  "solcInputHash": "816572db58a4a8203fcf6f77728173df",
  "bytecode": "0x608060405234801561001057600080fd5b50614f4f806100206000396000f3fe608060405234801561001057600080fd5b506004361061004c5760003560e01c80632a26b9eb146100515780636485f0c414610080578063b0ad856f14610093578063eb57738c146100a6575b600080fd5b61006461005f3660046101bf565b6100b9565b6040516001600160a01b03909116815260200160405180910390f35b61006461008e3660046101bf565b610116565b600154610064906001600160a01b031681565b600054610064906001600160a01b031681565b600033826040516100c990610173565b6100d4929190610284565b604051809103906000f0801580156100f0573d6000803e3d6000fd5b50600080546001600160a01b0319166001600160a01b0392909216918217905592915050565b6000338260405161012690610180565b610131929190610284565b604051809103906000f08015801561014d573d6000803e3d6000fd5b50600180546001600160a01b0319166001600160a01b0392909216918217905592915050565b612db6806102e183390190565b611e838061309783390190565b634e487b7160e01b600052604160045260246000fd5b80356001600160a01b03811681146101ba57600080fd5b919050565b600060208083850312156101d257600080fd5b823567ffffffffffffffff808211156101ea57600080fd5b818501915085601f8301126101fe57600080fd5b8135818111156102105761021061018d565b8060051b604051601f19603f830116810181811085821117156102355761023561018d565b60405291825284820192508381018501918883111561025357600080fd5b938501935b8285101561027857610269856101a3565b84529385019392850192610258565b98975050505050505050565b6001600160a01b038381168252604060208084018290528451918401829052600092858201929091906060860190855b818110156102d25785518516835294830194918301916001016102b4565b50909897505050505050505056fe60c060405260016010553480156200001657600080fd5b5060405162002db638038062002db68339810160408190526200003991620001f8565b6001600160a01b038216608081905260408051638dd598fb60e01b81529051638dd598fb916004808201926020929091908290030181865afa15801562000084573d6000803e3d6000fd5b505050506040513d601f19601f82011682018060405250810190620000aa9190620002e1565b6001600160a01b031660a05260005b8151811015620001bc5760006001600160a01b0316828281518110620000e357620000e362000306565b60200260200101516001600160a01b031614620001a75760016007600084848151811062000115576200011562000306565b60200260200101516001600160a01b03166001600160a01b0316815260200190815260200160002060006101000a81548160ff02191690831515021790555060068282815181106200016b576200016b62000306565b60209081029190910181015182546001810184556000938452919092200180546001600160a01b0319166001600160a01b039092169190911790555b80620001b3816200031c565b915050620000b9565b50505062000344565b80516001600160a01b0381168114620001dd57600080fd5b919050565b634e487b7160e01b600052604160045260246000fd5b600080604083850312156200020c57600080fd5b6200021783620001c5565b602084810151919350906001600160401b03808211156200023757600080fd5b818601915086601f8301126200024c57600080fd5b815181811115620002615762000261620001e2565b8060051b604051601f19603f83011681018181108582111715620002895762000289620001e2565b604052918252848201925083810185019189831115620002a857600080fd5b938501935b82851015620002d157620002c185620001c5565b84529385019392850192620002ad565b8096505050505050509250929050565b600060208284031215620002f457600080fd5b620002ff82620001c5565b9392505050565b634e487b7160e01b600052603260045260246000fd5b6000600182016200033d57634e487b7160e01b600052601160045260246000fd5b5060010190565b60805160a051612a22620003946000396000818161041801528181610aae01528181610f2e015261175201526000818161030601528181610cb901528181610eeb015261165c0152612a226000f3fe608060405234801561001057600080fd5b50600436106102115760003560e01c806399bcc05211610125578063e6886396116100ad578063f301af421161007c578063f301af421461057b578063f32077231461058e578063f5f8d365146105a1578063f7412baf146105b4578063fd314098146105db57600080fd5b8063e68863961461052c578063e8111a1214610534578063f12297771461053d578063f25e55a51461055057600080fd5b8063a28d4c9c116100f4578063a28d4c9c146104b3578063a7852afa146104c6578063aa479652146104d9578063b66503cf146104f9578063da09d19d1461050c57600080fd5b806399bcc0521461044d5780639cc7f708146104605780639ce43f90146104805780639e2bf22c146104a057600080fd5b806349dcc204116101a8578063638634ee11610177578063638634ee146103da57806368fcee1a146103ed57806376f4be36146104005780638dd598fb146104135780639418f9391461043a57600080fd5b806349dcc204146103405780634d5ce0381461037257806350589793146103a55780635a45d052146103c557600080fd5b80632ce9aead116101e45780632ce9aead146102a35780633b881999146102c35780633e491d47146102ee57806346c96aac1461030157600080fd5b806301316ddf1461021657806318160ddd146102625780631be0528914610279578063221ca18c14610283575b600080fd5b6102486102243660046125e1565b600e6020908152600092835260408084209091529082529020805460019091015482565b604080519283526020830191909152015b60405180910390f35b61026b60085481565b604051908152602001610259565b61026b62093a8081565b61026b61029136600461260d565b60006020819052908152604090205481565b61026b6102b136600461260d565b60026020526000908152604090205481565b61026b6102d13660046125e1565b600560209081526000928352604080842090915290825290205481565b61026b6102fc3660046125e1565b6105ee565b6103287f000000000000000000000000000000000000000000000000000000000000000081565b6040516001600160a01b039091168152602001610259565b61024861034e36600461262a565b600a6020908152600092835260408084209091529082529020805460019091015482565b61039561038036600461260d565b60076020526000908152604090205460ff1681565b6040519015158152602001610259565b61026b6103b336600461264c565b600b6020526000908152604090205481565b6103d86103d33660046125e1565b610910565b005b61026b6103e836600461260d565b610948565b6103d86103fb3660046125e1565b61096c565b61026b61040e36600461264c565b610978565b6103287f000000000000000000000000000000000000000000000000000000000000000081565b6103d8610448366004612665565b610aac565b61026b61045b36600461260d565b610c3d565b61026b61046e36600461264c565b60096020526000908152604090205481565b61026b61048e36600461260d565b60036020526000908152604090205481565b6103d86104ae36600461262a565b610cae565b61026b6104c136600461262a565b610d87565b6103d86104d43660046126bd565b610ecc565b61026b6104e736600461260d565b600f6020526000908152604090205481565b6103d86105073660046125e1565b611211565b61026b61051a36600461260d565b60016020526000908152604090205481565b60065461026b565b61026b600d5481565b61026b61054b36600461260d565b611507565b61026b61055e3660046125e1565b600460209081526000928352604080842090915290825290205481565b61032861058936600461264c565b611627565b6103d861059c36600461262a565b611651565b6103d86105af3660046126bd565b611722565b6102486105c236600461264c565b600c602052600090815260409020805460019091015482565b6102486105e93660046125e1565b611a29565b6001600160a01b0382166000818152600460209081526040808320858452825280832054938352600e8252808320838052909152812054909182916106339190611c4a565b6000848152600b60205260408120549192500361065457600091505061090a565b60006106608483610d87565b6000858152600b60205260408120549192509061067f906001906127a4565b9050600081156107ec57825b6106966001846127a4565b81116107ea576000878152600a60208181526040808420858552808352818520825180840190935280548352600190810154838501528c865293909252929182906106e29086906127bb565b815260200190815260200160002060405180604001604052908160008201548152602001600182015481525050905060006107218b8460000151611a29565b50905060006107348c8460000151611a29565b5090508b6001600160a01b031663313ce5676040518163ffffffff1660e01b8152600401602060405180830381865afa158015610775573d6000803e3d6000fd5b505050506040513d601f19601f8201168201806040525081019061079991906127d3565b6107a490600a6128da565b6107ae83836127a4565b85602001516107bd91906128e9565b6107c79190612908565b6107d190876127bb565b95505050505080806107e29061292a565b91505061068b565b505b6000868152600a6020908152604080832085845282528083208151808301909252805480835260019091015492820192909252919061082c908a90611a29565b509050886001600160a01b031663313ce5676040518163ffffffff1660e01b8152600401602060405180830381865afa15801561086d573d6000803e3d6000fd5b505050506040513d601f19601f8201168201806040525081019061089191906127d3565b61089c90600a6128da565b6001600160a01b038a1660009081526005602090815260408083208c84529091529020546108cb908390611c4a565b6108d48b611507565b6108de91906127a4565b83602001516108ed91906128e9565b6108f79190612908565b61090190846127bb565b96505050505050505b92915050565b61091a8282611c60565b6001600160a01b03909316600090815260036020908152604080832060029092529091209390935590915550565b6001600160a01b03811660009081526001602052604081205461090a904290611dc3565b61091a82826000611dd2565b600d5460009080820361098e5750600092915050565b82600c600061099e6001856127a4565b815260200190815260200160002060000154116109c7576109c06001826127a4565b9392505050565b60008052600c6020527f13649b2456f1b42fef0f0040b3aaeabcd21a76a0f3f5defd4f583839455116e854831015610a025750600092915050565b600080610a106001846127a4565b90505b81811115610aa45760006002610a2984846127a4565b610a339190612908565b610a3d90836127a4565b6000818152600c6020908152604091829020825180840190935280548084526001909101549183019190915291925090879003610a7e575095945050505050565b8051871115610a8f57819350610a9d565b610a9a6001836127a4565b92505b5050610a13565b509392505050565b7f00000000000000000000000000000000000000000000000000000000000000006001600160a01b03166385f2aef26040518163ffffffff1660e01b81526004016020604051808303816000875af1158015610b0c573d6000803e3d6000fd5b505050506040513d601f19601f82011682018060405250810190610b309190612943565b6001600160a01b0316336001600160a01b031614610b815760405162461bcd60e51b81526020600482015260096024820152686f6e6c79207465616d60b81b60448201526064015b60405180910390fd5b816001600160a01b031660068481548110610b9e57610b9e612960565b6000918252602090912001546001600160a01b031614610bbd57600080fd5b6001600160a01b03808316600090815260076020526040808220805460ff1990811690915592841682529020805490911660011790556006805482919085908110610c0a57610c0a612960565b9060005260206000200160006101000a8154816001600160a01b0302191690836001600160a01b03160217905550505050565b6001600160a01b0381166000908152600160205260408120544210610c6457506000919050565b6001600160a01b038216600090815260016020526040812054610c889042906127a4565b6001600160a01b0384166000908152602081905260409020549091506109c090826128e9565b336001600160a01b037f00000000000000000000000000000000000000000000000000000000000000001614610ce357600080fd5b610ceb611fc2565b8160086000828254610cfd91906127a4565b909155505060008181526009602052604081208054849290610d209084906127a4565b9091555050600081815260096020526040902054610d3f90829061204a565b610d47612123565b604080518281526020810184905233917ff279e6a1f5e320cca91135676d9cb6e44ca8a08c0b88342bcdb1144f6511b56891015b60405180910390a25050565b6000828152600b6020526040812054808203610da757600091505061090a565b6000848152600a602052604081208491610dc26001856127a4565b81526020019081526020016000206000015411610dec57610de46001826127a4565b91505061090a565b6000848152600a60209081526040808320838052909152902054831015610e1757600091505061090a565b600080610e256001846127a4565b90505b81811115610ec35760006002610e3e84846127a4565b610e489190612908565b610e5290836127a4565b6000888152600a60209081526040808320848452825291829020825180840190935280548084526001909101549183019190915291925090879003610e9d5750935061090a92505050565b8051871115610eae57819350610ebc565b610eb96001836127a4565b92505b5050610e28565b50949350505050565b601054600114610edb57600080fd5b6002601055336001600160a01b037f00000000000000000000000000000000000000000000000000000000000000001614610f1557600080fd5b6040516331a9108f60e11b8152600481018390526000907f00000000000000000000000000000000000000000000000000000000000000006001600160a01b031690636352211e90602401602060405180830381865afa158015610f7d573d6000803e3d6000fd5b505050506040513d601f19601f82011682018060405250810190610fa19190612943565b905060005b825181101561120657610fd6838281518110610fc457610fc4612960565b60200260200101516000196001611dd2565b60036000868581518110610fec57610fec612960565b60200260200101516001600160a01b03166001600160a01b0316815260200190815260200160002060006002600088878151811061102c5761102c612960565b60200260200101516001600160a01b03166001600160a01b031681526020019081526020016000206000849190505583919050555050600061108784838151811061107957611079612960565b6020026020010151866105ee565b905042600460008685815181106110a0576110a0612960565b60200260200101516001600160a01b03166001600160a01b03168152602001908152602001600020600087815260200190815260200160002081905550600360008584815181106110f3576110f3612960565b60200260200101516001600160a01b03166001600160a01b03168152602001908152602001600020546005600086858151811061113257611132612960565b6020908102919091018101516001600160a01b031682528181019290925260409081016000908120898252909252902055801561118d5761118d84838151811061117e5761117e612960565b602002602001015184836121c7565b83828151811061119f5761119f612960565b60200260200101516001600160a01b0316836001600160a01b03167f9aa05b3d70a9e3e2f004f039648839560576334fb45c81f91b6db03ad9e2efc9836040516111eb91815260200190565b60405180910390a350806111fe8161292a565b915050610fa6565b505060016010555050565b60105460011461122057600080fd5b60026010558061122f57600080fd5b6001600160a01b03821660009081526007602052604090205460ff1661125457600080fd5b6001600160a01b038216600090815260208190526040812054900361127f5761127f826000426122b6565b61128d826000196001611dd2565b6001600160a01b03841660009081526003602090815260408083206002835281842094909455939092556001909152205442106112fb576112d0823330846123a5565b6112dd62093a8082612908565b6001600160a01b038316600090815260208190526040902055611394565b6001600160a01b03821660009081526001602052604081205461131f9042906127a4565b6001600160a01b0384166000908152602081905260408120549192509061134690836128e9565b905080831161135457600080fd5b611360843330866123a5565b62093a8061136e82856127bb565b6113789190612908565b6001600160a01b03851660009081526020819052604090205550505b6001600160a01b0382166000908152602081905260409020546113b657600080fd5b6040516370a0823160e01b81523060048201526000906001600160a01b038416906370a0823190602401602060405180830381865afa1580156113fd573d6000803e3d6000fd5b505050506040513d601f19601f820116820180604052508101906114219190612976565b905061143062093a8082612908565b6001600160a01b03841660009081526020819052604090205411156114975760405162461bcd60e51b815260206004820152601860248201527f50726f76696465642072657761726420746f6f206869676800000000000000006044820152606401610b78565b6114a462093a80426127bb565b6001600160a01b0384166000818152600160205260409081902092909255905133907ff70d5c697de7ea828df48e5c4573cb2194c659f1901f70110c52b066dcf50826906114f59086815260200190565b60405180910390a35050600160105550565b600060085460000361152f57506001600160a01b031660009081526003602052604090205490565b600854826001600160a01b031663313ce5676040518163ffffffff1660e01b8152600401602060405180830381865afa158015611570573d6000803e3d6000fd5b505050506040513d601f19601f8201168201806040525081019061159491906127d3565b61159f90600a6128da565b6001600160a01b03841660009081526020818152604080832054600283528184205460019093529220546115d39190611dc3565b6115dc86610948565b6115e691906127a4565b6115f091906128e9565b6115fa91906128e9565b6116049190612908565b6001600160a01b03831660009081526003602052604090205461090a91906127bb565b6006818154811061163757600080fd5b6000918252602090912001546001600160a01b0316905081565b336001600160a01b037f0000000000000000000000000000000000000000000000000000000000000000161461168657600080fd5b61168e611fc2565b81600860008282546116a091906127bb565b9091555050600081815260096020526040812080548492906116c39084906127bb565b90915550506000818152600960205260409020546116e290829061204a565b6116ea612123565b604080518281526020810184905233917f90890809c654f11d6e72a28fa60149770a0d11ec6c92319d6ceb2bb0a4ea1a159101610d7b565b60105460011461173157600080fd5b600260105560405163430c208160e01b8152336004820152602481018390527f00000000000000000000000000000000000000000000000000000000000000006001600160a01b03169063430c208190604401602060405180830381865afa1580156117a1573d6000803e3d6000fd5b505050506040513d601f19601f820116820180604052508101906117c5919061298f565b6117ce57600080fd5b60005b8151811015611a1f576117ef828281518110610fc457610fc4612960565b6003600085858151811061180557611805612960565b60200260200101516001600160a01b03166001600160a01b0316815260200190815260200160002060006002600087878151811061184557611845612960565b60200260200101516001600160a01b03166001600160a01b03168152602001908152602001600020600084919050558391905055505060006118a083838151811061189257611892612960565b6020026020010151856105ee565b905042600460008585815181106118b9576118b9612960565b60200260200101516001600160a01b03166001600160a01b031681526020019081526020016000206000868152602001908152602001600020819055506003600084848151811061190c5761190c612960565b60200260200101516001600160a01b03166001600160a01b03168152602001908152602001600020546005600085858151811061194b5761194b612960565b6020908102919091018101516001600160a01b03168252818101929092526040908101600090812088825290925290205580156119a6576119a683838151811061199757611997612960565b602002602001015133836121c7565b8282815181106119b8576119b8612960565b60200260200101516001600160a01b0316336001600160a01b03167f9aa05b3d70a9e3e2f004f039648839560576334fb45c81f91b6db03ad9e2efc983604051611a0491815260200190565b60405180910390a35080611a178161292a565b9150506117d1565b5050600160105550565b6001600160a01b0382166000908152600f60205260408120548190808203611a58576000809250925050611c43565b6001600160a01b0385166000908152600e602052604081208591611a7d6001856127a4565b81526020019081526020016000206000015411611b1a576001600160a01b0385166000908152600e6020526040812090611ab86001846127a4565b815260200190815260200160002060010154600e6000876001600160a01b03166001600160a01b031681526020019081526020016000206000600184611afe91906127a4565b8152602001908152602001600020600001549250925050611c43565b6001600160a01b0385166000908152600e60209081526040808320838052909152902054841015611b52576000809250925050611c43565b600080611b606001846127a4565b90505b81811115611c125760006002611b7984846127a4565b611b839190612908565b611b8d90836127a4565b6001600160a01b0389166000908152600e60209081526040808320848452825291829020825180840190935280548084526001909101549183019190915291925090889003611bec57602081015190519096509450611c439350505050565b8051881115611bfd57819350611c0b565b611c086001836127a4565b92505b5050611b63565b506001600160a01b0386166000908152600e6020908152604080832093835292905220600181015490549093509150505b9250929050565b6000818311611c5957816109c0565b5090919050565b6001600160a01b0382166000908152600260209081526040808320546003909252822054600d54839291908303611c9a5792509050611c43565b6001600160a01b0386166000908152602081905260408120549003611cc5579250429150611c439050565b6000611cd083610978565b90506000611cec6001600d54611ce691906127a4565b88611dc3565b9050815b81811015611db4576000818152600c60209081526040918290208251808401909352805483526001015490820181905215611da1576000600c81611d358560016127bb565b8152602001908152602001600020604051806040016040529081600082015481526020016001820154815250509050600080611d808d8460000151866000015187602001518d61249d565b9092509050611d8f82896127bb565b9750611d9c8d89836122b6565b975050505b5080611dac8161292a565b915050611cf0565b50919792965091945050505050565b6000818310611c5957816109c0565b6001600160a01b0383166000908152600260209081526040808320546003909252822054600d54839291908303611e0c5792509050611fba565b6001600160a01b0387166000908152602081905260408120549003611e37579250429150611fba9050565b6000611e4283610978565b90506000611e5e6001600d54611e5891906127a4565b89611dc3565b90508015611f3757815b611e736001836127a4565b8111611f35576000818152600c60209081526040918290208251808401909352805483526001015490820181905215611f22576000600c81611eb68560016127bb565b8152602001908152602001600020604051806040016040529081600082015481526020016001820154815250509050600080611f018e8460000151866000015187602001518d61249d565b9092509050611f1082896127bb565b9750611f1d8e89836122b6565b975050505b5080611f2d8161292a565b915050611e68565b505b8615611fb1576000818152600c60209081526040918290208251808401909352805483526001015490820181905215611faf576000611f908b611f798d610948565b8451611f85908a611c4a565b85602001518a61249d565b509050611f9d81866127bb565b9450611faa8b86426122b6565b429550505b505b50909350909150505b935093915050565b60065460005b8181101561204657600060068281548110611fe557611fe5612960565b6000918252602090912001546001600160a01b0316905061200a816000196001611dd2565b6001600160a01b03909216600090815260036020908152604080832060029092529091209290925590558061203e8161292a565b915050611fc8565b5050565b6000828152600b60205260409020544290801580159061209457506000848152600a6020526040812083916120806001856127a4565b815260200190815260200160002060000154145b156120cd576000848152600a6020526040812084916120b46001856127a4565b815260208101919091526040016000206001015561211d565b60408051808201825283815260208082018681526000888152600a835284812086825290925292902090518155905160019182015561210d9082906127bb565b6000858152600b60205260409020555b50505050565b600d54428115801590612155575080600c60006121416001866127a4565b815260200190815260200160002060000154145b1561218457600854600c600061216c6001866127a4565b81526020810191909152604001600020600101555050565b60408051808201825282815260085460208083019182526000868152600c909152929092209051815590516001918201556121c09083906127bb565b600d555050565b6000836001600160a01b03163b116121de57600080fd5b604080516001600160a01b038481166024830152604480830185905283518084039091018152606490920183526020820180516001600160e01b031663a9059cbb60e01b179052915160009283929087169161223a91906129b1565b6000604051808303816000865af19150503d8060008114612277576040519150601f19603f3d011682016040523d82523d6000602084013e61227c565b606091505b50915091508180156122a65750805115806122a65750808060200190518101906122a6919061298f565b6122af57600080fd5b5050505050565b6001600160a01b0383166000908152600f6020526040902054801580159061231257506001600160a01b0384166000908152600e6020526040812083916122fe6001856127a4565b815260200190815260200160002060000154145b1561233c576001600160a01b0384166000908152600e6020526040812084916120b46001856127a4565b60408051808201825283815260208082018681526001600160a01b0388166000908152600e83528481208682529092529290209051815590516001918201556123869082906127bb565b6001600160a01b0385166000908152600f602052604090205550505050565b6000846001600160a01b03163b116123bc57600080fd5b604080516001600160a01b0385811660248301528481166044830152606480830185905283518084039091018152608490920183526020820180516001600160e01b03166323b872dd60e01b179052915160009283929088169161242091906129b1565b6000604051808303816000865af19150503d806000811461245d576040519150601f19603f3d011682016040523d82523d6000602084013e612462565b606091505b509150915081801561248c57508051158061248c57508080602001905181019061248c919061298f565b61249557600080fd5b505050505050565b60008060006124ac8785611c4a565b905084886001600160a01b031663313ce5676040518163ffffffff1660e01b8152600401602060405180830381865afa1580156124ed573d6000803e3d6000fd5b505050506040513d601f19601f8201168201806040525081019061251191906127d3565b61251c90600a6128da565b6001600160a01b038a166000908152602081905260409020546125606125428a89611c4a565b6001600160a01b038d16600090815260016020526040902054611dc3565b6001600160a01b038c16600090815260016020526040902054612584908690611dc3565b61258e91906127a4565b61259891906128e9565b6125a291906128e9565b6125ac9190612908565b9890975095505050505050565b6001600160a01b03811681146125ce57600080fd5b50565b80356125dc816125b9565b919050565b600080604083850312156125f457600080fd5b82356125ff816125b9565b946020939093013593505050565b60006020828403121561261f57600080fd5b81356109c0816125b9565b6000806040838503121561263d57600080fd5b50508035926020909101359150565b60006020828403121561265e57600080fd5b5035919050565b60008060006060848603121561267a57600080fd5b83359250602084013561268c816125b9565b9150604084013561269c816125b9565b809150509250925092565b634e487b7160e01b600052604160045260246000fd5b600080604083850312156126d057600080fd5b8235915060208084013567ffffffffffffffff808211156126f057600080fd5b818601915086601f83011261270457600080fd5b813581811115612716576127166126a7565b8060051b604051601f19603f8301168101818110858211171561273b5761273b6126a7565b60405291825284820192508381018501918983111561275957600080fd5b938501935b8285101561277e5761276f856125d1565b8452938501939285019261275e565b8096505050505050509250929050565b634e487b7160e01b600052601160045260246000fd5b6000828210156127b6576127b661278e565b500390565b600082198211156127ce576127ce61278e565b500190565b6000602082840312156127e557600080fd5b815160ff811681146109c057600080fd5b600181815b808511156128315781600019048211156128175761281761278e565b8085161561282457918102915b93841c93908002906127fb565b509250929050565b6000826128485750600161090a565b816128555750600061090a565b816001811461286b576002811461287557612891565b600191505061090a565b60ff8411156128865761288661278e565b50506001821b61090a565b5060208310610133831016604e8410600b84101617156128b4575081810a61090a565b6128be83836127f6565b80600019048211156128d2576128d261278e565b029392505050565b60006109c060ff841683612839565b60008160001904831182151516156129035761290361278e565b500290565b60008261292557634e487b7160e01b600052601260045260246000fd5b500490565b60006001820161293c5761293c61278e565b5060010190565b60006020828403121561295557600080fd5b81516109c0816125b9565b634e487b7160e01b600052603260045260246000fd5b60006020828403121561298857600080fd5b5051919050565b6000602082840312156129a157600080fd5b815180151581146109c057600080fd5b6000825160005b818110156129d257602081860181015185830152016129b8565b818111156129e1576000828501525b50919091019291505056fea264697066735822122016172e022d6946333f4325de38fe84762d1ef9f5bc1abbd8f51a6908eb1c138064736f6c634300080d003360c06040526001600b553480156200001657600080fd5b5060405162001e8338038062001e838339810160408190526200003991620001f8565b6001600160a01b038216608081905260408051638dd598fb60e01b81529051638dd598fb916004808201926020929091908290030181865afa15801562000084573d6000803e3d6000fd5b505050506040513d601f19601f82011682018060405250810190620000aa9190620002e1565b6001600160a01b031660a05260005b8151811015620001bc5760006001600160a01b0316828281518110620000e357620000e362000306565b60200260200101516001600160a01b031614620001a75760016006600084848151811062000115576200011562000306565b60200260200101516001600160a01b03166001600160a01b0316815260200190815260200160002060006101000a81548160ff02191690831515021790555060058282815181106200016b576200016b62000306565b60209081029190910181015182546001810184556000938452919092200180546001600160a01b0319166001600160a01b039092169190911790555b80620001b3816200031c565b915050620000b9565b50505062000344565b80516001600160a01b0381168114620001dd57600080fd5b919050565b634e487b7160e01b600052604160045260246000fd5b600080604083850312156200020c57600080fd5b6200021783620001c5565b602084810151919350906001600160401b03808211156200023757600080fd5b818601915086601f8301126200024c57600080fd5b815181811115620002615762000261620001e2565b8060051b604051601f19603f83011681018181108582111715620002895762000289620001e2565b604052918252848201925083810185019189831115620002a857600080fd5b938501935b82851015620002d157620002c185620001c5565b84529385019392850192620002ad565b8096505050505050509250929050565b600060208284031215620002f457600080fd5b620002ff82620001c5565b9392505050565b634e487b7160e01b600052603260045260246000fd5b6000600182016200033d57634e487b7160e01b600052601160045260246000fd5b5060010190565b60805160a051611ae86200039b600039600081816102d90152818161089b01528181610cda015261125c0152600081816101da01528181610a6e01528181610c9701528181610ed5015261116f0152611ae86000f3fe608060405234801561001057600080fd5b506004361061018e5760003560e01c80639cc7f708116100de578063e688639611610097578063f301af4211610071578063f301af4214610416578063f320772314610429578063f5f8d3651461043c578063f7412baf1461044f57600080fd5b8063e6886396146103da578063e8111a12146103e2578063f25e55a5146103eb57600080fd5b80639cc7f7081461034e5780639e2bf22c1461036e578063a28d4c9c14610381578063a7852afa14610394578063b66503cf146103a7578063da09d19d146103ba57600080fd5b8063505897931161014b5780638dd598fb116101255780638dd598fb146102d457806392777b29146102fb5780639418f9391461032657806399bcc0521461033b57600080fd5b8063505897931461028e578063638634ee146102ae57806376f4be36146102c157600080fd5b80630175e23b1461019357806318160ddd146101b95780633e491d47146101c257806346c96aac146101d557806349dcc204146102145780634d5ce0381461025b575b600080fd5b6101a66101a1366004611792565b610476565b6040519081526020015b60405180910390f35b6101a660005481565b6101a66101d03660046117d3565b6104b8565b6101fc7f000000000000000000000000000000000000000000000000000000000000000081565b6040516001600160a01b0390911681526020016101b0565b6102466102223660046117ff565b60076020908152600092835260408084209091529082529020805460019091015482565b604080519283526020830191909152016101b0565b61027e610269366004611821565b60066020526000908152604090205460ff1681565b60405190151581526020016101b0565b6101a661029c366004611792565b60086020526000908152604090205481565b6101a66102bc366004611821565b610741565b6101a66102cf366004611792565b610765565b6101fc7f000000000000000000000000000000000000000000000000000000000000000081565b6101a66103093660046117d3565b600260209081526000928352604080842090915290825290205481565b61033961033436600461183e565b610899565b005b6101a6610349366004611821565b610a2a565b6101a661035c366004611792565b60016020526000908152604090205481565b61033961037c3660046117ff565b610a63565b6101a661038f3660046117ff565b610b33565b6103396103a2366004611896565b610c78565b6103396103b53660046117d3565b610e78565b6101a66103c8366004611821565b60036020526000908152604090205481565b6005546101a6565b6101a6600a5481565b6101a66103f93660046117d3565b600460209081526000928352604080842090915290825290205481565b6101fc610424366004611792565b61113a565b6103396104373660046117ff565b611164565b61033961044a366004611896565b61122c565b61024661045d366004611792565b6009602052600090815260409020805460019091015482565b60008061048283611400565b9050600061049362093a808361197d565b90508084106104ae576104a98262093a8061197d565b6104b0565b815b949350505050565b6001600160a01b0382166000908152600460209081526040808320848452825280832054600890925282205482036104f457600091505061073b565b60006105008483610b33565b6000858152600860205260408120549192509061051f90600190611995565b90506000610540604051806040016040528060008152602001600081525090565b61054985611400565b81526001831561065a57845b610560600186611995565b81116106585760008981526007602090815260408083208484528252808320815180830190925280548083526001909101549282019290925291906105a490611400565b85519091508111156105c25760208501516105bf908761197d565b95505b808552600960006105d96102cf62093a808561197d565b815260200190815260200160002060010154935083600260008e6001600160a01b03166001600160a01b03168152602001908152602001600020600083815260200190815260200160002054836020015161063491906119ac565b61063e91906119e1565b602086015250819050610650816119f5565b915050610555565b505b600088815260076020908152604080832087845282528083208151808301909252805480835260019091015492820192909252919061069890611400565b905060006106a962093a808361197d565b90508042111561072f57600960006106c083610765565b815260200190815260200160002060010154600260008e6001600160a01b03166001600160a01b03168152602001908152602001600020600084815260200190815260200160002054846020015161071891906119ac565b61072291906119e1565b61072c908761197d565b95505b50939750505050505050505b92915050565b6001600160a01b03811660009081526003602052604081205461073b904290611419565b600a5460009080820361077b5750600092915050565b826009600061078b600185611995565b815260200190815260200160002060000154116107b4576107ad600182611995565b9392505050565b6000805260096020527fec8156718a8372b1db44bb411437d0870f3e3790d4a08526d024ce1b0b668f6b548310156107ef5750600092915050565b6000806107fd600184611995565b90505b8181111561089157600060026108168484611995565b61082091906119e1565b61082a9083611995565b60008181526009602090815260409182902082518084019093528054808452600190910154918301919091529192509087900361086b575095945050505050565b805187111561087c5781935061088a565b610887600183611995565b92505b5050610800565b509392505050565b7f00000000000000000000000000000000000000000000000000000000000000006001600160a01b03166385f2aef26040518163ffffffff1660e01b81526004016020604051808303816000875af11580156108f9573d6000803e3d6000fd5b505050506040513d601f19601f8201168201806040525081019061091d9190611a0e565b6001600160a01b0316336001600160a01b03161461096e5760405162461bcd60e51b81526020600482015260096024820152686f6e6c79207465616d60b81b60448201526064015b60405180910390fd5b816001600160a01b03166005848154811061098b5761098b611a2b565b6000918252602090912001546001600160a01b0316146109aa57600080fd5b6001600160a01b03808316600090815260066020526040808220805460ff19908116909155928416825290208054909116600117905560058054829190859081106109f7576109f7611a2b565b9060005260206000200160006101000a8154816001600160a01b0302191690836001600160a01b03160217905550505050565b600080610a3642610476565b6001600160a01b039093166000908152600260209081526040808320958352949052929092205492915050565b336001600160a01b037f00000000000000000000000000000000000000000000000000000000000000001614610a9857600080fd5b81600080828254610aa99190611995565b909155505060008181526001602052604081208054849290610acc908490611995565b9091555050600081815260016020526040902054610aeb90829061142f565b610af3611508565b604080518281526020810184905233917ff279e6a1f5e320cca91135676d9cb6e44ca8a08c0b88342bcdb1144f6511b56891015b60405180910390a25050565b600082815260086020526040812054808203610b5357600091505061073b565b60008481526007602052604081208491610b6e600185611995565b81526020019081526020016000206000015411610b9857610b90600182611995565b91505061073b565b6000848152600760209081526040808320838052909152902054831015610bc357600091505061073b565b600080610bd1600184611995565b90505b81811115610c6f5760006002610bea8484611995565b610bf491906119e1565b610bfe9083611995565b6000888152600760209081526040808320848452825291829020825180840190935280548084526001909101549183019190915291925090879003610c495750935061073b92505050565b8051871115610c5a57819350610c68565b610c65600183611995565b92505b5050610bd4565b50949350505050565b600b54600114610c8757600080fd5b6002600b55336001600160a01b037f00000000000000000000000000000000000000000000000000000000000000001614610cc157600080fd5b6040516331a9108f60e11b8152600481018390526000907f00000000000000000000000000000000000000000000000000000000000000006001600160a01b031690636352211e90602401602060405180830381865afa158015610d29573d6000803e3d6000fd5b505050506040513d601f19601f82011682018060405250810190610d4d9190611a0e565b905060005b8251811015610e6d576000610d80848381518110610d7257610d72611a2b565b6020026020010151866104b8565b90504260046000868581518110610d9957610d99611a2b565b6020908102919091018101516001600160a01b0316825281810192909252604090810160009081208982529092529020558015610df457610df4848381518110610de557610de5611a2b565b602002602001015184836115ab565b838281518110610e0657610e06611a2b565b60200260200101516001600160a01b0316836001600160a01b03167f9aa05b3d70a9e3e2f004f039648839560576334fb45c81f91b6db03ad9e2efc983604051610e5291815260200190565b60405180910390a35080610e65816119f5565b915050610d52565b50506001600b555050565b600b54600114610e8757600080fd5b6002600b5580610e9657600080fd5b6001600160a01b03821660009081526006602052604090205460ff16610fde57604051633af32abf60e01b81526001600160a01b0383811660048301527f00000000000000000000000000000000000000000000000000000000000000001690633af32abf90602401602060405180830381865afa158015610f1c573d6000803e3d6000fd5b505050506040513d601f19601f82011682018060405250810190610f409190611a41565b610f8c5760405162461bcd60e51b815260206004820181905260248201527f627269626520746f6b656e73206d7573742062652077686974656c69737465646044820152606401610965565b600554601011610fde5760405162461bcd60e51b815260206004820152601760248201527f746f6f206d616e79207265776172647320746f6b656e730000000000000000006044820152606401610965565b6000610fe942610476565b6001600160a01b038416600090815260026020908152604080832084845290915290205490915061101c8433308661169a565b611026838261197d565b6001600160a01b038516600090815260026020908152604080832086845290915290205561105762093a808361197d565b6001600160a01b03851660009081526003602090815260408083209390935560069052205460ff166110e9576001600160a01b0384166000818152600660205260408120805460ff191660019081179091556005805491820181559091527f036b6384b5eca791c62761152d0c79bb0604c104a5fb6f4eb0703f3154bb3db00180546001600160a01b03191690911790555b60408051838152602081018590526001600160a01b0386169133917f52977ea98a2220a03ee9ba5cb003ada08d394ea10155483c95dc2dc77a7eb24b910160405180910390a350506001600b555050565b6005818154811061114a57600080fd5b6000918252602090912001546001600160a01b0316905081565b336001600160a01b037f0000000000000000000000000000000000000000000000000000000000000000161461119957600080fd5b816000808282546111aa919061197d565b9091555050600081815260016020526040812080548492906111cd90849061197d565b90915550506000818152600160205260409020546111ec90829061142f565b6111f4611508565b604080518281526020810184905233917f90890809c654f11d6e72a28fa60149770a0d11ec6c92319d6ceb2bb0a4ea1a159101610b27565b600b5460011461123b57600080fd5b6002600b5560405163430c208160e01b8152336004820152602481018390527f00000000000000000000000000000000000000000000000000000000000000006001600160a01b03169063430c208190604401602060405180830381865afa1580156112ab573d6000803e3d6000fd5b505050506040513d601f19601f820116820180604052508101906112cf9190611a41565b6112d857600080fd5b60005b81518110156113f65760006113098383815181106112fb576112fb611a2b565b6020026020010151856104b8565b9050426004600085858151811061132257611322611a2b565b6020908102919091018101516001600160a01b031682528181019290925260409081016000908120888252909252902055801561137d5761137d83838151811061136e5761136e611a2b565b602002602001015133836115ab565b82828151811061138f5761138f611a2b565b60200260200101516001600160a01b0316336001600160a01b03167f9aa05b3d70a9e3e2f004f039648839560576334fb45c81f91b6db03ad9e2efc9836040516113db91815260200190565b60405180910390a350806113ee816119f5565b9150506112db565b50506001600b5550565b600061140f62093a8083611a63565b61073b9083611995565b600081831061142857816107ad565b5090919050565b60008281526008602052604090205442908015801590611479575060008481526007602052604081208391611465600185611995565b815260200190815260200160002060000154145b156114b25760008481526007602052604081208491611499600185611995565b8152602081019190915260400160002060010155611502565b60408051808201825283815260208082018681526000888152600783528481208682529092529290209051815590516001918201556114f290829061197d565b6000858152600860205260409020555b50505050565b600a5442811580159061153a57508060096000611526600186611995565b815260200190815260200160002060000154145b1561156b57600054600960006001856115539190611995565b81526020810191909152604001600020600101555050565b604080518082018252828152600080546020808401918252868352600990529290209051815590516001918201556115a490839061197d565b600a555050565b6000836001600160a01b03163b116115c257600080fd5b604080516001600160a01b038481166024830152604480830185905283518084039091018152606490920183526020820180516001600160e01b031663a9059cbb60e01b179052915160009283929087169161161e9190611a77565b6000604051808303816000865af19150503d806000811461165b576040519150601f19603f3d011682016040523d82523d6000602084013e611660565b606091505b509150915081801561168a57508051158061168a57508080602001905181019061168a9190611a41565b61169357600080fd5b5050505050565b6000846001600160a01b03163b116116b157600080fd5b604080516001600160a01b0385811660248301528481166044830152606480830185905283518084039091018152608490920183526020820180516001600160e01b03166323b872dd60e01b17905291516000928392908816916117159190611a77565b6000604051808303816000865af19150503d8060008114611752576040519150601f19603f3d011682016040523d82523d6000602084013e611757565b606091505b50915091508180156117815750805115806117815750808060200190518101906117819190611a41565b61178a57600080fd5b505050505050565b6000602082840312156117a457600080fd5b5035919050565b6001600160a01b03811681146117c057600080fd5b50565b80356117ce816117ab565b919050565b600080604083850312156117e657600080fd5b82356117f1816117ab565b946020939093013593505050565b6000806040838503121561181257600080fd5b50508035926020909101359150565b60006020828403121561183357600080fd5b81356107ad816117ab565b60008060006060848603121561185357600080fd5b833592506020840135611865816117ab565b91506040840135611875816117ab565b809150509250925092565b634e487b7160e01b600052604160045260246000fd5b600080604083850312156118a957600080fd5b8235915060208084013567ffffffffffffffff808211156118c957600080fd5b818601915086601f8301126118dd57600080fd5b8135818111156118ef576118ef611880565b8060051b604051601f19603f8301168101818110858211171561191457611914611880565b60405291825284820192508381018501918983111561193257600080fd5b938501935b8285101561195757611948856117c3565b84529385019392850192611937565b8096505050505050509250929050565b634e487b7160e01b600052601160045260246000fd5b6000821982111561199057611990611967565b500190565b6000828210156119a7576119a7611967565b500390565b60008160001904831182151516156119c6576119c6611967565b500290565b634e487b7160e01b600052601260045260246000fd5b6000826119f0576119f06119cb565b500490565b600060018201611a0757611a07611967565b5060010190565b600060208284031215611a2057600080fd5b81516107ad816117ab565b634e487b7160e01b600052603260045260246000fd5b600060208284031215611a5357600080fd5b815180151581146107ad57600080fd5b600082611a7257611a726119cb565b500690565b6000825160005b81811015611a985760208186018101518583015201611a7e565b81811115611aa7576000828501525b50919091019291505056fea26469706673582212209d8eb9055c16ee5d95fa4b560f1c94c676f2a031fe0222ec062a8c1738e12d0064736f6c634300080d0033a26469706673582212201f60e040b09d3baead88ccddcde9fbf38fa4b0df6d1520678203c2eadff9e4b964736f6c634300080d0033",
  "devdoc": {
    "kind": "dev",
    "methods": {},
    "version": 1
  },
  "userdoc": {
    "kind": "user",
    "methods": {},
    "version": 1
  },
  "storageLayout": {
    "storage": [
      {
        "astId": 21361,
        "contract": "contracts/factories/BribeFactory.sol:BribeFactory",
        "label": "last_internal_bribe",
        "offset": 0,
        "slot": "0",
        "type": "t_address"
      },
      {
        "astId": 21363,
        "contract": "contracts/factories/BribeFactory.sol:BribeFactory",
        "label": "last_external_bribe",
        "offset": 0,
        "slot": "1",
        "type": "t_address"
      }
    ],
    "types": {
      "t_address": {
        "encoding": "inplace",
        "label": "address",
        "numberOfBytes": "20"
      }
    }
  }
}