{
  "address": "0xF32608868E215FC3164FDe378dca8D3741d0430A",
  "abi": [
    {
      "inputs": [
        {
          "internalType": "address",
          "name": "_velo",
          "type": "address"
        },
        {
          "internalType": "bytes32",
          "name": "_merkleRoot",
          "type": "bytes32"
        }
      ],
      "stateMutability": "nonpayable",
      "type": "constructor"
    },
    {
      "anonymous": false,
      "inputs": [
        {
          "indexed": true,
          "internalType": "address",
          "name": "to",
          "type": "address"
        },
        {
          "indexed": false,
          "internalType": "uint256",
          "name": "amount",
          "type": "uint256"
        }
      ],
      "name": "Claim",
      "type": "event"
    },
    {
      "inputs": [],
      "name": "VELO",
      "outputs": [
        {
          "internalType": "contract IVelo",
          "name": "",
          "type": "address"
        }
      ],
      "stateMutability": "view",
      "type": "function"
    },
    {
      "inputs": [
        {
          "internalType": "address",
          "name": "to",
          "type": "address"
        },
        {
          "internalType": "uint256",
          "name": "amount",
          "type": "uint256"
        },
        {
          "internalType": "bytes32[]",
          "name": "proof",
          "type": "bytes32[]"
        }
      ],
      "name": "claim",
      "outputs": [],
      "stateMutability": "nonpayable",
      "type": "function"
    },
    {
      "inputs": [
        {
          "internalType": "address",
          "name": "",
          "type": "address"
        }
      ],
      "name": "hasClaimed",
      "outputs": [
        {
          "internalType": "bool",
          "name": "",
          "type": "bool"
        }
      ],
      "stateMutability": "view",
      "type": "function"
    },
    {
      "inputs": [],
      "name": "merkleRoot",
      "outputs": [
        {
          "internalType": "bytes32",
          "name": "",
          "type": "bytes32"
        }
      ],
      "stateMutability": "view",
      "type": "function"
    }
  ],
  "transactionHash": "0x244a338c51a7d9d1bb2405db83d844b85ebaf2d138c09a2e359669375face8ca",
  "args": [
    "0xC33f7f83CbB021846Cb9c58f2d8E3df428dbC8C1",
    "0xbb99a09fb3b8499385659e82a8da93596dd07082fe86981ec06c83181dee489f"
  ],
  "numDeployments": 1,
  "solcInputHash": "f93feb6db909c3f14d7eec3a3196fbbd",
  "bytecode": "0x60c060405234801561001057600080fd5b5060405161062638038061062683398101604081905261002f91610045565b6001600160a01b0390911660805260a05261007f565b6000806040838503121561005857600080fd5b82516001600160a01b038116811461006f57600080fd5b6020939093015192949293505050565b60805160a0516105766100b060003960008181605601526101ea01526000818160d8015261029601526105766000f3fe608060405234801561001057600080fd5b506004361061004c5760003560e01c80632eb4a7ab146100515780633d13f8741461008b57806373b2e80e146100a0578063a0eeb39a146100d3575b600080fd5b6100787f000000000000000000000000000000000000000000000000000000000000000081565b6040519081526020015b60405180910390f35b61009e61009936600461043c565b610112565b005b6100c36100ae3660046104c6565b60006020819052908152604090205460ff1681565b6040519015158152602001610082565b6100fa7f000000000000000000000000000000000000000000000000000000000000000081565b6040516001600160a01b039091168152602001610082565b6001600160a01b03841660009081526020819052604090205460ff16156101725760405162461bcd60e51b815260206004820152600f60248201526e1053149150511657d0d31052535151608a1b60448201526064015b60405180910390fd5b6040516bffffffffffffffffffffffff19606086901b1660208201526034810184905260009060540160405160208183030381529060405280519060200120905060006102158484808060200260200160405190810160405280939291908181526020018383602002808284376000920191909152507f0000000000000000000000000000000000000000000000000000000000000000925086915061038b9050565b9050806102545760405162461bcd60e51b815260206004820152600d60248201526c4e4f545f494e5f4d45524b4c4560981b6044820152606401610169565b6001600160a01b0386811660008181526020819052604090819020805460ff1916600117905551635569f64b60e11b81526004810191909152602481018790527f00000000000000000000000000000000000000000000000000000000000000009091169063aad3ec96906044016020604051808303816000875af11580156102e1573d6000803e3d6000fd5b505050506040513d601f19601f8201168201806040525081019061030591906104e1565b6103405760405162461bcd60e51b815260206004820152600c60248201526b10d310525357d1905253115160a21b6044820152606401610169565b856001600160a01b03167f47cee97cb7acd717b3c0aa1435d004cd5b3c8c57d70dbceb4e4458bbd60e39d48660405161037b91815260200190565b60405180910390a2505050505050565b60008261039885846103a1565b14949350505050565b600081815b84518110156103e6576103d2828683815181106103c5576103c5610503565b60200260200101516103ee565b9150806103de81610519565b9150506103a6565b509392505050565b600081831061040a576000828152602084905260409020610419565b60008381526020839052604090205b9392505050565b80356001600160a01b038116811461043757600080fd5b919050565b6000806000806060858703121561045257600080fd5b61045b85610420565b935060208501359250604085013567ffffffffffffffff8082111561047f57600080fd5b818701915087601f83011261049357600080fd5b8135818111156104a257600080fd5b8860208260051b85010111156104b757600080fd5b95989497505060200194505050565b6000602082840312156104d857600080fd5b61041982610420565b6000602082840312156104f357600080fd5b8151801515811461041957600080fd5b634e487b7160e01b600052603260045260246000fd5b60006001820161053957634e487b7160e01b600052601160045260246000fd5b506001019056fea26469706673582212207ff4a3058000aa2127bce11a4350a06b85715a38c4ec1fb8625704ba02ab001764736f6c634300080d0033",
  "devdoc": {
    "author": "Modified from Merkle Airdrop Starter (https://github.com/Anish-Agnihotri/merkle-airdrop-starter/blob/master/contracts/src/MerkleClaimERC20.sol)",
    "events": {
      "Claim(address,uint256)": {
        "params": {
          "amount": "of tokens claimed",
          "to": "recipient of claim"
        }
      }
    },
    "kind": "dev",
    "methods": {
      "claim(address,uint256,bytes32[])": {
        "params": {
          "amount": "of tokens owed to claimee",
          "proof": "merkle proof to prove address and amount are in tree",
          "to": "address of claimee"
        }
      },
      "constructor": {
        "params": {
          "_merkleRoot": "of claimees",
          "_velo": "address"
        }
      }
    },
    "title": "MerkleClaim",
    "version": 1
  },
  "userdoc": {
    "events": {
      "Claim(address,uint256)": {
        "notice": "Emitted after a successful token claim"
      }
    },
    "kind": "user",
    "methods": {
      "VELO()": {
        "notice": "VELO token to claim"
      },
      "claim(address,uint256,bytes32[])": {
        "notice": "Allows claiming tokens if address is part of merkle tree"
      },
      "constructor": {
        "notice": "Creates a new MerkleClaim contract"
      },
      "hasClaimed(address)": {
        "notice": "Mapping of addresses who have claimed tokens"
      },
      "merkleRoot()": {
        "notice": "ERC20-claimee inclusion root"
      }
    },
    "notice": "Claims VELO for members of a merkle tree",
    "version": 1
  },
  "storageLayout": {
    "storage": [
      {
        "astId": 24472,
        "contract": "contracts/redeem/MerkleClaim.sol:MerkleClaim",
        "label": "hasClaimed",
        "offset": 0,
        "slot": "0",
        "type": "t_mapping(t_address,t_bool)"
      }
    ],
    "types": {
      "t_address": {
        "encoding": "inplace",
        "label": "address",
        "numberOfBytes": "20"
      },
      "t_bool": {
        "encoding": "inplace",
        "label": "bool",
        "numberOfBytes": "1"
      },
      "t_mapping(t_address,t_bool)": {
        "encoding": "mapping",
        "key": "t_address",
        "label": "mapping(address => bool)",
        "numberOfBytes": "32",
        "value": "t_bool"
      }
    }
  }
}