{
  "address": "0x52A18b2386D6221Cf9DbcD4790456a23249e5279",
  "abi": [
    {
      "inputs": [
        {
          "internalType": "address",
          "name": "_factory",
          "type": "address"
        },
        {
          "internalType": "address",
          "name": "_weth",
          "type": "address"
        }
      ],
      "stateMutability": "nonpayable",
      "type": "constructor"
    },
    {
      "inputs": [
        {
          "internalType": "uint256[]",
          "name": "amounts",
          "type": "uint256[]"
        },
        {
          "components": [
            {
              "internalType": "address",
              "name": "from",
              "type": "address"
            },
            {
              "internalType": "address",
              "name": "to",
              "type": "address"
            },
            {
              "internalType": "bool",
              "name": "stable",
              "type": "bool"
            }
          ],
          "internalType": "struct Router.route[]",
          "name": "routes",
          "type": "tuple[]"
        },
        {
          "internalType": "address",
          "name": "to",
          "type": "address"
        },
        {
          "internalType": "uint256",
          "name": "deadline",
          "type": "uint256"
        }
      ],
      "name": "UNSAFE_swapExactTokensForTokens",
      "outputs": [
        {
          "internalType": "uint256[]",
          "name": "",
          "type": "uint256[]"
        }
      ],
      "stateMutability": "nonpayable",
      "type": "function"
    },
    {
      "inputs": [
        {
          "internalType": "address",
          "name": "tokenA",
          "type": "address"
        },
        {
          "internalType": "address",
          "name": "tokenB",
          "type": "address"
        },
        {
          "internalType": "bool",
          "name": "stable",
          "type": "bool"
        },
        {
          "internalType": "uint256",
          "name": "amountADesired",
          "type": "uint256"
        },
        {
          "internalType": "uint256",
          "name": "amountBDesired",
          "type": "uint256"
        },
        {
          "internalType": "uint256",
          "name": "amountAMin",
          "type": "uint256"
        },
        {
          "internalType": "uint256",
          "name": "amountBMin",
          "type": "uint256"
        },
        {
          "internalType": "address",
          "name": "to",
          "type": "address"
        },
        {
          "internalType": "uint256",
          "name": "deadline",
          "type": "uint256"
        }
      ],
      "name": "addLiquidity",
      "outputs": [
        {
          "internalType": "uint256",
          "name": "amountA",
          "type": "uint256"
        },
        {
          "internalType": "uint256",
          "name": "amountB",
          "type": "uint256"
        },
        {
          "internalType": "uint256",
          "name": "liquidity",
          "type": "uint256"
        }
      ],
      "stateMutability": "nonpayable",
      "type": "function"
    },
    {
      "inputs": [
        {
          "internalType": "address",
          "name": "token",
          "type": "address"
        },
        {
          "internalType": "bool",
          "name": "stable",
          "type": "bool"
        },
        {
          "internalType": "uint256",
          "name": "amountTokenDesired",
          "type": "uint256"
        },
        {
          "internalType": "uint256",
          "name": "amountTokenMin",
          "type": "uint256"
        },
        {
          "internalType": "uint256",
          "name": "amountETHMin",
          "type": "uint256"
        },
        {
          "internalType": "address",
          "name": "to",
          "type": "address"
        },
        {
          "internalType": "uint256",
          "name": "deadline",
          "type": "uint256"
        }
      ],
      "name": "addLiquidityETH",
      "outputs": [
        {
          "internalType": "uint256",
          "name": "amountToken",
          "type": "uint256"
        },
        {
          "internalType": "uint256",
          "name": "amountETH",
          "type": "uint256"
        },
        {
          "internalType": "uint256",
          "name": "liquidity",
          "type": "uint256"
        }
      ],
      "stateMutability": "payable",
      "type": "function"
    },
    {
      "inputs": [],
      "name": "factory",
      "outputs": [
        {
          "internalType": "address",
          "name": "",
          "type": "address"
        }
      ],
      "stateMutability": "view",
      "type": "function"
    },
    {
      "inputs": [
        {
          "internalType": "uint256",
          "name": "amountIn",
          "type": "uint256"
        },
        {
          "internalType": "address",
          "name": "tokenIn",
          "type": "address"
        },
        {
          "internalType": "address",
          "name": "tokenOut",
          "type": "address"
        }
      ],
      "name": "getAmountOut",
      "outputs": [
        {
          "internalType": "uint256",
          "name": "amount",
          "type": "uint256"
        },
        {
          "internalType": "bool",
          "name": "stable",
          "type": "bool"
        }
      ],
      "stateMutability": "view",
      "type": "function"
    },
    {
      "inputs": [
        {
          "internalType": "uint256",
          "name": "amountIn",
          "type": "uint256"
        },
        {
          "components": [
            {
              "internalType": "address",
              "name": "from",
              "type": "address"
            },
            {
              "internalType": "address",
              "name": "to",
              "type": "address"
            },
            {
              "internalType": "bool",
              "name": "stable",
              "type": "bool"
            }
          ],
          "internalType": "struct Router.route[]",
          "name": "routes",
          "type": "tuple[]"
        }
      ],
      "name": "getAmountsOut",
      "outputs": [
        {
          "internalType": "uint256[]",
          "name": "amounts",
          "type": "uint256[]"
        }
      ],
      "stateMutability": "view",
      "type": "function"
    },
    {
      "inputs": [
        {
          "internalType": "address",
          "name": "tokenA",
          "type": "address"
        },
        {
          "internalType": "address",
          "name": "tokenB",
          "type": "address"
        },
        {
          "internalType": "bool",
          "name": "stable",
          "type": "bool"
        }
      ],
      "name": "getReserves",
      "outputs": [
        {
          "internalType": "uint256",
          "name": "reserveA",
          "type": "uint256"
        },
        {
          "internalType": "uint256",
          "name": "reserveB",
          "type": "uint256"
        }
      ],
      "stateMutability": "view",
      "type": "function"
    },
    {
      "inputs": [
        {
          "internalType": "address",
          "name": "pair",
          "type": "address"
        }
      ],
      "name": "isPair",
      "outputs": [
        {
          "internalType": "bool",
          "name": "",
          "type": "bool"
        }
      ],
      "stateMutability": "view",
      "type": "function"
    },
    {
      "inputs": [
        {
          "internalType": "address",
          "name": "tokenA",
          "type": "address"
        },
        {
          "internalType": "address",
          "name": "tokenB",
          "type": "address"
        },
        {
          "internalType": "bool",
          "name": "stable",
          "type": "bool"
        }
      ],
      "name": "pairFor",
      "outputs": [
        {
          "internalType": "address",
          "name": "pair",
          "type": "address"
        }
      ],
      "stateMutability": "view",
      "type": "function"
    },
    {
      "inputs": [
        {
          "internalType": "address",
          "name": "tokenA",
          "type": "address"
        },
        {
          "internalType": "address",
          "name": "tokenB",
          "type": "address"
        },
        {
          "internalType": "bool",
          "name": "stable",
          "type": "bool"
        },
        {
          "internalType": "uint256",
          "name": "amountADesired",
          "type": "uint256"
        },
        {
          "internalType": "uint256",
          "name": "amountBDesired",
          "type": "uint256"
        }
      ],
      "name": "quoteAddLiquidity",
      "outputs": [
        {
          "internalType": "uint256",
          "name": "amountA",
          "type": "uint256"
        },
        {
          "internalType": "uint256",
          "name": "amountB",
          "type": "uint256"
        },
        {
          "internalType": "uint256",
          "name": "liquidity",
          "type": "uint256"
        }
      ],
      "stateMutability": "view",
      "type": "function"
    },
    {
      "inputs": [
        {
          "internalType": "address",
          "name": "tokenA",
          "type": "address"
        },
        {
          "internalType": "address",
          "name": "tokenB",
          "type": "address"
        },
        {
          "internalType": "bool",
          "name": "stable",
          "type": "bool"
        },
        {
          "internalType": "uint256",
          "name": "liquidity",
          "type": "uint256"
        }
      ],
      "name": "quoteRemoveLiquidity",
      "outputs": [
        {
          "internalType": "uint256",
          "name": "amountA",
          "type": "uint256"
        },
        {
          "internalType": "uint256",
          "name": "amountB",
          "type": "uint256"
        }
      ],
      "stateMutability": "view",
      "type": "function"
    },
    {
      "inputs": [
        {
          "internalType": "address",
          "name": "tokenA",
          "type": "address"
        },
        {
          "internalType": "address",
          "name": "tokenB",
          "type": "address"
        },
        {
          "internalType": "bool",
          "name": "stable",
          "type": "bool"
        },
        {
          "internalType": "uint256",
          "name": "liquidity",
          "type": "uint256"
        },
        {
          "internalType": "uint256",
          "name": "amountAMin",
          "type": "uint256"
        },
        {
          "internalType": "uint256",
          "name": "amountBMin",
          "type": "uint256"
        },
        {
          "internalType": "address",
          "name": "to",
          "type": "address"
        },
        {
          "internalType": "uint256",
          "name": "deadline",
          "type": "uint256"
        }
      ],
      "name": "removeLiquidity",
      "outputs": [
        {
          "internalType": "uint256",
          "name": "amountA",
          "type": "uint256"
        },
        {
          "internalType": "uint256",
          "name": "amountB",
          "type": "uint256"
        }
      ],
      "stateMutability": "nonpayable",
      "type": "function"
    },
    {
      "inputs": [
        {
          "internalType": "address",
          "name": "token",
          "type": "address"
        },
        {
          "internalType": "bool",
          "name": "stable",
          "type": "bool"
        },
        {
          "internalType": "uint256",
          "name": "liquidity",
          "type": "uint256"
        },
        {
          "internalType": "uint256",
          "name": "amountTokenMin",
          "type": "uint256"
        },
        {
          "internalType": "uint256",
          "name": "amountETHMin",
          "type": "uint256"
        },
        {
          "internalType": "address",
          "name": "to",
          "type": "address"
        },
        {
          "internalType": "uint256",
          "name": "deadline",
          "type": "uint256"
        }
      ],
      "name": "removeLiquidityETH",
      "outputs": [
        {
          "internalType": "uint256",
          "name": "amountToken",
          "type": "uint256"
        },
        {
          "internalType": "uint256",
          "name": "amountETH",
          "type": "uint256"
        }
      ],
      "stateMutability": "nonpayable",
      "type": "function"
    },
    {
      "inputs": [
        {
          "internalType": "address",
          "name": "token",
          "type": "address"
        },
        {
          "internalType": "bool",
          "name": "stable",
          "type": "bool"
        },
        {
          "internalType": "uint256",
          "name": "liquidity",
          "type": "uint256"
        },
        {
          "internalType": "uint256",
          "name": "amountTokenMin",
          "type": "uint256"
        },
        {
          "internalType": "uint256",
          "name": "amountETHMin",
          "type": "uint256"
        },
        {
          "internalType": "address",
          "name": "to",
          "type": "address"
        },
        {
          "internalType": "uint256",
          "name": "deadline",
          "type": "uint256"
        },
        {
          "internalType": "bool",
          "name": "approveMax",
          "type": "bool"
        },
        {
          "internalType": "uint8",
          "name": "v",
          "type": "uint8"
        },
        {
          "internalType": "bytes32",
          "name": "r",
          "type": "bytes32"
        },
        {
          "internalType": "bytes32",
          "name": "s",
          "type": "bytes32"
        }
      ],
      "name": "removeLiquidityETHWithPermit",
      "outputs": [
        {
          "internalType": "uint256",
          "name": "amountToken",
          "type": "uint256"
        },
        {
          "internalType": "uint256",
          "name": "amountETH",
          "type": "uint256"
        }
      ],
      "stateMutability": "nonpayable",
      "type": "function"
    },
    {
      "inputs": [
        {
          "internalType": "address",
          "name": "tokenA",
          "type": "address"
        },
        {
          "internalType": "address",
          "name": "tokenB",
          "type": "address"
        },
        {
          "internalType": "bool",
          "name": "stable",
          "type": "bool"
        },
        {
          "internalType": "uint256",
          "name": "liquidity",
          "type": "uint256"
        },
        {
          "internalType": "uint256",
          "name": "amountAMin",
          "type": "uint256"
        },
        {
          "internalType": "uint256",
          "name": "amountBMin",
          "type": "uint256"
        },
        {
          "internalType": "address",
          "name": "to",
          "type": "address"
        },
        {
          "internalType": "uint256",
          "name": "deadline",
          "type": "uint256"
        },
        {
          "internalType": "bool",
          "name": "approveMax",
          "type": "bool"
        },
        {
          "internalType": "uint8",
          "name": "v",
          "type": "uint8"
        },
        {
          "internalType": "bytes32",
          "name": "r",
          "type": "bytes32"
        },
        {
          "internalType": "bytes32",
          "name": "s",
          "type": "bytes32"
        }
      ],
      "name": "removeLiquidityWithPermit",
      "outputs": [
        {
          "internalType": "uint256",
          "name": "amountA",
          "type": "uint256"
        },
        {
          "internalType": "uint256",
          "name": "amountB",
          "type": "uint256"
        }
      ],
      "stateMutability": "nonpayable",
      "type": "function"
    },
    {
      "inputs": [
        {
          "internalType": "address",
          "name": "tokenA",
          "type": "address"
        },
        {
          "internalType": "address",
          "name": "tokenB",
          "type": "address"
        }
      ],
      "name": "sortTokens",
      "outputs": [
        {
          "internalType": "address",
          "name": "token0",
          "type": "address"
        },
        {
          "internalType": "address",
          "name": "token1",
          "type": "address"
        }
      ],
      "stateMutability": "pure",
      "type": "function"
    },
    {
      "inputs": [
        {
          "internalType": "uint256",
          "name": "amountOutMin",
          "type": "uint256"
        },
        {
          "components": [
            {
              "internalType": "address",
              "name": "from",
              "type": "address"
            },
            {
              "internalType": "address",
              "name": "to",
              "type": "address"
            },
            {
              "internalType": "bool",
              "name": "stable",
              "type": "bool"
            }
          ],
          "internalType": "struct Router.route[]",
          "name": "routes",
          "type": "tuple[]"
        },
        {
          "internalType": "address",
          "name": "to",
          "type": "address"
        },
        {
          "internalType": "uint256",
          "name": "deadline",
          "type": "uint256"
        }
      ],
      "name": "swapExactETHForTokens",
      "outputs": [
        {
          "internalType": "uint256[]",
          "name": "amounts",
          "type": "uint256[]"
        }
      ],
      "stateMutability": "payable",
      "type": "function"
    },
    {
      "inputs": [
        {
          "internalType": "uint256",
          "name": "amountIn",
          "type": "uint256"
        },
        {
          "internalType": "uint256",
          "name": "amountOutMin",
          "type": "uint256"
        },
        {
          "components": [
            {
              "internalType": "address",
              "name": "from",
              "type": "address"
            },
            {
              "internalType": "address",
              "name": "to",
              "type": "address"
            },
            {
              "internalType": "bool",
              "name": "stable",
              "type": "bool"
            }
          ],
          "internalType": "struct Router.route[]",
          "name": "routes",
          "type": "tuple[]"
        },
        {
          "internalType": "address",
          "name": "to",
          "type": "address"
        },
        {
          "internalType": "uint256",
          "name": "deadline",
          "type": "uint256"
        }
      ],
      "name": "swapExactTokensForETH",
      "outputs": [
        {
          "internalType": "uint256[]",
          "name": "amounts",
          "type": "uint256[]"
        }
      ],
      "stateMutability": "nonpayable",
      "type": "function"
    },
    {
      "inputs": [
        {
          "internalType": "uint256",
          "name": "amountIn",
          "type": "uint256"
        },
        {
          "internalType": "uint256",
          "name": "amountOutMin",
          "type": "uint256"
        },
        {
          "components": [
            {
              "internalType": "address",
              "name": "from",
              "type": "address"
            },
            {
              "internalType": "address",
              "name": "to",
              "type": "address"
            },
            {
              "internalType": "bool",
              "name": "stable",
              "type": "bool"
            }
          ],
          "internalType": "struct Router.route[]",
          "name": "routes",
          "type": "tuple[]"
        },
        {
          "internalType": "address",
          "name": "to",
          "type": "address"
        },
        {
          "internalType": "uint256",
          "name": "deadline",
          "type": "uint256"
        }
      ],
      "name": "swapExactTokensForTokens",
      "outputs": [
        {
          "internalType": "uint256[]",
          "name": "amounts",
          "type": "uint256[]"
        }
      ],
      "stateMutability": "nonpayable",
      "type": "function"
    },
    {
      "inputs": [
        {
          "internalType": "uint256",
          "name": "amountIn",
          "type": "uint256"
        },
        {
          "internalType": "uint256",
          "name": "amountOutMin",
          "type": "uint256"
        },
        {
          "internalType": "address",
          "name": "tokenFrom",
          "type": "address"
        },
        {
          "internalType": "address",
          "name": "tokenTo",
          "type": "address"
        },
        {
          "internalType": "bool",
          "name": "stable",
          "type": "bool"
        },
        {
          "internalType": "address",
          "name": "to",
          "type": "address"
        },
        {
          "internalType": "uint256",
          "name": "deadline",
          "type": "uint256"
        }
      ],
      "name": "swapExactTokensForTokensSimple",
      "outputs": [
        {
          "internalType": "uint256[]",
          "name": "amounts",
          "type": "uint256[]"
        }
      ],
      "stateMutability": "nonpayable",
      "type": "function"
    },
    {
      "inputs": [],
      "name": "weth",
      "outputs": [
        {
          "internalType": "contract IWETH",
          "name": "",
          "type": "address"
        }
      ],
      "stateMutability": "view",
      "type": "function"
    },
    {
      "stateMutability": "payable",
      "type": "receive"
    }
  ],
  "transactionHash": "0x72fccd23138adb616617ec4533ef557da429f67f176c253b006ab42fbece6e31",
  "args": [
    "0x9f7fdaB9317f1442808B90B819Ed0a4eF4f74994",
    "0x82aF49447D8a07e3bd95BD0d56f35241523fBab1"
  ],
  "numDeployments": 1,
  "solcInputHash": "816572db58a4a8203fcf6f77728173df",
  "bytecode": "0x60e06040523480156200001157600080fd5b5060405162003ae838038062003ae88339810160408190526200003491620000d8565b6001600160a01b038216608081905260408051631355724960e31b81529051639aab9248916004808201926020929091908290030181865afa1580156200007f573d6000803e3d6000fd5b505050506040513d601f19601f82011682018060405250810190620000a5919062000110565b60c0526001600160a01b031660a052506200012a565b80516001600160a01b0381168114620000d357600080fd5b919050565b60008060408385031215620000ec57600080fd5b620000f783620000bb565b91506200010760208401620000bb565b90509250929050565b6000602082840312156200012357600080fd5b5051919050565b60805160a05160c0516138f4620001f46000396000610ef901526000818161013e0152818161020b0152818161091901528181610b5801528181610da901528181611470015281816115830152818161161101528181611de901528181611e1f01528181611e5401528181611ee901528181612028015261207801526000818161042d01528181610c3e01528181610ebe015281816111770152818161128b0152818161199601528181611b0a01528181612115015281816126ff01526127a001526138f46000f3fe60806040526004361061012e5760003560e01c80635e60dab5116100ab578063a32b1fcd1161006f578063a32b1fcd146103e8578063b7e0d4c014610408578063c45a01551461041b578063d7b0e0a51461044f578063e5e31b131461046f578063f41766d81461049f57600080fd5b80635e60dab51461035557806367ffb66a146103755780637301e3c8146103885780639881fcb4146103a857806398a0fb3c146103c857600080fd5b8063448725b4116100f2578063448725b4146102655780634c1ee03e14610285578063544caa56146102a55780635a47ddc3146102e55780635e1e63251461032057600080fd5b80630dede6c41461017257806313dcfc59146101ac57806318a13086146101d95780633fc8cef3146101f95780634386e63c1461024557600080fd5b3661016d57336001600160a01b037f0000000000000000000000000000000000000000000000000000000000000000161461016b5761016b612c98565b005b600080fd5b34801561017e57600080fd5b5061019261018d366004612ce4565b6104bf565b604080519283526020830191909152015b60405180910390f35b3480156101b857600080fd5b506101cc6101c7366004612d69565b6106d9565b6040516101a39190612de4565b3480156101e557600080fd5b506101cc6101f4366004612e6d565b6108ec565b34801561020557600080fd5b5061022d7f000000000000000000000000000000000000000000000000000000000000000081565b6040516001600160a01b0390911681526020016101a3565b34801561025157600080fd5b50610192610260366004612ee0565b610c37565b34801561027157600080fd5b50610192610280366004612f42565b610d9e565b34801561029157600080fd5b5061022d6102a0366004612fec565b610e77565b3480156102b157600080fd5b506102c56102c0366004613037565b610f7f565b604080516001600160a01b039384168152929091166020830152016101a3565b3480156102f157600080fd5b50610305610300366004613070565b61105f565b604080519384526020840192909252908201526060016101a3565b34801561032c57600080fd5b5061034061033b3660046130ff565b61113f565b604080519283529015156020830152016101a3565b34801561036157600080fd5b50610192610370366004612fec565b611393565b6101cc610383366004613136565b61144b565b34801561039457600080fd5b506101cc6103a3366004613208565b6117aa565b3480156103b457600080fd5b506101cc6103c336600461334a565b611880565b3480156103d457600080fd5b506103056103e33660046133f0565b611b02565b3480156103f457600080fd5b5061019261040336600461344b565b611d02565b610305610416366004613507565b611dbd565b34801561042757600080fd5b5061022d7f000000000000000000000000000000000000000000000000000000000000000081565b34801561045b57600080fd5b5061019261046a366004613507565b611ffe565b34801561047b57600080fd5b5061048f61048a366004613562565b6120f3565b60405190151581526020016101a3565b3480156104ab57600080fd5b506101cc6104ba366004612e6d565b612188565b60008082428110156104ec5760405162461bcd60e51b81526004016104e39061357f565b60405180910390fd5b60006104f98c8c8c610e77565b6040516323b872dd60e01b81523360048201526001600160a01b03821660248201819052604482018c90529192506323b872dd906064016020604051808303816000875af115801561054f573d6000803e3d6000fd5b505050506040513d601f19601f8201168201806040525081019061057391906135a8565b61057c57600080fd5b60405163226bf2d160e21b81526001600160a01b03878116600483015260009182918416906389afcb449060240160408051808303816000875af11580156105c8573d6000803e3d6000fd5b505050506040513d601f19601f820116820180604052508101906105ec91906135c5565b9150915060006105fc8f8f610f7f565b509050806001600160a01b03168f6001600160a01b03161461061f578183610622565b82825b90975095508a8710156106775760405162461bcd60e51b815260206004820152601d60248201527f526f757465723a20494e53554646494349454e545f415f414d4f554e5400000060448201526064016104e3565b898610156106c75760405162461bcd60e51b815260206004820152601d60248201527f526f757465723a20494e53554646494349454e545f425f414d4f554e5400000060448201526064016104e3565b50505050509850989650505050505050565b606081428110156106fc5760405162461bcd60e51b81526004016104e39061357f565b604080516001808252818301909252600091816020015b60408051606081018252600080825260208083018290529282015282526000199092019101816107135790505090508781600081518110610756576107566135e9565b6020026020010151600001906001600160a01b031690816001600160a01b031681525050868160008151811061078e5761078e6135e9565b6020026020010151602001906001600160a01b031690816001600160a01b03168152505085816000815181106107c6576107c66135e9565b60209081029190910101519015156040909101526107e48a82611880565b92508883600185516107f69190613615565b81518110610806576108066135e9565b6020026020010151101561082c5760405162461bcd60e51b81526004016104e39061362c565b6108d481600081518110610842576108426135e9565b602002602001015160000151336108b484600081518110610865576108656135e9565b60200260200101516000015185600081518110610884576108846135e9565b602002602001015160200151866000815181106108a3576108a36135e9565b602002602001015160400151610e77565b866000815181106108c7576108c76135e9565b60200260200101516122ad565b6108df8382876123a5565b5050979650505050505050565b6060814281101561090f5760405162461bcd60e51b81526004016104e39061357f565b6001600160a01b037f0000000000000000000000000000000000000000000000000000000000000000168686610946600182613615565b818110610955576109556135e9565b905060600201602001602081019061096d9190613562565b6001600160a01b0316146109935760405162461bcd60e51b81526004016104e39061366e565b6109ef888787808060200260200160405190810160405280939291908181526020016000905b828210156109e5576109d66060830286013681900381019061369c565b815260200190600101906109b9565b5050505050611880565b9150868260018451610a019190613615565b81518110610a1157610a116135e9565b60200260200101511015610a375760405162461bcd60e51b81526004016104e39061362c565b610af986866000818110610a4d57610a4d6135e9565b610a639260206060909202019081019150613562565b33610ae689896000818110610a7a57610a7a6135e9565b610a909260206060909202019081019150613562565b8a8a6000818110610aa357610aa36135e9565b9050606002016020016020810190610abb9190613562565b8b8b6000818110610ace57610ace6135e9565b90506060020160400160208101906102a091906136b8565b856000815181106108c7576108c76135e9565b610b56828787808060200260200160405190810160405280939291908181526020016000905b82821015610b4b57610b3c6060830286013681900381019061369c565b81526020019060010190610b1f565b5050505050306123a5565b7f00000000000000000000000000000000000000000000000000000000000000006001600160a01b0316632e1a7d4d8360018551610b949190613615565b81518110610ba457610ba46135e9565b60200260200101516040518263ffffffff1660e01b8152600401610bca91815260200190565b600060405180830381600087803b158015610be457600080fd5b505af1158015610bf8573d6000803e3d6000fd5b50505050610c2c848360018551610c0f9190613615565b81518110610c1f57610c1f6135e9565b60200260200101516125fa565b509695505050505050565b60008060007f00000000000000000000000000000000000000000000000000000000000000006001600160a01b0316636801cc308888886040518463ffffffff1660e01b8152600401610c8c939291906136d5565b602060405180830381865afa158015610ca9573d6000803e3d6000fd5b505050506040513d601f19601f82011682018060405250810190610ccd91906136f9565b90506001600160a01b038116610cea576000809250925050610d95565b600080610cf8898989611393565b915091506000836001600160a01b03166318160ddd6040518163ffffffff1660e01b8152600401602060405180830381865afa158015610d3c573d6000803e3d6000fd5b505050506040513d601f19601f82011682018060405250810190610d609190613716565b905080610d6d848961372f565b610d779190613764565b955080610d84838961372f565b610d8e9190613764565b9450505050505b94509492505050565b6000806000610dce8e7f00000000000000000000000000000000000000000000000000000000000000008f610e77565b9050600087610ddd578c610de1565b6000195b60405163d505accf60e01b81529091506001600160a01b0383169063d505accf90610e1c903390309086908f908e908e908e90600401613786565b600060405180830381600087803b158015610e3657600080fd5b505af1158015610e4a573d6000803e3d6000fd5b50505050610e5d8f8f8f8f8f8f8f611ffe565b809450819550505050509b509b9950505050505050505050565b6000806000610e868686610f7f565b6040516bffffffffffffffffffffffff19606084811b8216602084015283901b16603482015286151560f81b604882015291935091507f000000000000000000000000000000000000000000000000000000000000000090604901604051602081830303815290604052805190602001207f0000000000000000000000000000000000000000000000000000000000000000604051602001610f5d939291906001600160f81b0319815260609390931b6bffffffffffffffffffffffff191660018401526015830191909152603582015260550190565b60408051601f1981840301815291905280516020909101209695505050505050565b600080826001600160a01b0316846001600160a01b031603610fe35760405162461bcd60e51b815260206004820152601b60248201527f526f757465723a204944454e544943414c5f414444524553534553000000000060448201526064016104e3565b826001600160a01b0316846001600160a01b031610611003578284611006565b83835b90925090506001600160a01b0382166110585760405162461bcd60e51b8152602060048201526014602482015273526f757465723a205a45524f5f4144445245535360601b60448201526064016104e3565b9250929050565b600080600083428110156110855760405162461bcd60e51b81526004016104e39061357f565b6110948d8d8d8d8d8d8d6126c8565b909450925060006110a68e8e8e610e77565b90506110b48e3383886122ad565b6110c08d3383876122ad565b6040516335313c2160e11b81526001600160a01b038881166004830152821690636a627842906024016020604051808303816000875af1158015611108573d6000803e3d6000fd5b505050506040513d601f19601f8201168201806040525081019061112c9190613716565b9250505099509950999650505050505050565b600080600061115085856001610e77565b60405163e5e31b1360e01b81526001600160a01b03828116600483015291925060009182917f00000000000000000000000000000000000000000000000000000000000000009091169063e5e31b1390602401602060405180830381865afa1580156111c0573d6000803e3d6000fd5b505050506040513d601f19601f820116820180604052508101906111e491906135a8565b1561125d576040516378a051ad60e11b8152600481018990526001600160a01b03888116602483015284169063f140a35a90604401602060405180830381865afa158015611236573d6000803e3d6000fd5b505050506040513d601f19601f8201168201806040525081019061125a9190613716565b91505b61126987876000610e77565b60405163e5e31b1360e01b81526001600160a01b0380831660048301529194507f00000000000000000000000000000000000000000000000000000000000000009091169063e5e31b1390602401602060405180830381865afa1580156112d4573d6000803e3d6000fd5b505050506040513d601f19601f820116820180604052508101906112f891906135a8565b15611371576040516378a051ad60e11b8152600481018990526001600160a01b03888116602483015284169063f140a35a90604401602060405180830381865afa15801561134a573d6000803e3d6000fd5b505050506040513d601f19601f8201168201806040525081019061136e9190613716565b90505b80821161138057806000611384565b8160015b94509450505050935093915050565b60008060006113a28686610f7f565b5090506000806113b3888888610e77565b6001600160a01b0316630902f1ac6040518163ffffffff1660e01b8152600401606060405180830381865afa1580156113f0573d6000803e3d6000fd5b505050506040513d601f19601f8201168201806040525081019061141491906137c7565b5091509150826001600160a01b0316886001600160a01b03161461143957808261143c565b81815b90999098509650505050505050565b6060814281101561146e5760405162461bcd60e51b81526004016104e39061357f565b7f00000000000000000000000000000000000000000000000000000000000000006001600160a01b0316868660008181106114ab576114ab6135e9565b6114c19260206060909202019081019150613562565b6001600160a01b0316146114e75760405162461bcd60e51b81526004016104e39061366e565b611539348787808060200260200160405190810160405280939291908181526020016000905b828210156109e55761152a6060830286013681900381019061369c565b8152602001906001019061150d565b915086826001845161154b9190613615565b8151811061155b5761155b6135e9565b602002602001015110156115815760405162461bcd60e51b81526004016104e39061362c565b7f00000000000000000000000000000000000000000000000000000000000000006001600160a01b031663d0e30db0836000815181106115c3576115c36135e9565b60200260200101516040518263ffffffff1660e01b81526004016000604051808303818588803b1580156115f657600080fd5b505af115801561160a573d6000803e3d6000fd5b50505050507f00000000000000000000000000000000000000000000000000000000000000006001600160a01b031663a9059cbb6116a888886000818110611654576116546135e9565b61166a9260206060909202019081019150613562565b8989600081811061167d5761167d6135e9565b90506060020160200160208101906116959190613562565b8a8a6000818110610ace57610ace6135e9565b846000815181106116bb576116bb6135e9565b60200260200101516040518363ffffffff1660e01b81526004016116f49291906001600160a01b03929092168252602082015260400190565b6020604051808303816000875af1158015611713573d6000803e3d6000fd5b505050506040513d601f19601f8201168201806040525081019061173791906135a8565b61174357611743612c98565b6117a0828787808060200260200160405190810160405280939291908181526020016000905b82821015611795576117866060830286013681900381019061369c565b81526020019060010190611769565b5050505050866123a5565b5095945050505050565b606081428110156117cd5760405162461bcd60e51b81526004016104e39061357f565b611823868660008181106117e3576117e36135e9565b6117f99260206060909202019081019150613562565b3361181089896000818110610a7a57610a7a6135e9565b8a6000815181106108c7576108c76135e9565b611875878787808060200260200160405190810160405280939291908181526020016000905b82821015611795576118666060830286013681900381019061369c565b81526020019060010190611849565b509495945050505050565b60606001825110156118a45760405162461bcd60e51b81526004016104e39061366e565b81516118b19060016137f5565b67ffffffffffffffff8111156118c9576118c961319d565b6040519080825280602002602001820160405280156118f2578160200160208202803683370190505b5090508281600081518110611909576119096135e9565b60200260200101818152505060005b8251811015611afb576000611974848381518110611938576119386135e9565b602002602001015160000151858481518110611956576119566135e9565b6020026020010151602001518685815181106108a3576108a36135e9565b60405163e5e31b1360e01b81526001600160a01b0380831660048301529192507f00000000000000000000000000000000000000000000000000000000000000009091169063e5e31b1390602401602060405180830381865afa1580156119df573d6000803e3d6000fd5b505050506040513d601f19601f82011682018060405250810190611a0391906135a8565b15611ae857806001600160a01b031663f140a35a848481518110611a2957611a296135e9565b6020026020010151868581518110611a4357611a436135e9565b6020026020010151600001516040518363ffffffff1660e01b8152600401611a7e9291909182526001600160a01b0316602082015260400190565b602060405180830381865afa158015611a9b573d6000803e3d6000fd5b505050506040513d601f19601f82011682018060405250810190611abf9190613716565b83611acb8460016137f5565b81518110611adb57611adb6135e9565b6020026020010181815250505b5080611af38161380d565b915050611918565b5092915050565b6000806000807f00000000000000000000000000000000000000000000000000000000000000006001600160a01b0316636801cc308a8a8a6040518463ffffffff1660e01b8152600401611b58939291906136d5565b602060405180830381865afa158015611b75573d6000803e3d6000fd5b505050506040513d601f19601f82011682018060405250810190611b9991906136f9565b9050600080806001600160a01b03841615611c2357836001600160a01b03166318160ddd6040518163ffffffff1660e01b8152600401602060405180830381865afa158015611bec573d6000803e3d6000fd5b505050506040513d601f19601f82011682018060405250810190611c109190613716565b9050611c1d8c8c8c611393565b90935091505b82158015611c2f575081155b15611c60578896508795506103e8611c4f611c4a888a61372f565b612946565b611c599190613615565b9450611cf3565b6000611c6d8a8585612a35565b9050888111611cb557899750955085611cae84611c8a848b61372f565b611c949190613764565b84611c9f858b61372f565b611ca99190613764565b612aff565b9550611cf1565b6000611cc28a8587612a35565b9850899750889050611ced85611cd8858461372f565b611ce29190613764565b85611c9f868c61372f565b9650505b505b50505050955095509592505050565b6000806000611d128f8f8f610e77565b9050600087611d21578c611d25565b6000195b60405163d505accf60e01b81529091506001600160a01b0383169063d505accf90611d60903390309086908f908e908e908e90600401613786565b600060405180830381600087803b158015611d7a57600080fd5b505af1158015611d8e573d6000803e3d6000fd5b5050505050611da38f8f8f8f8f8f8f8f6104bf565b8093508194505050509c509c9a5050505050505050505050565b60008060008342811015611de35760405162461bcd60e51b81526004016104e39061357f565b611e128b7f00000000000000000000000000000000000000000000000000000000000000008c8c348d8d6126c8565b90945092506000611e448c7f00000000000000000000000000000000000000000000000000000000000000008d610e77565b9050611e528c3383886122ad565b7f00000000000000000000000000000000000000000000000000000000000000006001600160a01b031663d0e30db0856040518263ffffffff1660e01b81526004016000604051808303818588803b158015611ead57600080fd5b505af1158015611ec1573d6000803e3d6000fd5b505060405163a9059cbb60e01b81526001600160a01b038581166004830152602482018990527f000000000000000000000000000000000000000000000000000000000000000016935063a9059cbb925060440190506020604051808303816000875af1158015611f36573d6000803e3d6000fd5b505050506040513d601f19601f82011682018060405250810190611f5a91906135a8565b611f6657611f66612c98565b6040516335313c2160e11b81526001600160a01b038881166004830152821690636a627842906024016020604051808303816000875af1158015611fae573d6000803e3d6000fd5b505050506040513d601f19601f82011682018060405250810190611fd29190613716565b925083341115611fef57611fef33611fea8634613615565b6125fa565b50509750975097945050505050565b60008082428110156120225760405162461bcd60e51b81526004016104e39061357f565b6120528a7f00000000000000000000000000000000000000000000000000000000000000008b8b8b8b308b6104bf565b90935091506120628a8685612b15565b604051632e1a7d4d60e01b8152600481018390527f00000000000000000000000000000000000000000000000000000000000000006001600160a01b031690632e1a7d4d90602401600060405180830381600087803b1580156120c457600080fd5b505af11580156120d8573d6000803e3d6000fd5b505050506120e685836125fa565b5097509795505050505050565b60405163e5e31b1360e01b81526001600160a01b0382811660048301526000917f00000000000000000000000000000000000000000000000000000000000000009091169063e5e31b1390602401602060405180830381865afa15801561215e573d6000803e3d6000fd5b505050506040513d601f19601f8201168201806040525081019061218291906135a8565b92915050565b606081428110156121ab5760405162461bcd60e51b81526004016104e39061357f565b6121fd888787808060200260200160405190810160405280939291908181526020016000905b828210156109e5576121ee6060830286013681900381019061369c565b815260200190600101906121d1565b915086826001845161220f9190613615565b8151811061221f5761221f6135e9565b602002602001015110156122455760405162461bcd60e51b81526004016104e39061362c565b61225b86866000818110610a4d57610a4d6135e9565b610c2c828787808060200260200160405190810160405280939291908181526020016000905b828210156117955761229e6060830286013681900381019061369c565b81526020019060010190612281565b6000846001600160a01b03163b116122c457600080fd5b604080516001600160a01b0385811660248301528481166044830152606480830185905283518084039091018152608490920183526020820180516001600160e01b03166323b872dd60e01b17905291516000928392908816916123289190613852565b6000604051808303816000865af19150503d8060008114612365576040519150601f19603f3d011682016040523d82523d6000602084013e61236a565b606091505b509150915081801561239457508051158061239457508080602001905181019061239491906135a8565b61239d57600080fd5b505050505050565b60005b82518110156125f45760006123f78483815181106123c8576123c86135e9565b6020026020010151600001518584815181106123e6576123e66135e9565b602002602001015160200151610f7f565b5090506000856124088460016137f5565b81518110612418576124186135e9565b60200260200101519050600080836001600160a01b0316878681518110612441576124416135e9565b6020026020010151600001516001600160a01b03161461246357826000612467565b6000835b9150915060006001885161247b9190613615565b861061248757866124fa565b6124fa886124968860016137f5565b815181106124a6576124a66135e9565b602002602001015160000151898860016124c091906137f5565b815181106124d0576124d06135e9565b6020026020010151602001518a8960016124ea91906137f5565b815181106108a3576108a36135e9565b905061254d888781518110612511576125116135e9565b60200260200101516000015189888151811061252f5761252f6135e9565b6020026020010151602001518a89815181106108a3576108a36135e9565b6001600160a01b031663022c0d9f84848460006040519080825280601f01601f19166020018201604052801561258a576020820181803683370190505b506040518563ffffffff1660e01b81526004016125aa949392919061386e565b600060405180830381600087803b1580156125c457600080fd5b505af11580156125d8573d6000803e3d6000fd5b50505050505050505080806125ec9061380d565b9150506123a8565b50505050565b604080516000808252602082019092526001600160a01b0384169083906040516126249190613852565b60006040518083038185875af1925050503d8060008114612661576040519150601f19603f3d011682016040523d82523d6000602084013e612666565b606091505b50509050806126c35760405162461bcd60e51b815260206004820152602360248201527f5472616e7366657248656c7065723a204554485f5452414e534645525f46414960448201526213115160ea1b60648201526084016104e3565b505050565b600080838610156126d857600080fd5b828510156126e557600080fd5b6040516306801cc360e41b81526000906001600160a01b037f00000000000000000000000000000000000000000000000000000000000000001690636801cc3090612738908d908d908d906004016136d5565b602060405180830381865afa158015612755573d6000803e3d6000fd5b505050506040513d601f19601f8201168201806040525081019061277991906136f9565b90506001600160a01b03811661281f576040516320b7f73960e21b81526001600160a01b037f000000000000000000000000000000000000000000000000000000000000000016906382dfdce4906127d9908d908d908d906004016136d5565b6020604051808303816000875af11580156127f8573d6000803e3d6000fd5b505050506040513d601f19601f8201168201806040525081019061281c91906136f9565b90505b60008061282d8c8c8c611393565b9150915081600014801561283f575080155b1561284f57889450879350612937565b600061285c8a8484612a35565b90508881116128c057868110156128b55760405162461bcd60e51b815260206004820152601d60248201527f526f757465723a20494e53554646494349454e545f425f414d4f554e5400000060448201526064016104e3565b899550935083612935565b60006128cd8a8486612a35565b90508a8111156128df576128df612c98565b8881101561292f5760405162461bcd60e51b815260206004820152601d60248201527f526f757465723a20494e53554646494349454e545f415f414d4f554e5400000060448201526064016104e3565b95508894505b505b50505097509795505050505050565b60008160000361295857506000919050565b6000600161296584612c04565b901c6001901b9050600181848161297e5761297e61374e565b048201901c905060018184816129965761299661374e565b048201901c905060018184816129ae576129ae61374e565b048201901c905060018184816129c6576129c661374e565b048201901c905060018184816129de576129de61374e565b048201901c905060018184816129f6576129f661374e565b048201901c90506001818481612a0e57612a0e61374e565b048201901c9050612a2e81828581612a2857612a2861374e565b04612aff565b9392505050565b6000808411612a865760405162461bcd60e51b815260206004820152601b60248201527f526f757465723a20494e53554646494349454e545f414d4f554e54000000000060448201526064016104e3565b600083118015612a965750600082115b612ae25760405162461bcd60e51b815260206004820152601e60248201527f526f757465723a20494e53554646494349454e545f4c4951554944495459000060448201526064016104e3565b82612aed838661372f565b612af79190613764565b949350505050565b6000818310612b0e5781612a2e565b5090919050565b6000836001600160a01b03163b11612b2c57600080fd5b604080516001600160a01b038481166024830152604480830185905283518084039091018152606490920183526020820180516001600160e01b031663a9059cbb60e01b1790529151600092839290871691612b889190613852565b6000604051808303816000865af19150503d8060008114612bc5576040519150601f19603f3d011682016040523d82523d6000602084013e612bca565b606091505b5091509150818015612bf4575080511580612bf4575080806020019051810190612bf491906135a8565b612bfd57600080fd5b5050505050565b600080608083901c15612c1957608092831c92015b604083901c15612c2b57604092831c92015b602083901c15612c3d57602092831c92015b601083901c15612c4f57601092831c92015b600883901c15612c6157600892831c92015b600483901c15612c7357600492831c92015b600283901c15612c8557600292831c92015b600183901c156121825760010192915050565b634e487b7160e01b600052600160045260246000fd5b6001600160a01b0381168114612cc357600080fd5b50565b8035612cd181612cae565b919050565b8015158114612cc357600080fd5b600080600080600080600080610100898b031215612d0157600080fd5b8835612d0c81612cae565b97506020890135612d1c81612cae565b96506040890135612d2c81612cd6565b9550606089013594506080890135935060a0890135925060c0890135612d5181612cae565b8092505060e089013590509295985092959890939650565b600080600080600080600060e0888a031215612d8457600080fd5b87359650602088013595506040880135612d9d81612cae565b94506060880135612dad81612cae565b93506080880135612dbd81612cd6565b925060a0880135612dcd81612cae565b8092505060c0880135905092959891949750929550565b6020808252825182820181905260009190848201906040850190845b81811015612e1c57835183529284019291840191600101612e00565b50909695505050505050565b60008083601f840112612e3a57600080fd5b50813567ffffffffffffffff811115612e5257600080fd5b60208301915083602060608302850101111561105857600080fd5b60008060008060008060a08789031215612e8657600080fd5b8635955060208701359450604087013567ffffffffffffffff811115612eab57600080fd5b612eb789828a01612e28565b9095509350506060870135612ecb81612cae565b80925050608087013590509295509295509295565b60008060008060808587031215612ef657600080fd5b8435612f0181612cae565b93506020850135612f1181612cae565b92506040850135612f2181612cd6565b9396929550929360600135925050565b803560ff81168114612cd157600080fd5b60008060008060008060008060008060006101608c8e031215612f6457600080fd5b8b35612f6f81612cae565b9a5060208c0135612f7f81612cd6565b995060408c0135985060608c0135975060808c0135965060a08c0135612fa481612cae565b955060c08c0135945060e08c0135612fbb81612cd6565b9350612fca6101008d01612f31565b92506101208c013591506101408c013590509295989b509295989b9093969950565b60008060006060848603121561300157600080fd5b833561300c81612cae565b9250602084013561301c81612cae565b9150604084013561302c81612cd6565b809150509250925092565b6000806040838503121561304a57600080fd5b823561305581612cae565b9150602083013561306581612cae565b809150509250929050565b60008060008060008060008060006101208a8c03121561308f57600080fd5b893561309a81612cae565b985060208a01356130aa81612cae565b975060408a01356130ba81612cd6565b965060608a0135955060808a0135945060a08a0135935060c08a0135925060e08a01356130e681612cae565b809250506101008a013590509295985092959850929598565b60008060006060848603121561311457600080fd5b83359250602084013561312681612cae565b9150604084013561302c81612cae565b60008060008060006080868803121561314e57600080fd5b85359450602086013567ffffffffffffffff81111561316c57600080fd5b61317888828901612e28565b909550935050604086013561318c81612cae565b949793965091946060013592915050565b634e487b7160e01b600052604160045260246000fd5b604051601f8201601f1916810167ffffffffffffffff811182821017156131dc576131dc61319d565b604052919050565b600067ffffffffffffffff8211156131fe576131fe61319d565b5060051b60200190565b60008060008060006080868803121561322057600080fd5b853567ffffffffffffffff8082111561323857600080fd5b818801915088601f83011261324c57600080fd5b8135602061326161325c836131e4565b6131b3565b82815260059290921b8401810191818101908c84111561328057600080fd5b948201945b8386101561329e57853582529482019490820190613285565b995050890135925050808211156132b457600080fd5b506132c188828901612e28565b909550935061318c905060408701612cc6565b6000606082840312156132e657600080fd5b6040516060810181811067ffffffffffffffff821117156133095761330961319d565b604052905080823561331a81612cae565b8152602083013561332a81612cae565b6020820152604083013561333d81612cd6565b6040919091015292915050565b6000806040838503121561335d57600080fd5b8235915060208084013567ffffffffffffffff81111561337c57600080fd5b8401601f8101861361338d57600080fd5b803561339b61325c826131e4565b818152606091820283018401918482019190898411156133ba57600080fd5b938501935b838510156133e0576133d18a866132d4565b835293840193918501916133bf565b5080955050505050509250929050565b600080600080600060a0868803121561340857600080fd5b853561341381612cae565b9450602086013561342381612cae565b9350604086013561343381612cd6565b94979396509394606081013594506080013592915050565b6000806000806000806000806000806000806101808d8f03121561346e57600080fd5b8c3561347981612cae565b9b5060208d013561348981612cae565b9a5060408d013561349981612cd6565b995060608d0135985060808d0135975060a08d0135965060c08d01356134be81612cae565b955060e08d013594506101008d01356134d681612cd6565b93506134e56101208e01612f31565b92506101408d013591506101608d013590509295989b509295989b509295989b565b600080600080600080600060e0888a03121561352257600080fd5b873561352d81612cae565b9650602088013561353d81612cd6565b955060408801359450606088013593506080880135925060a0880135612dcd81612cae565b60006020828403121561357457600080fd5b8135612a2e81612cae565b6020808252600f908201526e149bdd5d195c8e8811561412549151608a1b604082015260600190565b6000602082840312156135ba57600080fd5b8151612a2e81612cd6565b600080604083850312156135d857600080fd5b505080516020909101519092909150565b634e487b7160e01b600052603260045260246000fd5b634e487b7160e01b600052601160045260246000fd5b600082821015613627576136276135ff565b500390565b60208082526022908201527f526f757465723a20494e53554646494349454e545f4f55545055545f414d4f55604082015261139560f21b606082015260800190565b6020808252601490820152730a4deeae8cae47440929cac82989288bea082a8960631b604082015260600190565b6000606082840312156136ae57600080fd5b612a2e83836132d4565b6000602082840312156136ca57600080fd5b8135612a2e81612cd6565b6001600160a01b039384168152919092166020820152901515604082015260600190565b60006020828403121561370b57600080fd5b8151612a2e81612cae565b60006020828403121561372857600080fd5b5051919050565b6000816000190483118215151615613749576137496135ff565b500290565b634e487b7160e01b600052601260045260246000fd5b60008261378157634e487b7160e01b600052601260045260246000fd5b500490565b6001600160a01b0397881681529590961660208601526040850193909352606084019190915260ff16608083015260a082015260c081019190915260e00190565b6000806000606084860312156137dc57600080fd5b8351925060208401519150604084015190509250925092565b60008219821115613808576138086135ff565b500190565b60006001820161381f5761381f6135ff565b5060010190565b60005b83811015613841578181015183820152602001613829565b838111156125f45750506000910152565b60008251613864818460208701613826565b9190910192915050565b84815283602082015260018060a01b038316604082015260806060820152600082518060808401526138a78160a0850160208701613826565b601f01601f19169190910160a0019594505050505056fea2646970667358221220f4972b3841f5721a1010ec70fa10b1529427c5fd2e8bb2e7053a697cb000efb864736f6c634300080d0033",
  "devdoc": {
    "kind": "dev",
    "methods": {},
    "version": 1
  },
  "userdoc": {
    "kind": "user",
    "methods": {},
    "version": 1
  },
  "storageLayout": {
    "storage": [],
    "types": null
  }
}