{
  "address": "0x2862Bf1ADC96d485B6E85C062b170903DE9A2Bd5",
  "abi": [
    {
      "inputs": [
        {
          "internalType": "address",
          "name": "__ve",
          "type": "address"
        },
        {
          "internalType": "address",
          "name": "_factory",
          "type": "address"
        },
        {
          "internalType": "address",
          "name": "_gauges",
          "type": "address"
        },
        {
          "internalType": "address",
          "name": "_bribes",
          "type": "address"
        }
      ],
      "stateMutability": "nonpayable",
      "type": "constructor"
    },
    {
      "anonymous": false,
      "inputs": [
        {
          "indexed": false,
          "internalType": "uint256",
          "name": "tokenId",
          "type": "uint256"
        },
        {
          "indexed": false,
          "internalType": "uint256",
          "name": "weight",
          "type": "uint256"
        }
      ],
      "name": "Abstained",
      "type": "event"
    },
    {
      "anonymous": false,
      "inputs": [
        {
          "indexed": true,
          "internalType": "address",
          "name": "owner",
          "type": "address"
        },
        {
          "indexed": true,
          "internalType": "address",
          "name": "gauge",
          "type": "address"
        },
        {
          "indexed": false,
          "internalType": "uint256",
          "name": "tokenId",
          "type": "uint256"
        }
      ],
      "name": "Attach",
      "type": "event"
    },
    {
      "anonymous": false,
      "inputs": [
        {
          "indexed": true,
          "internalType": "address",
          "name": "lp",
          "type": "address"
        },
        {
          "indexed": true,
          "internalType": "address",
          "name": "gauge",
          "type": "address"
        },
        {
          "indexed": false,
          "internalType": "uint256",
          "name": "tokenId",
          "type": "uint256"
        },
        {
          "indexed": false,
          "internalType": "uint256",
          "name": "amount",
          "type": "uint256"
        }
      ],
      "name": "Deposit",
      "type": "event"
    },
    {
      "anonymous": false,
      "inputs": [
        {
          "indexed": true,
          "internalType": "address",
          "name": "owner",
          "type": "address"
        },
        {
          "indexed": true,
          "internalType": "address",
          "name": "gauge",
          "type": "address"
        },
        {
          "indexed": false,
          "internalType": "uint256",
          "name": "tokenId",
          "type": "uint256"
        }
      ],
      "name": "Detach",
      "type": "event"
    },
    {
      "anonymous": false,
      "inputs": [
        {
          "indexed": true,
          "internalType": "address",
          "name": "sender",
          "type": "address"
        },
        {
          "indexed": true,
          "internalType": "address",
          "name": "gauge",
          "type": "address"
        },
        {
          "indexed": false,
          "internalType": "uint256",
          "name": "amount",
          "type": "uint256"
        }
      ],
      "name": "DistributeReward",
      "type": "event"
    },
    {
      "anonymous": false,
      "inputs": [
        {
          "indexed": true,
          "internalType": "address",
          "name": "gauge",
          "type": "address"
        },
        {
          "indexed": false,
          "internalType": "address",
          "name": "creator",
          "type": "address"
        },
        {
          "indexed": false,
          "internalType": "address",
          "name": "internal_bribe",
          "type": "address"
        },
        {
          "indexed": true,
          "internalType": "address",
          "name": "external_bribe",
          "type": "address"
        },
        {
          "indexed": true,
          "internalType": "address",
          "name": "pool",
          "type": "address"
        }
      ],
      "name": "GaugeCreated",
      "type": "event"
    },
    {
      "anonymous": false,
      "inputs": [
        {
          "indexed": true,
          "internalType": "address",
          "name": "gauge",
          "type": "address"
        }
      ],
      "name": "GaugeKilled",
      "type": "event"
    },
    {
      "anonymous": false,
      "inputs": [
        {
          "indexed": true,
          "internalType": "address",
          "name": "gauge",
          "type": "address"
        }
      ],
      "name": "GaugeRevived",
      "type": "event"
    },
    {
      "anonymous": false,
      "inputs": [
        {
          "indexed": true,
          "internalType": "address",
          "name": "sender",
          "type": "address"
        },
        {
          "indexed": true,
          "internalType": "address",
          "name": "reward",
          "type": "address"
        },
        {
          "indexed": false,
          "internalType": "uint256",
          "name": "amount",
          "type": "uint256"
        }
      ],
      "name": "NotifyReward",
      "type": "event"
    },
    {
      "anonymous": false,
      "inputs": [
        {
          "indexed": true,
          "internalType": "address",
          "name": "voter",
          "type": "address"
        },
        {
          "indexed": false,
          "internalType": "uint256",
          "name": "tokenId",
          "type": "uint256"
        },
        {
          "indexed": false,
          "internalType": "uint256",
          "name": "weight",
          "type": "uint256"
        }
      ],
      "name": "Voted",
      "type": "event"
    },
    {
      "anonymous": false,
      "inputs": [
        {
          "indexed": true,
          "internalType": "address",
          "name": "whitelister",
          "type": "address"
        },
        {
          "indexed": true,
          "internalType": "address",
          "name": "token",
          "type": "address"
        }
      ],
      "name": "Whitelisted",
      "type": "event"
    },
    {
      "anonymous": false,
      "inputs": [
        {
          "indexed": true,
          "internalType": "address",
          "name": "lp",
          "type": "address"
        },
        {
          "indexed": true,
          "internalType": "address",
          "name": "gauge",
          "type": "address"
        },
        {
          "indexed": false,
          "internalType": "uint256",
          "name": "tokenId",
          "type": "uint256"
        },
        {
          "indexed": false,
          "internalType": "uint256",
          "name": "amount",
          "type": "uint256"
        }
      ],
      "name": "Withdraw",
      "type": "event"
    },
    {
      "inputs": [],
      "name": "_ve",
      "outputs": [
        {
          "internalType": "address",
          "name": "",
          "type": "address"
        }
      ],
      "stateMutability": "view",
      "type": "function"
    },
    {
      "inputs": [
        {
          "internalType": "uint256",
          "name": "tokenId",
          "type": "uint256"
        },
        {
          "internalType": "address",
          "name": "account",
          "type": "address"
        }
      ],
      "name": "attachTokenToGauge",
      "outputs": [],
      "stateMutability": "nonpayable",
      "type": "function"
    },
    {
      "inputs": [],
      "name": "bribefactory",
      "outputs": [
        {
          "internalType": "address",
          "name": "",
          "type": "address"
        }
      ],
      "stateMutability": "view",
      "type": "function"
    },
    {
      "inputs": [
        {
          "internalType": "address[]",
          "name": "_bribes",
          "type": "address[]"
        },
        {
          "internalType": "address[][]",
          "name": "_tokens",
          "type": "address[][]"
        },
        {
          "internalType": "uint256",
          "name": "_tokenId",
          "type": "uint256"
        }
      ],
      "name": "claimBribes",
      "outputs": [],
      "stateMutability": "nonpayable",
      "type": "function"
    },
    {
      "inputs": [
        {
          "internalType": "address[]",
          "name": "_fees",
          "type": "address[]"
        },
        {
          "internalType": "address[][]",
          "name": "_tokens",
          "type": "address[][]"
        },
        {
          "internalType": "uint256",
          "name": "_tokenId",
          "type": "uint256"
        }
      ],
      "name": "claimFees",
      "outputs": [],
      "stateMutability": "nonpayable",
      "type": "function"
    },
    {
      "inputs": [
        {
          "internalType": "address[]",
          "name": "_gauges",
          "type": "address[]"
        },
        {
          "internalType": "address[][]",
          "name": "_tokens",
          "type": "address[][]"
        }
      ],
      "name": "claimRewards",
      "outputs": [],
      "stateMutability": "nonpayable",
      "type": "function"
    },
    {
      "inputs": [
        {
          "internalType": "address",
          "name": "",
          "type": "address"
        }
      ],
      "name": "claimable",
      "outputs": [
        {
          "internalType": "uint256",
          "name": "",
          "type": "uint256"
        }
      ],
      "stateMutability": "view",
      "type": "function"
    },
    {
      "inputs": [
        {
          "internalType": "address",
          "name": "_pool",
          "type": "address"
        }
      ],
      "name": "createGauge",
      "outputs": [
        {
          "internalType": "address",
          "name": "",
          "type": "address"
        }
      ],
      "stateMutability": "nonpayable",
      "type": "function"
    },
    {
      "inputs": [
        {
          "internalType": "uint256",
          "name": "tokenId",
          "type": "uint256"
        },
        {
          "internalType": "address",
          "name": "account",
          "type": "address"
        }
      ],
      "name": "detachTokenFromGauge",
      "outputs": [],
      "stateMutability": "nonpayable",
      "type": "function"
    },
    {
      "inputs": [
        {
          "internalType": "address[]",
          "name": "_gauges",
          "type": "address[]"
        }
      ],
      "name": "distribute",
      "outputs": [],
      "stateMutability": "nonpayable",
      "type": "function"
    },
    {
      "inputs": [
        {
          "internalType": "address",
          "name": "_gauge",
          "type": "address"
        }
      ],
      "name": "distribute",
      "outputs": [],
      "stateMutability": "nonpayable",
      "type": "function"
    },
    {
      "inputs": [
        {
          "internalType": "uint256",
          "name": "start",
          "type": "uint256"
        },
        {
          "internalType": "uint256",
          "name": "finish",
          "type": "uint256"
        }
      ],
      "name": "distribute",
      "outputs": [],
      "stateMutability": "nonpayable",
      "type": "function"
    },
    {
      "inputs": [],
      "name": "distribute",
      "outputs": [],
      "stateMutability": "nonpayable",
      "type": "function"
    },
    {
      "inputs": [
        {
          "internalType": "address[]",
          "name": "_gauges",
          "type": "address[]"
        }
      ],
      "name": "distributeFees",
      "outputs": [],
      "stateMutability": "nonpayable",
      "type": "function"
    },
    {
      "inputs": [],
      "name": "distro",
      "outputs": [],
      "stateMutability": "nonpayable",
      "type": "function"
    },
    {
      "inputs": [],
      "name": "emergencyCouncil",
      "outputs": [
        {
          "internalType": "address",
          "name": "",
          "type": "address"
        }
      ],
      "stateMutability": "view",
      "type": "function"
    },
    {
      "inputs": [
        {
          "internalType": "uint256",
          "name": "tokenId",
          "type": "uint256"
        },
        {
          "internalType": "address",
          "name": "account",
          "type": "address"
        },
        {
          "internalType": "uint256",
          "name": "amount",
          "type": "uint256"
        }
      ],
      "name": "emitDeposit",
      "outputs": [],
      "stateMutability": "nonpayable",
      "type": "function"
    },
    {
      "inputs": [
        {
          "internalType": "uint256",
          "name": "tokenId",
          "type": "uint256"
        },
        {
          "internalType": "address",
          "name": "account",
          "type": "address"
        },
        {
          "internalType": "uint256",
          "name": "amount",
          "type": "uint256"
        }
      ],
      "name": "emitWithdraw",
      "outputs": [],
      "stateMutability": "nonpayable",
      "type": "function"
    },
    {
      "inputs": [
        {
          "internalType": "address",
          "name": "",
          "type": "address"
        }
      ],
      "name": "external_bribes",
      "outputs": [
        {
          "internalType": "address",
          "name": "",
          "type": "address"
        }
      ],
      "stateMutability": "view",
      "type": "function"
    },
    {
      "inputs": [],
      "name": "factory",
      "outputs": [
        {
          "internalType": "address",
          "name": "",
          "type": "address"
        }
      ],
      "stateMutability": "view",
      "type": "function"
    },
    {
      "inputs": [],
      "name": "gaugefactory",
      "outputs": [
        {
          "internalType": "address",
          "name": "",
          "type": "address"
        }
      ],
      "stateMutability": "view",
      "type": "function"
    },
    {
      "inputs": [
        {
          "internalType": "address",
          "name": "",
          "type": "address"
        }
      ],
      "name": "gauges",
      "outputs": [
        {
          "internalType": "address",
          "name": "",
          "type": "address"
        }
      ],
      "stateMutability": "view",
      "type": "function"
    },
    {
      "inputs": [],
      "name": "governor",
      "outputs": [
        {
          "internalType": "address",
          "name": "",
          "type": "address"
        }
      ],
      "stateMutability": "view",
      "type": "function"
    },
    {
      "inputs": [
        {
          "internalType": "address[]",
          "name": "_tokens",
          "type": "address[]"
        },
        {
          "internalType": "address",
          "name": "_minter",
          "type": "address"
        }
      ],
      "name": "initialize",
      "outputs": [],
      "stateMutability": "nonpayable",
      "type": "function"
    },
    {
      "inputs": [
        {
          "internalType": "address",
          "name": "",
          "type": "address"
        }
      ],
      "name": "internal_bribes",
      "outputs": [
        {
          "internalType": "address",
          "name": "",
          "type": "address"
        }
      ],
      "stateMutability": "view",
      "type": "function"
    },
    {
      "inputs": [
        {
          "internalType": "address",
          "name": "",
          "type": "address"
        }
      ],
      "name": "isAlive",
      "outputs": [
        {
          "internalType": "bool",
          "name": "",
          "type": "bool"
        }
      ],
      "stateMutability": "view",
      "type": "function"
    },
    {
      "inputs": [
        {
          "internalType": "address",
          "name": "",
          "type": "address"
        }
      ],
      "name": "isGauge",
      "outputs": [
        {
          "internalType": "bool",
          "name": "",
          "type": "bool"
        }
      ],
      "stateMutability": "view",
      "type": "function"
    },
    {
      "inputs": [
        {
          "internalType": "address",
          "name": "",
          "type": "address"
        }
      ],
      "name": "isWhitelisted",
      "outputs": [
        {
          "internalType": "bool",
          "name": "",
          "type": "bool"
        }
      ],
      "stateMutability": "view",
      "type": "function"
    },
    {
      "inputs": [
        {
          "internalType": "address",
          "name": "_gauge",
          "type": "address"
        }
      ],
      "name": "killGauge",
      "outputs": [],
      "stateMutability": "nonpayable",
      "type": "function"
    },
    {
      "inputs": [
        {
          "internalType": "uint256",
          "name": "",
          "type": "uint256"
        }
      ],
      "name": "lastVoted",
      "outputs": [
        {
          "internalType": "uint256",
          "name": "",
          "type": "uint256"
        }
      ],
      "stateMutability": "view",
      "type": "function"
    },
    {
      "inputs": [],
      "name": "length",
      "outputs": [
        {
          "internalType": "uint256",
          "name": "",
          "type": "uint256"
        }
      ],
      "stateMutability": "view",
      "type": "function"
    },
    {
      "inputs": [],
      "name": "minter",
      "outputs": [
        {
          "internalType": "address",
          "name": "",
          "type": "address"
        }
      ],
      "stateMutability": "view",
      "type": "function"
    },
    {
      "inputs": [
        {
          "internalType": "uint256",
          "name": "amount",
          "type": "uint256"
        }
      ],
      "name": "notifyRewardAmount",
      "outputs": [],
      "stateMutability": "nonpayable",
      "type": "function"
    },
    {
      "inputs": [
        {
          "internalType": "uint256",
          "name": "_tokenId",
          "type": "uint256"
        }
      ],
      "name": "poke",
      "outputs": [],
      "stateMutability": "nonpayable",
      "type": "function"
    },
    {
      "inputs": [
        {
          "internalType": "address",
          "name": "",
          "type": "address"
        }
      ],
      "name": "poolForGauge",
      "outputs": [
        {
          "internalType": "address",
          "name": "",
          "type": "address"
        }
      ],
      "stateMutability": "view",
      "type": "function"
    },
    {
      "inputs": [
        {
          "internalType": "uint256",
          "name": "",
          "type": "uint256"
        },
        {
          "internalType": "uint256",
          "name": "",
          "type": "uint256"
        }
      ],
      "name": "poolVote",
      "outputs": [
        {
          "internalType": "address",
          "name": "",
          "type": "address"
        }
      ],
      "stateMutability": "view",
      "type": "function"
    },
    {
      "inputs": [
        {
          "internalType": "uint256",
          "name": "",
          "type": "uint256"
        }
      ],
      "name": "pools",
      "outputs": [
        {
          "internalType": "address",
          "name": "",
          "type": "address"
        }
      ],
      "stateMutability": "view",
      "type": "function"
    },
    {
      "inputs": [
        {
          "internalType": "uint256",
          "name": "_tokenId",
          "type": "uint256"
        }
      ],
      "name": "reset",
      "outputs": [],
      "stateMutability": "nonpayable",
      "type": "function"
    },
    {
      "inputs": [
        {
          "internalType": "address",
          "name": "_gauge",
          "type": "address"
        }
      ],
      "name": "reviveGauge",
      "outputs": [],
      "stateMutability": "nonpayable",
      "type": "function"
    },
    {
      "inputs": [
        {
          "internalType": "address",
          "name": "_council",
          "type": "address"
        }
      ],
      "name": "setEmergencyCouncil",
      "outputs": [],
      "stateMutability": "nonpayable",
      "type": "function"
    },
    {
      "inputs": [
        {
          "internalType": "address",
          "name": "_governor",
          "type": "address"
        }
      ],
      "name": "setGovernor",
      "outputs": [],
      "stateMutability": "nonpayable",
      "type": "function"
    },
    {
      "inputs": [],
      "name": "totalWeight",
      "outputs": [
        {
          "internalType": "uint256",
          "name": "",
          "type": "uint256"
        }
      ],
      "stateMutability": "view",
      "type": "function"
    },
    {
      "inputs": [],
      "name": "updateAll",
      "outputs": [],
      "stateMutability": "nonpayable",
      "type": "function"
    },
    {
      "inputs": [
        {
          "internalType": "address[]",
          "name": "_gauges",
          "type": "address[]"
        }
      ],
      "name": "updateFor",
      "outputs": [],
      "stateMutability": "nonpayable",
      "type": "function"
    },
    {
      "inputs": [
        {
          "internalType": "uint256",
          "name": "start",
          "type": "uint256"
        },
        {
          "internalType": "uint256",
          "name": "end",
          "type": "uint256"
        }
      ],
      "name": "updateForRange",
      "outputs": [],
      "stateMutability": "nonpayable",
      "type": "function"
    },
    {
      "inputs": [
        {
          "internalType": "address",
          "name": "_gauge",
          "type": "address"
        }
      ],
      "name": "updateGauge",
      "outputs": [],
      "stateMutability": "nonpayable",
      "type": "function"
    },
    {
      "inputs": [
        {
          "internalType": "uint256",
          "name": "",
          "type": "uint256"
        }
      ],
      "name": "usedWeights",
      "outputs": [
        {
          "internalType": "uint256",
          "name": "",
          "type": "uint256"
        }
      ],
      "stateMutability": "view",
      "type": "function"
    },
    {
      "inputs": [
        {
          "internalType": "uint256",
          "name": "tokenId",
          "type": "uint256"
        },
        {
          "internalType": "address[]",
          "name": "_poolVote",
          "type": "address[]"
        },
        {
          "internalType": "uint256[]",
          "name": "_weights",
          "type": "uint256[]"
        }
      ],
      "name": "vote",
      "outputs": [],
      "stateMutability": "nonpayable",
      "type": "function"
    },
    {
      "inputs": [
        {
          "internalType": "uint256",
          "name": "",
          "type": "uint256"
        },
        {
          "internalType": "address",
          "name": "",
          "type": "address"
        }
      ],
      "name": "votes",
      "outputs": [
        {
          "internalType": "uint256",
          "name": "",
          "type": "uint256"
        }
      ],
      "stateMutability": "view",
      "type": "function"
    },
    {
      "inputs": [
        {
          "internalType": "address",
          "name": "",
          "type": "address"
        }
      ],
      "name": "weights",
      "outputs": [
        {
          "internalType": "uint256",
          "name": "",
          "type": "uint256"
        }
      ],
      "stateMutability": "view",
      "type": "function"
    },
    {
      "inputs": [
        {
          "internalType": "address",
          "name": "_token",
          "type": "address"
        }
      ],
      "name": "whitelist",
      "outputs": [],
      "stateMutability": "nonpayable",
      "type": "function"
    }
  ],
  "transactionHash": "0x6ce83e7ad5d102309efb3a54d6b379a5bcce7218756a507aad0c0fe1228f6ac8",
  "args": [
    "0xfa01adbAA40f0EEeCEA76b7B18AC8bE064536787",
    "0x9f7fdaB9317f1442808B90B819Ed0a4eF4f74994",
    "0x2B0BB6962e89bD5FE9510Ff09Af8D709be21AAD7",
    "0xf4F344Cfa1A82eDD37C96E879f01D9CA03f385b9"
  ],
  "numDeployments": 1,
  "solcInputHash": "816572db58a4a8203fcf6f77728173df",
  "bytecode": "0x61012060405260016011553480156200001757600080fd5b506040516200370a3803806200370a8339810160408190526200003a916200011c565b6001600160a01b03808516608081905290841660a05260408051637e062a3560e11b8152905163fc0c546a916004808201926020929091908290030181865afa1580156200008c573d6000803e3d6000fd5b505050506040513d601f19601f82011682018060405250810190620000b2919062000179565b6001600160a01b0390811660c05291821660e0521661010052505060008054336001600160a01b03199182168117909255600180548216831790556002805490911690911790556200019e565b80516001600160a01b03811681146200011757600080fd5b919050565b600080600080608085870312156200013357600080fd5b6200013e85620000ff565b93506200014e60208601620000ff565b92506200015e60408601620000ff565b91506200016e60608601620000ff565b905092959194509250565b6000602082840312156200018c57600080fd5b6200019782620000ff565b9392505050565b60805160a05160c05160e0516101005161348d6200027d600039600081816103e701528181611d150152611d930152600081816104d30152611e26015260008181610c4101528181610cba01528181610f8a0152818161104601528181611b7a01528181611bb301528181611be50152611f070152600081816106fc01526119d101526000818161058c0152818161092b015281816109d701528181610a5b01528181610d470152818161111601528181611297015281816113c70152818161158601528181611e58015281816126920152612a55015261348d6000f3fe608060405234801561001057600080fd5b50600436106102f15760003560e01c806379e938241161019d578063ac4afa38116100e9578063d23254b4116100a2578063e586875f1161007c578063e586875f1461076f578063ea94ee4414610782578063eae40f2614610795578063f3594be0146107be57600080fd5b8063d23254b414610731578063d560b0d71461075c578063e4fc6b6d1461048557600080fd5b8063ac4afa381461067f578063ae21c4cb14610692578063b9a09fd5146106bb578063c42cf535146106e4578063c45a0155146106f7578063c527ee1f1461071e57600080fd5b80639b6a9d7211610156578063a61c713a11610130578063a61c713a14610616578063a7cac84614610629578063a86a366d14610649578063aa79979b1461065c57600080fd5b80639b6a9d72146105dd5780639f06247b146105f0578063a5f4301e1461060357600080fd5b806379e93824146105545780637ac09bf7146105745780638dd598fb1461058757806396c82e57146105ae578063992a7933146105b75780639b19251a146105ca57600080fd5b8063411b1f771161025c578063666256aa116102155780636ecbe38a116101ef5780636ecbe38a146105085780637625391a1461051b5780637715ee751461052e5780637778960e1461054157600080fd5b8063666256aa146104bb57806368c3acb3146104ce578063698473e3146104f557600080fd5b8063411b1f771461045f578063462d0b2e1461047257806347b3c6ba1461048557806353d786931461048d5780636138889b1461049557806363453ae1146104a857600080fd5b8063310bd74b116102ae578063310bd74b146103bc57806332145f90146103cf57806338752a9d146103e25780633af32abf146104095780633c6b16ab1461042c578063402914f51461043f57600080fd5b806306d6a1b2146102f6578063075461721461033c5780630c340a241461034f5780631703e5f9146103625780631f7b6d321461039557806320b1cb6f146103a7575b600080fd5b61031f610304366004612d97565b6006602052600090815260409020546001600160a01b031681565b6040516001600160a01b0390911681526020015b60405180910390f35b60005461031f906001600160a01b031681565b60015461031f906001600160a01b031681565b610385610370366004612d97565b60106020526000908152604090205460ff1681565b6040519015158152602001610333565b6004545b604051908152602001610333565b6103ba6103b5366004612f1a565b6107de565b005b6103ba6103ca366004612f7e565b610894565b6103ba6103dd366004612f7e565b610a3f565b61031f7f000000000000000000000000000000000000000000000000000000000000000081565b610385610417366004612d97565b600f6020526000908152604090205460ff1681565b6103ba61043a366004612f7e565b610c3c565b61039961044d366004612d97565b60146020526000908152604090205481565b6103ba61046d366004612f97565b610d0f565b6103ba610480366004612fc7565b610de9565b6103ba610e64565b6103ba610e75565b6103ba6104a336600461300e565b610e84565b6103ba6104b6366004612d97565b610ec8565b6103ba6104c936600461304b565b6110fa565b61031f7f000000000000000000000000000000000000000000000000000000000000000081565b6103ba610503366004612f97565b611243565b6103ba610516366004612d97565b611339565b6103ba6105293660046130b8565b611345565b6103ba61053c36600461304b565b6113ab565b60025461031f906001600160a01b031681565b610399610562366004612f7e565b600c6020526000908152604090205481565b6103ba610582366004613126565b6114f4565b61031f7f000000000000000000000000000000000000000000000000000000000000000081565b61039960035481565b6103ba6105c5366004612d97565b61168c565b6103ba6105d8366004612d97565b611791565b6103ba6105eb3660046130b8565b6117b1565b6103ba6105fe366004612d97565b611817565b61031f610611366004612d97565b611914565b6103ba6106243660046131a0565b6120b3565b610399610637366004612d97565b60096020526000908152604090205481565b61031f6106573660046130b8565b612137565b61038561066a366004612d97565b600e6020526000908152604090205460ff1681565b61031f61068d366004612f7e565b61216f565b61031f6106a0366004612d97565b6008602052600090815260409020546001600160a01b031681565b61031f6106c9366004612d97565b6005602052600090815260409020546001600160a01b031681565b6103ba6106f2366004612d97565b612199565b61031f7f000000000000000000000000000000000000000000000000000000000000000081565b6103ba61072c36600461300e565b6121d2565b61039961073f366004612f97565b600a60209081526000928352604080842090915290825290205481565b6103ba61076a36600461300e565b6122ef565b6103ba61077d366004612d97565b61232f565b6103ba6107903660046131a0565b612368565b61031f6107a3366004612d97565b6007602052600090815260409020546001600160a01b031681565b6103996107cc366004612f7e565b600d6020526000908152604090205481565b60005b825181101561088f578281815181106107fc576107fc6131d8565b60200260200101516001600160a01b03166331279d3d33848481518110610825576108256131d8565b60200260200101516040518363ffffffff1660e01b815260040161084a929190613232565b600060405180830381600087803b15801561086457600080fd5b505af1158015610878573d6000803e3d6000fd5b5050505080806108879061326c565b9150506107e1565b505050565b6000818152600d6020526040902054819062093a806108b38142613285565b6108bd91906132a7565b1161090f5760405162461bcd60e51b815260206004820152601e60248201527f544f4b454e5f414c52454144595f564f5445445f544849535f45504f4348000060448201526064015b60405180910390fd5b60405163430c208160e01b8152336004820152602481018390527f00000000000000000000000000000000000000000000000000000000000000006001600160a01b03169063430c208190604401602060405180830381865afa15801561097a573d6000803e3d6000fd5b505050506040513d601f19601f8201168201806040525081019061099e91906132c6565b6109a757600080fd5b6000828152600d602052604090204290556109c1826123c7565b60405163c1f0fb9f60e01b8152600481018390527f00000000000000000000000000000000000000000000000000000000000000006001600160a01b03169063c1f0fb9f90602401600060405180830381600087803b158015610a2357600080fd5b505af1158015610a37573d6000803e3d6000fd5b505050505050565b60405163430c208160e01b8152336004820152602481018290527f00000000000000000000000000000000000000000000000000000000000000006001600160a01b03169063430c208190604401602060405180830381865afa158015610aaa573d6000803e3d6000fd5b505050506040513d601f19601f82011682018060405250810190610ace91906132c6565b80610ae357506001546001600160a01b031633145b610aec57600080fd5b6000818152600b6020908152604080832080548251818502810185019093528083529192909190830182828015610b4c57602002820191906000526020600020905b81546001600160a01b03168152600190910190602001808311610b2e575b5050505050905060008151905060008167ffffffffffffffff811115610b7457610b74612dbb565b604051908082528060200260200182016040528015610b9d578160200160208202803683370190505b50905060005b82811015610c2a57600a60008681526020019081526020016000206000858381518110610bd257610bd26131d8565b60200260200101516001600160a01b03166001600160a01b0316815260200190815260200160002054828281518110610c0d57610c0d6131d8565b602090810291909101015280610c228161326c565b915050610ba3565b50610c3684848361266e565b50505050565b610c687f0000000000000000000000000000000000000000000000000000000000000000333084612aec565b600354600090610c8083670de0b6b3a76400006132a7565b610c8a9190613285565b90508015610caa578060126000828254610ca491906132e8565b90915550505b6040518281526001600160a01b037f0000000000000000000000000000000000000000000000000000000000000000169033907ff70d5c697de7ea828df48e5c4573cb2194c659f1901f70110c52b066dcf50826906020015b60405180910390a35050565b336000908152600e602052604090205460ff16610d2b57600080fd5b8115610dac57604051634c35bec560e11b8152600481018390527f00000000000000000000000000000000000000000000000000000000000000006001600160a01b03169063986b7d8a90602401600060405180830381600087803b158015610d9357600080fd5b505af1158015610da7573d6000803e3d6000fd5b505050505b60405182815233906001600160a01b038316907fae268d9aab12f3605f58efd74fd3801fa812b03fdb44317eb70f46dff0e19e2290602001610d03565b6000546001600160a01b03163314610e0057600080fd5b60005b8251811015610e4057610e2e838281518110610e2157610e216131d8565b6020026020010151612bdc565b80610e388161326c565b915050610e03565b50600080546001600160a01b0319166001600160a01b039290921691909117905550565b600454610e7390600090611345565b565b600454610e73906000906117b1565b60005b8151811015610ec457610eb2828281518110610ea557610ea56131d8565b6020026020010151610ec8565b80610ebc8161326c565b915050610e87565b5050565b601154600114610ed757600080fd5b600260118190555060008054906101000a90046001600160a01b03166001600160a01b031663ed29fc116040518163ffffffff1660e01b81526004016020604051808303816000875af1158015610f32573d6000803e3d6000fd5b505050506040513d601f19601f82011682018060405250810190610f569190613300565b50610f6081612c4f565b6001600160a01b0381811660008181526014602052604090819020549051634cde602960e11b81527f00000000000000000000000000000000000000000000000000000000000000009093166004840152916399bcc05290602401602060405180830381865afa158015610fd8573d6000803e3d6000fd5b505050506040513d601f19601f82011682018060405250810190610ffc9190613300565b811180156110165750600061101462093a8083613285565b115b156110f1576001600160a01b03828116600081815260146020526040808220919091555163b66503cf60e01b81527f00000000000000000000000000000000000000000000000000000000000000009092166004830152602482018390529063b66503cf90604401600060405180830381600087803b15801561109857600080fd5b505af11580156110ac573d6000803e3d6000fd5b50506040518381526001600160a01b03851692503391507f4fa9693cae526341d334e2862ca2413b2e503f1266255f9e0869fb36e6d89b179060200160405180910390a35b50506001601155565b60405163430c208160e01b8152336004820152602481018290527f00000000000000000000000000000000000000000000000000000000000000006001600160a01b03169063430c208190604401602060405180830381865afa158015611165573d6000803e3d6000fd5b505050506040513d601f19601f8201168201806040525081019061118991906132c6565b61119257600080fd5b60005b8351811015610c36578381815181106111b0576111b06131d8565b60200260200101516001600160a01b031663a7852afa838584815181106111d9576111d96131d8565b60200260200101516040518363ffffffff1660e01b81526004016111fe929190613319565b600060405180830381600087803b15801561121857600080fd5b505af115801561122c573d6000803e3d6000fd5b50505050808061123b9061326c565b915050611195565b336000908152600e602052604090205460ff1661125f57600080fd5b3360009081526010602052604090205460ff1661127b57600080fd5b81156112fc5760405163fbd3a29d60e01b8152600481018390527f00000000000000000000000000000000000000000000000000000000000000006001600160a01b03169063fbd3a29d90602401600060405180830381600087803b1580156112e357600080fd5b505af11580156112f7573d6000803e3d6000fd5b505050505b60405182815233906001600160a01b038316907f60940192810a6fb3bce3fd3e2e3a13fd6ccc7605e963fb87ee971aba829989bd90602001610d03565b61134281612c4f565b50565b815b8181101561088f576113996005600060048481548110611369576113696131d8565b60009182526020808320909101546001600160a01b03908116845290830193909352604090910190205416610ec8565b806113a38161326c565b915050611347565b60405163430c208160e01b8152336004820152602481018290527f00000000000000000000000000000000000000000000000000000000000000006001600160a01b03169063430c208190604401602060405180830381865afa158015611416573d6000803e3d6000fd5b505050506040513d601f19601f8201168201806040525081019061143a91906132c6565b61144357600080fd5b60005b8351811015610c3657838181518110611461576114616131d8565b60200260200101516001600160a01b031663a7852afa8385848151811061148a5761148a6131d8565b60200260200101516040518363ffffffff1660e01b81526004016114af929190613319565b600060405180830381600087803b1580156114c957600080fd5b505af11580156114dd573d6000803e3d6000fd5b5050505080806114ec9061326c565b915050611446565b6000858152600d6020526040902054859062093a806115138142613285565b61151d91906132a7565b1161156a5760405162461bcd60e51b815260206004820152601e60248201527f544f4b454e5f414c52454144595f564f5445445f544849535f45504f434800006044820152606401610906565b60405163430c208160e01b8152336004820152602481018790527f00000000000000000000000000000000000000000000000000000000000000006001600160a01b03169063430c208190604401602060405180830381865afa1580156115d5573d6000803e3d6000fd5b505050506040513d601f19601f820116820180604052508101906115f991906132c6565b61160257600080fd5b83821461160e57600080fd5b6000868152600d602090815260409182902042905581518682028181018301909352868152610a379289928991899182919085019084908082843760009201919091525050604080516020808a0282810182019093528982529093508992508891829185019084908082843760009201919091525061266e92505050565b6002546001600160a01b031633146116de5760405162461bcd60e51b81526020600482015260156024820152741b9bdd08195b595c99d95b98de4818dbdd5b98da5b605a1b6044820152606401610906565b6001600160a01b03811660009081526010602052604090205460ff1661173b5760405162461bcd60e51b815260206004820152601260248201527119d85d59d948185b1c9958591e481919585960721b6044820152606401610906565b6001600160a01b0381166000818152601060209081526040808320805460ff191690556014909152808220829055517f04a5d3f5d80d22d9345acc80618f4a4e7e663cf9e1aed23b57d975acec002ba79190a250565b6001546001600160a01b031633146117a857600080fd5b61134281612bdc565b815b8181101561088f5761180560056000600484815481106117d5576117d56131d8565b60009182526020808320909101546001600160a01b03908116845290830193909352604090910190205416612c4f565b8061180f8161326c565b9150506117b3565b6002546001600160a01b031633146118695760405162461bcd60e51b81526020600482015260156024820152741b9bdd08195b595c99d95b98de4818dbdd5b98da5b605a1b6044820152606401610906565b6001600160a01b03811660009081526010602052604090205460ff16156118c85760405162461bcd60e51b8152602060048201526013602482015272676175676520616c726561647920616c69766560681b6044820152606401610906565b6001600160a01b038116600081815260106020526040808220805460ff19166001179055517fed18e9faa3dccfd8aa45f69c4de40546b2ca9cccc4538a2323531656516db1aa9190a250565b6001600160a01b03818116600090815260056020526040812054909116156119675760405162461bcd60e51b815260206004820152600660248201526565786973747360d01b6044820152606401610906565b60408051600380825260808201909252600091602082016060803683375050604080516002808252606082018352939450600093909250906020830190803683370190505060405163e5e31b1360e01b81526001600160a01b0386811660048301529192506000917f0000000000000000000000000000000000000000000000000000000000000000169063e5e31b1390602401602060405180830381865afa158015611a18573d6000803e3d6000fd5b505050506040513d601f19601f82011682018060405250810190611a3c91906132c6565b90506000808215611c3857866001600160a01b0316639d63848a6040518163ffffffff1660e01b815260040160408051808303816000875af1158015611a86573d6000803e3d6000fd5b505050506040513d601f19601f82011682018060405250810190611aaa9190613332565b80925081935050508185600081518110611ac657611ac66131d8565b60200260200101906001600160a01b031690816001600160a01b0316815250508085600181518110611afa57611afa6131d8565b60200260200101906001600160a01b031690816001600160a01b0316815250508184600081518110611b2e57611b2e6131d8565b60200260200101906001600160a01b031690816001600160a01b0316815250508084600181518110611b6257611b626131d8565b6001600160a01b0392831660209182029290920101527f0000000000000000000000000000000000000000000000000000000000000000811690831614801590611bde5750806001600160a01b03167f00000000000000000000000000000000000000000000000000000000000000006001600160a01b031614155b15611c38577f000000000000000000000000000000000000000000000000000000000000000085600281518110611c1757611c176131d8565b60200260200101906001600160a01b031690816001600160a01b0316815250505b6001546001600160a01b03163314611cfb5782611c805760405162461bcd60e51b81526020600482015260066024820152650857dc1bdbdb60d21b6044820152606401610906565b6001600160a01b0382166000908152600f602052604090205460ff168015611cc057506001600160a01b0381166000908152600f602052604090205460ff165b611cfb5760405162461bcd60e51b815260206004820152600c60248201526b085dda1a5d195b1a5cdd195960a21b6044820152606401610906565b604051632a26b9eb60e01b81526000906001600160a01b037f00000000000000000000000000000000000000000000000000000000000000001690632a26b9eb90611d4a908890600401613361565b6020604051808303816000875af1158015611d69573d6000803e3d6000fd5b505050506040513d601f19601f82011682018060405250810190611d8d9190613374565b905060007f00000000000000000000000000000000000000000000000000000000000000006001600160a01b0316636485f0c4886040518263ffffffff1660e01b8152600401611ddd9190613361565b6020604051808303816000875af1158015611dfc573d6000803e3d6000fd5b505050506040513d601f19601f82011682018060405250810190611e209190613374565b905060007f00000000000000000000000000000000000000000000000000000000000000006001600160a01b0316630bc25f4f8b85857f00000000000000000000000000000000000000000000000000000000000000008b8e6040518763ffffffff1660e01b8152600401611e9a96959493929190613391565b6020604051808303816000875af1158015611eb9573d6000803e3d6000fd5b505050506040513d601f19601f82011682018060405250810190611edd9190613374565b60405163095ea7b360e01b81526001600160a01b03808316600483015260001960248301529192507f00000000000000000000000000000000000000000000000000000000000000009091169063095ea7b3906044016020604051808303816000875af1158015611f52573d6000803e3d6000fd5b505050506040513d601f19601f82011682018060405250810190611f7691906132c6565b506001600160a01b03818116600081815260076020908152604080832080546001600160a01b03199081168a8816179091556008835281842080548216898816179055948f16808452600583528184208054871686179055938352600682528083208054909516909317909355600e8352818120805460ff1990811660019081179092556010909452919020805490921617905561201381612c4f565b600480546001810182556000919091527f8a35acfbc15ff81a39ae7d344fd709f28e8600b4aa8c65c6b64bfe7fe36bd19b0180546001600160a01b0319166001600160a01b038c8116918217909255604080513381528684166020820152919285811692908516917fa4d97e9e7c65249b4cd01acb82add613adea98af32daf092366982f0a0d4e453910160405180910390a49998505050505050505050565b336000908152600e602052604090205460ff166120cf57600080fd5b3360009081526010602052604090205460ff166120eb57600080fd5b604080518481526020810183905233916001600160a01b038516917fdcbc1c05240f31ff3ad067ef1ee35ce4997762752e3a095284754544f4c709d791015b60405180910390a3505050565b600b602052816000526040600020818154811061215357600080fd5b6000918252602090912001546001600160a01b03169150829050565b6004818154811061217f57600080fd5b6000918252602090912001546001600160a01b0316905081565b6001546001600160a01b031633146121b057600080fd5b600180546001600160a01b0319166001600160a01b0392909216919091179055565b60005b8151811015610ec4578181815181106121f0576121f06131d8565b60200260200101516001600160a01b031663e57482136040518163ffffffff1660e01b8152600401602060405180830381865afa158015612235573d6000803e3d6000fd5b505050506040513d601f19601f8201168201806040525081019061225991906132c6565b156122dd57818181518110612270576122706131d8565b60200260200101516001600160a01b031663d294f0936040518163ffffffff1660e01b815260040160408051808303816000875af11580156122b6573d6000803e3d6000fd5b505050506040513d601f19601f820116820180604052508101906122da91906133e1565b50505b806122e78161326c565b9150506121d5565b60005b8151811015610ec45761231d828281518110612310576123106131d8565b6020026020010151612c4f565b806123278161326c565b9150506122f2565b6002546001600160a01b0316331461234657600080fd5b600280546001600160a01b0319166001600160a01b0392909216919091179055565b336000908152600e602052604090205460ff1661238457600080fd5b604080518481526020810183905233916001600160a01b038516917ff341246adaac6f497bc2a656f546ab9e182111d630394f0c57c710a59a2cb567910161212a565b6000818152600b6020526040812080549091805b828110156126325760008482815481106123f7576123f76131d8565b6000918252602080832090910154888352600a825260408084206001600160a01b0390921680855291909252912054909150801561261d576001600160a01b038083166000908152600560205260409020546124539116612c4f565b6001600160a01b0382166000908152600960205260408120805483929061247b908490613405565b90915550506000878152600a602090815260408083206001600160a01b0386168452909152812080548392906124b2908490613405565b909155505080156125d6576001600160a01b038281166000908152600560209081526040808320548416835260079091529081902054905163278afc8b60e21b815260048101849052602481018a9052911690639e2bf22c90604401600060405180830381600087803b15801561252857600080fd5b505af115801561253c573d6000803e3d6000fd5b505050506001600160a01b038281166000908152600560209081526040808320548416835260089091529081902054905163278afc8b60e21b815260048101849052602481018a9052911690639e2bf22c90604401600060405180830381600087803b1580156125ab57600080fd5b505af11580156125bf573d6000803e3d6000fd5b5050505080846125cf91906132e8565b93506125e3565b6125e08185613405565b93505b60408051888152602081018390527fa9f3ca5f8a9e1580edb2741e0ba560084ec72e0067ba3423f9e9327a176882db910160405180910390a15b5050808061262a9061326c565b9150506123db565b5080600360008282546126459190613405565b90915550506000848152600c60209081526040808320839055600b9091528120610c3691612d50565b612677836123c7565b81516040516339f890b560e21b8152600481018590526000907f00000000000000000000000000000000000000000000000000000000000000006001600160a01b03169063e7e242d490602401602060405180830381865afa1580156126e1573d6000803e3d6000fd5b505050506040513d601f19601f820116820180604052508101906127059190613300565b90506000806000805b8581101561274f57868181518110612728576127286131d8565b60200260200101518461273b91906132e8565b9350806127478161326c565b91505061270e565b5060005b85811015612a3857600088828151811061276f5761276f6131d8565b6020908102919091018101516001600160a01b03808216600090815260058452604080822054909216808252600e909452205490925060ff1615612a2357600086888b86815181106127c3576127c36131d8565b60200260200101516127d591906132a7565b6127df9190613285565b60008d8152600a602090815260408083206001600160a01b03881684529091529020549091501561280f57600080fd5b8060000361281c57600080fd5b61282582612c4f565b60008c8152600b6020908152604080832080546001810182559084528284200180546001600160a01b0319166001600160a01b038816908117909155835260099091528120805483929061287a9084906132e8565b909155505060008c8152600a602090815260408083206001600160a01b0387168452909152812080548392906128b19084906132e8565b90915550506001600160a01b038083166000908152600760205260409081902054905163f320772360e01b815260048101849052602481018f905291169063f320772390604401600060405180830381600087803b15801561291257600080fd5b505af1158015612926573d6000803e3d6000fd5b5050505060086000836001600160a01b03166001600160a01b0316815260200190815260200160002060009054906101000a90046001600160a01b03166001600160a01b031663f3207723828e6040518363ffffffff1660e01b8152600401612999929190918252602082015260400190565b600060405180830381600087803b1580156129b357600080fd5b505af11580156129c7573d6000803e3d6000fd5b5050505080856129d791906132e8565b94506129e381876132e8565b604080518e81526020810184905291975033917fea66f58e474bc09f580000e81f31b334d171db387d0c6098ba47bd897741679b910160405180910390a2505b50508080612a309061326c565b915050612753565b508015612aba5760405163fd4a77f160e01b8152600481018990527f00000000000000000000000000000000000000000000000000000000000000006001600160a01b03169063fd4a77f190602401600060405180830381600087803b158015612aa157600080fd5b505af1158015612ab5573d6000803e3d6000fd5b505050505b8160036000828254612acc91906132e8565b90915550506000978852600c602052604090972096909655505050505050565b6000846001600160a01b03163b11612b0357600080fd5b604080516001600160a01b0385811660248301528481166044830152606480830185905283518084039091018152608490920183526020820180516001600160e01b03166323b872dd60e01b1790529151600092839290881691612b67919061341c565b6000604051808303816000865af19150503d8060008114612ba4576040519150601f19603f3d011682016040523d82523d6000602084013e612ba9565b606091505b5091509150818015612bd3575080511580612bd3575080806020019051810190612bd391906132c6565b610a3757600080fd5b6001600160a01b0381166000908152600f602052604090205460ff1615612c0257600080fd5b6001600160a01b0381166000818152600f6020526040808220805460ff191660011790555133917f6661a7108aecd07864384529117d96c319c1163e3010c01390f6b704726e07de91a350565b6001600160a01b038082166000908152600660209081526040808320549093168083526009909152919020548015612d2f576001600160a01b038316600090815260136020526040812080546012549182905591612cad8383613405565b90508015610a37576000670de0b6b3a7640000612cca83876132a7565b612cd49190613285565b6001600160a01b03881660009081526010602052604090205490915060ff1615612d26576001600160a01b03871660009081526014602052604081208054839290612d209084906132e8565b90915550505b50505050505050565b6012546001600160a01b038416600090815260136020526040902055505050565b508054600082559060005260206000209081019061134291905b80821115612d7e5760008155600101612d6a565b5090565b6001600160a01b038116811461134257600080fd5b600060208284031215612da957600080fd5b8135612db481612d82565b9392505050565b634e487b7160e01b600052604160045260246000fd5b604051601f8201601f1916810167ffffffffffffffff81118282101715612dfa57612dfa612dbb565b604052919050565b600067ffffffffffffffff821115612e1c57612e1c612dbb565b5060051b60200190565b600082601f830112612e3757600080fd5b81356020612e4c612e4783612e02565b612dd1565b82815260059290921b84018101918181019086841115612e6b57600080fd5b8286015b84811015612e8f578035612e8281612d82565b8352918301918301612e6f565b509695505050505050565b600082601f830112612eab57600080fd5b81356020612ebb612e4783612e02565b82815260059290921b84018101918181019086841115612eda57600080fd5b8286015b84811015612e8f57803567ffffffffffffffff811115612efe5760008081fd5b612f0c8986838b0101612e26565b845250918301918301612ede565b60008060408385031215612f2d57600080fd5b823567ffffffffffffffff80821115612f4557600080fd5b612f5186838701612e26565b93506020850135915080821115612f6757600080fd5b50612f7485828601612e9a565b9150509250929050565b600060208284031215612f9057600080fd5b5035919050565b60008060408385031215612faa57600080fd5b823591506020830135612fbc81612d82565b809150509250929050565b60008060408385031215612fda57600080fd5b823567ffffffffffffffff811115612ff157600080fd5b612ffd85828601612e26565b9250506020830135612fbc81612d82565b60006020828403121561302057600080fd5b813567ffffffffffffffff81111561303757600080fd5b61304384828501612e26565b949350505050565b60008060006060848603121561306057600080fd5b833567ffffffffffffffff8082111561307857600080fd5b61308487838801612e26565b9450602086013591508082111561309a57600080fd5b506130a786828701612e9a565b925050604084013590509250925092565b600080604083850312156130cb57600080fd5b50508035926020909101359150565b60008083601f8401126130ec57600080fd5b50813567ffffffffffffffff81111561310457600080fd5b6020830191508360208260051b850101111561311f57600080fd5b9250929050565b60008060008060006060868803121561313e57600080fd5b85359450602086013567ffffffffffffffff8082111561315d57600080fd5b61316989838a016130da565b9096509450604088013591508082111561318257600080fd5b5061318f888289016130da565b969995985093965092949392505050565b6000806000606084860312156131b557600080fd5b8335925060208401356131c781612d82565b929592945050506040919091013590565b634e487b7160e01b600052603260045260246000fd5b600081518084526020808501945080840160005b838110156132275781516001600160a01b031687529582019590820190600101613202565b509495945050505050565b6001600160a01b0383168152604060208201819052600090613043908301846131ee565b634e487b7160e01b600052601160045260246000fd5b60006001820161327e5761327e613256565b5060010190565b6000826132a257634e487b7160e01b600052601260045260246000fd5b500490565b60008160001904831182151516156132c1576132c1613256565b500290565b6000602082840312156132d857600080fd5b81518015158114612db457600080fd5b600082198211156132fb576132fb613256565b500190565b60006020828403121561331257600080fd5b5051919050565b82815260406020820152600061304360408301846131ee565b6000806040838503121561334557600080fd5b825161335081612d82565b6020840151909250612fbc81612d82565b602081526000612db460208301846131ee565b60006020828403121561338657600080fd5b8151612db481612d82565b6001600160a01b0387811682528681166020830152858116604083015284166060820152821515608082015260c060a082018190526000906133d5908301846131ee565b98975050505050505050565b600080604083850312156133f457600080fd5b505080516020909101519092909150565b60008282101561341757613417613256565b500390565b6000825160005b8181101561343d5760208186018101518583015201613423565b8181111561344c576000828501525b50919091019291505056fea2646970667358221220a59b8fe29c5f6234f643747f5ca9318f804bfc0468e2248ff69509730b9bbff164736f6c634300080d0033",
  "devdoc": {
    "kind": "dev",
    "methods": {},
    "version": 1
  },
  "userdoc": {
    "kind": "user",
    "methods": {},
    "version": 1
  },
  "storageLayout": {
    "storage": [
      {
        "astId": 14342,
        "contract": "contracts/Voter.sol:Voter",
        "label": "minter",
        "offset": 0,
        "slot": "0",
        "type": "t_address"
      },
      {
        "astId": 14344,
        "contract": "contracts/Voter.sol:Voter",
        "label": "governor",
        "offset": 0,
        "slot": "1",
        "type": "t_address"
      },
      {
        "astId": 14346,
        "contract": "contracts/Voter.sol:Voter",
        "label": "emergencyCouncil",
        "offset": 0,
        "slot": "2",
        "type": "t_address"
      },
      {
        "astId": 14348,
        "contract": "contracts/Voter.sol:Voter",
        "label": "totalWeight",
        "offset": 0,
        "slot": "3",
        "type": "t_uint256"
      },
      {
        "astId": 14351,
        "contract": "contracts/Voter.sol:Voter",
        "label": "pools",
        "offset": 0,
        "slot": "4",
        "type": "t_array(t_address)dyn_storage"
      },
      {
        "astId": 14355,
        "contract": "contracts/Voter.sol:Voter",
        "label": "gauges",
        "offset": 0,
        "slot": "5",
        "type": "t_mapping(t_address,t_address)"
      },
      {
        "astId": 14359,
        "contract": "contracts/Voter.sol:Voter",
        "label": "poolForGauge",
        "offset": 0,
        "slot": "6",
        "type": "t_mapping(t_address,t_address)"
      },
      {
        "astId": 14363,
        "contract": "contracts/Voter.sol:Voter",
        "label": "internal_bribes",
        "offset": 0,
        "slot": "7",
        "type": "t_mapping(t_address,t_address)"
      },
      {
        "astId": 14367,
        "contract": "contracts/Voter.sol:Voter",
        "label": "external_bribes",
        "offset": 0,
        "slot": "8",
        "type": "t_mapping(t_address,t_address)"
      },
      {
        "astId": 14371,
        "contract": "contracts/Voter.sol:Voter",
        "label": "weights",
        "offset": 0,
        "slot": "9",
        "type": "t_mapping(t_address,t_uint256)"
      },
      {
        "astId": 14377,
        "contract": "contracts/Voter.sol:Voter",
        "label": "votes",
        "offset": 0,
        "slot": "10",
        "type": "t_mapping(t_uint256,t_mapping(t_address,t_uint256))"
      },
      {
        "astId": 14382,
        "contract": "contracts/Voter.sol:Voter",
        "label": "poolVote",
        "offset": 0,
        "slot": "11",
        "type": "t_mapping(t_uint256,t_array(t_address)dyn_storage)"
      },
      {
        "astId": 14386,
        "contract": "contracts/Voter.sol:Voter",
        "label": "usedWeights",
        "offset": 0,
        "slot": "12",
        "type": "t_mapping(t_uint256,t_uint256)"
      },
      {
        "astId": 14390,
        "contract": "contracts/Voter.sol:Voter",
        "label": "lastVoted",
        "offset": 0,
        "slot": "13",
        "type": "t_mapping(t_uint256,t_uint256)"
      },
      {
        "astId": 14394,
        "contract": "contracts/Voter.sol:Voter",
        "label": "isGauge",
        "offset": 0,
        "slot": "14",
        "type": "t_mapping(t_address,t_bool)"
      },
      {
        "astId": 14398,
        "contract": "contracts/Voter.sol:Voter",
        "label": "isWhitelisted",
        "offset": 0,
        "slot": "15",
        "type": "t_mapping(t_address,t_bool)"
      },
      {
        "astId": 14402,
        "contract": "contracts/Voter.sol:Voter",
        "label": "isAlive",
        "offset": 0,
        "slot": "16",
        "type": "t_mapping(t_address,t_bool)"
      },
      {
        "astId": 14548,
        "contract": "contracts/Voter.sol:Voter",
        "label": "_unlocked",
        "offset": 0,
        "slot": "17",
        "type": "t_uint256"
      },
      {
        "astId": 15657,
        "contract": "contracts/Voter.sol:Voter",
        "label": "index",
        "offset": 0,
        "slot": "18",
        "type": "t_uint256"
      },
      {
        "astId": 15661,
        "contract": "contracts/Voter.sol:Voter",
        "label": "supplyIndex",
        "offset": 0,
        "slot": "19",
        "type": "t_mapping(t_address,t_uint256)"
      },
      {
        "astId": 15665,
        "contract": "contracts/Voter.sol:Voter",
        "label": "claimable",
        "offset": 0,
        "slot": "20",
        "type": "t_mapping(t_address,t_uint256)"
      }
    ],
    "types": {
      "t_address": {
        "encoding": "inplace",
        "label": "address",
        "numberOfBytes": "20"
      },
      "t_array(t_address)dyn_storage": {
        "base": "t_address",
        "encoding": "dynamic_array",
        "label": "address[]",
        "numberOfBytes": "32"
      },
      "t_bool": {
        "encoding": "inplace",
        "label": "bool",
        "numberOfBytes": "1"
      },
      "t_mapping(t_address,t_address)": {
        "encoding": "mapping",
        "key": "t_address",
        "label": "mapping(address => address)",
        "numberOfBytes": "32",
        "value": "t_address"
      },
      "t_mapping(t_address,t_bool)": {
        "encoding": "mapping",
        "key": "t_address",
        "label": "mapping(address => bool)",
        "numberOfBytes": "32",
        "value": "t_bool"
      },
      "t_mapping(t_address,t_uint256)": {
        "encoding": "mapping",
        "key": "t_address",
        "label": "mapping(address => uint256)",
        "numberOfBytes": "32",
        "value": "t_uint256"
      },
      "t_mapping(t_uint256,t_array(t_address)dyn_storage)": {
        "encoding": "mapping",
        "key": "t_uint256",
        "label": "mapping(uint256 => address[])",
        "numberOfBytes": "32",
        "value": "t_array(t_address)dyn_storage"
      },
      "t_mapping(t_uint256,t_mapping(t_address,t_uint256))": {
        "encoding": "mapping",
        "key": "t_uint256",
        "label": "mapping(uint256 => mapping(address => uint256))",
        "numberOfBytes": "32",
        "value": "t_mapping(t_address,t_uint256)"
      },
      "t_mapping(t_uint256,t_uint256)": {
        "encoding": "mapping",
        "key": "t_uint256",
        "label": "mapping(uint256 => uint256)",
        "numberOfBytes": "32",
        "value": "t_uint256"
      },
      "t_uint256": {
        "encoding": "inplace",
        "label": "uint256",
        "numberOfBytes": "32"
      }
    }
  }
}