{
  "address": "0xfa01adbAA40f0EEeCEA76b7B18AC8bE064536787",
  "abi": [
    {
      "inputs": [
        {
          "internalType": "address",
          "name": "token_addr",
          "type": "address"
        },
        {
          "internalType": "address",
          "name": "art_proxy",
          "type": "address"
        }
      ],
      "stateMutability": "nonpayable",
      "type": "constructor"
    },
    {
      "anonymous": false,
      "inputs": [
        {
          "indexed": true,
          "internalType": "address",
          "name": "owner",
          "type": "address"
        },
        {
          "indexed": true,
          "internalType": "address",
          "name": "approved",
          "type": "address"
        },
        {
          "indexed": true,
          "internalType": "uint256",
          "name": "tokenId",
          "type": "uint256"
        }
      ],
      "name": "Approval",
      "type": "event"
    },
    {
      "anonymous": false,
      "inputs": [
        {
          "indexed": true,
          "internalType": "address",
          "name": "owner",
          "type": "address"
        },
        {
          "indexed": true,
          "internalType": "address",
          "name": "operator",
          "type": "address"
        },
        {
          "indexed": false,
          "internalType": "bool",
          "name": "approved",
          "type": "bool"
        }
      ],
      "name": "ApprovalForAll",
      "type": "event"
    },
    {
      "anonymous": false,
      "inputs": [
        {
          "indexed": true,
          "internalType": "address",
          "name": "delegator",
          "type": "address"
        },
        {
          "indexed": true,
          "internalType": "address",
          "name": "fromDelegate",
          "type": "address"
        },
        {
          "indexed": true,
          "internalType": "address",
          "name": "toDelegate",
          "type": "address"
        }
      ],
      "name": "DelegateChanged",
      "type": "event"
    },
    {
      "anonymous": false,
      "inputs": [
        {
          "indexed": true,
          "internalType": "address",
          "name": "delegate",
          "type": "address"
        },
        {
          "indexed": false,
          "internalType": "uint256",
          "name": "previousBalance",
          "type": "uint256"
        },
        {
          "indexed": false,
          "internalType": "uint256",
          "name": "newBalance",
          "type": "uint256"
        }
      ],
      "name": "DelegateVotesChanged",
      "type": "event"
    },
    {
      "anonymous": false,
      "inputs": [
        {
          "indexed": true,
          "internalType": "address",
          "name": "provider",
          "type": "address"
        },
        {
          "indexed": false,
          "internalType": "uint256",
          "name": "tokenId",
          "type": "uint256"
        },
        {
          "indexed": false,
          "internalType": "uint256",
          "name": "value",
          "type": "uint256"
        },
        {
          "indexed": true,
          "internalType": "uint256",
          "name": "locktime",
          "type": "uint256"
        },
        {
          "indexed": false,
          "internalType": "enum VotingEscrow.DepositType",
          "name": "deposit_type",
          "type": "uint8"
        },
        {
          "indexed": false,
          "internalType": "uint256",
          "name": "ts",
          "type": "uint256"
        }
      ],
      "name": "Deposit",
      "type": "event"
    },
    {
      "anonymous": false,
      "inputs": [
        {
          "indexed": false,
          "internalType": "uint256",
          "name": "prevSupply",
          "type": "uint256"
        },
        {
          "indexed": false,
          "internalType": "uint256",
          "name": "supply",
          "type": "uint256"
        }
      ],
      "name": "Supply",
      "type": "event"
    },
    {
      "anonymous": false,
      "inputs": [
        {
          "indexed": true,
          "internalType": "address",
          "name": "from",
          "type": "address"
        },
        {
          "indexed": true,
          "internalType": "address",
          "name": "to",
          "type": "address"
        },
        {
          "indexed": true,
          "internalType": "uint256",
          "name": "tokenId",
          "type": "uint256"
        }
      ],
      "name": "Transfer",
      "type": "event"
    },
    {
      "anonymous": false,
      "inputs": [
        {
          "indexed": true,
          "internalType": "address",
          "name": "provider",
          "type": "address"
        },
        {
          "indexed": false,
          "internalType": "uint256",
          "name": "tokenId",
          "type": "uint256"
        },
        {
          "indexed": false,
          "internalType": "uint256",
          "name": "value",
          "type": "uint256"
        },
        {
          "indexed": false,
          "internalType": "uint256",
          "name": "ts",
          "type": "uint256"
        }
      ],
      "name": "Withdraw",
      "type": "event"
    },
    {
      "inputs": [],
      "name": "DELEGATION_TYPEHASH",
      "outputs": [
        {
          "internalType": "bytes32",
          "name": "",
          "type": "bytes32"
        }
      ],
      "stateMutability": "view",
      "type": "function"
    },
    {
      "inputs": [],
      "name": "DOMAIN_TYPEHASH",
      "outputs": [
        {
          "internalType": "bytes32",
          "name": "",
          "type": "bytes32"
        }
      ],
      "stateMutability": "view",
      "type": "function"
    },
    {
      "inputs": [],
      "name": "MAX_DELEGATES",
      "outputs": [
        {
          "internalType": "uint256",
          "name": "",
          "type": "uint256"
        }
      ],
      "stateMutability": "view",
      "type": "function"
    },
    {
      "inputs": [
        {
          "internalType": "uint256",
          "name": "_tokenId",
          "type": "uint256"
        }
      ],
      "name": "abstain",
      "outputs": [],
      "stateMutability": "nonpayable",
      "type": "function"
    },
    {
      "inputs": [
        {
          "internalType": "address",
          "name": "_approved",
          "type": "address"
        },
        {
          "internalType": "uint256",
          "name": "_tokenId",
          "type": "uint256"
        }
      ],
      "name": "approve",
      "outputs": [],
      "stateMutability": "nonpayable",
      "type": "function"
    },
    {
      "inputs": [],
      "name": "artProxy",
      "outputs": [
        {
          "internalType": "address",
          "name": "",
          "type": "address"
        }
      ],
      "stateMutability": "view",
      "type": "function"
    },
    {
      "inputs": [
        {
          "internalType": "uint256",
          "name": "_tokenId",
          "type": "uint256"
        }
      ],
      "name": "attach",
      "outputs": [],
      "stateMutability": "nonpayable",
      "type": "function"
    },
    {
      "inputs": [
        {
          "internalType": "uint256",
          "name": "",
          "type": "uint256"
        }
      ],
      "name": "attachments",
      "outputs": [
        {
          "internalType": "uint256",
          "name": "",
          "type": "uint256"
        }
      ],
      "stateMutability": "view",
      "type": "function"
    },
    {
      "inputs": [
        {
          "internalType": "address",
          "name": "_owner",
          "type": "address"
        }
      ],
      "name": "balanceOf",
      "outputs": [
        {
          "internalType": "uint256",
          "name": "",
          "type": "uint256"
        }
      ],
      "stateMutability": "view",
      "type": "function"
    },
    {
      "inputs": [
        {
          "internalType": "uint256",
          "name": "_tokenId",
          "type": "uint256"
        },
        {
          "internalType": "uint256",
          "name": "_block",
          "type": "uint256"
        }
      ],
      "name": "balanceOfAtNFT",
      "outputs": [
        {
          "internalType": "uint256",
          "name": "",
          "type": "uint256"
        }
      ],
      "stateMutability": "view",
      "type": "function"
    },
    {
      "inputs": [
        {
          "internalType": "uint256",
          "name": "_tokenId",
          "type": "uint256"
        }
      ],
      "name": "balanceOfNFT",
      "outputs": [
        {
          "internalType": "uint256",
          "name": "",
          "type": "uint256"
        }
      ],
      "stateMutability": "view",
      "type": "function"
    },
    {
      "inputs": [
        {
          "internalType": "uint256",
          "name": "_tokenId",
          "type": "uint256"
        },
        {
          "internalType": "uint256",
          "name": "_t",
          "type": "uint256"
        }
      ],
      "name": "balanceOfNFTAt",
      "outputs": [
        {
          "internalType": "uint256",
          "name": "",
          "type": "uint256"
        }
      ],
      "stateMutability": "view",
      "type": "function"
    },
    {
      "inputs": [],
      "name": "block_number",
      "outputs": [
        {
          "internalType": "uint256",
          "name": "",
          "type": "uint256"
        }
      ],
      "stateMutability": "view",
      "type": "function"
    },
    {
      "inputs": [],
      "name": "checkpoint",
      "outputs": [],
      "stateMutability": "nonpayable",
      "type": "function"
    },
    {
      "inputs": [
        {
          "internalType": "address",
          "name": "",
          "type": "address"
        },
        {
          "internalType": "uint32",
          "name": "",
          "type": "uint32"
        }
      ],
      "name": "checkpoints",
      "outputs": [
        {
          "internalType": "uint256",
          "name": "timestamp",
          "type": "uint256"
        }
      ],
      "stateMutability": "view",
      "type": "function"
    },
    {
      "inputs": [
        {
          "internalType": "uint256",
          "name": "_value",
          "type": "uint256"
        },
        {
          "internalType": "uint256",
          "name": "_lock_duration",
          "type": "uint256"
        }
      ],
      "name": "create_lock",
      "outputs": [
        {
          "internalType": "uint256",
          "name": "",
          "type": "uint256"
        }
      ],
      "stateMutability": "nonpayable",
      "type": "function"
    },
    {
      "inputs": [
        {
          "internalType": "uint256",
          "name": "_value",
          "type": "uint256"
        },
        {
          "internalType": "uint256",
          "name": "_lock_duration",
          "type": "uint256"
        },
        {
          "internalType": "address",
          "name": "_to",
          "type": "address"
        }
      ],
      "name": "create_lock_for",
      "outputs": [
        {
          "internalType": "uint256",
          "name": "",
          "type": "uint256"
        }
      ],
      "stateMutability": "nonpayable",
      "type": "function"
    },
    {
      "inputs": [],
      "name": "decimals",
      "outputs": [
        {
          "internalType": "uint8",
          "name": "",
          "type": "uint8"
        }
      ],
      "stateMutability": "view",
      "type": "function"
    },
    {
      "inputs": [
        {
          "internalType": "address",
          "name": "delegatee",
          "type": "address"
        }
      ],
      "name": "delegate",
      "outputs": [],
      "stateMutability": "nonpayable",
      "type": "function"
    },
    {
      "inputs": [
        {
          "internalType": "address",
          "name": "delegatee",
          "type": "address"
        },
        {
          "internalType": "uint256",
          "name": "nonce",
          "type": "uint256"
        },
        {
          "internalType": "uint256",
          "name": "expiry",
          "type": "uint256"
        },
        {
          "internalType": "uint8",
          "name": "v",
          "type": "uint8"
        },
        {
          "internalType": "bytes32",
          "name": "r",
          "type": "bytes32"
        },
        {
          "internalType": "bytes32",
          "name": "s",
          "type": "bytes32"
        }
      ],
      "name": "delegateBySig",
      "outputs": [],
      "stateMutability": "nonpayable",
      "type": "function"
    },
    {
      "inputs": [
        {
          "internalType": "address",
          "name": "delegator",
          "type": "address"
        }
      ],
      "name": "delegates",
      "outputs": [
        {
          "internalType": "address",
          "name": "",
          "type": "address"
        }
      ],
      "stateMutability": "view",
      "type": "function"
    },
    {
      "inputs": [
        {
          "internalType": "uint256",
          "name": "_tokenId",
          "type": "uint256"
        },
        {
          "internalType": "uint256",
          "name": "_value",
          "type": "uint256"
        }
      ],
      "name": "deposit_for",
      "outputs": [],
      "stateMutability": "nonpayable",
      "type": "function"
    },
    {
      "inputs": [
        {
          "internalType": "uint256",
          "name": "_tokenId",
          "type": "uint256"
        }
      ],
      "name": "detach",
      "outputs": [],
      "stateMutability": "nonpayable",
      "type": "function"
    },
    {
      "inputs": [],
      "name": "epoch",
      "outputs": [
        {
          "internalType": "uint256",
          "name": "",
          "type": "uint256"
        }
      ],
      "stateMutability": "view",
      "type": "function"
    },
    {
      "inputs": [
        {
          "internalType": "uint256",
          "name": "_tokenId",
          "type": "uint256"
        }
      ],
      "name": "getApproved",
      "outputs": [
        {
          "internalType": "address",
          "name": "",
          "type": "address"
        }
      ],
      "stateMutability": "view",
      "type": "function"
    },
    {
      "inputs": [
        {
          "internalType": "uint256",
          "name": "timestamp",
          "type": "uint256"
        }
      ],
      "name": "getPastTotalSupply",
      "outputs": [
        {
          "internalType": "uint256",
          "name": "",
          "type": "uint256"
        }
      ],
      "stateMutability": "view",
      "type": "function"
    },
    {
      "inputs": [
        {
          "internalType": "address",
          "name": "account",
          "type": "address"
        },
        {
          "internalType": "uint256",
          "name": "timestamp",
          "type": "uint256"
        }
      ],
      "name": "getPastVotes",
      "outputs": [
        {
          "internalType": "uint256",
          "name": "",
          "type": "uint256"
        }
      ],
      "stateMutability": "view",
      "type": "function"
    },
    {
      "inputs": [
        {
          "internalType": "address",
          "name": "account",
          "type": "address"
        },
        {
          "internalType": "uint256",
          "name": "timestamp",
          "type": "uint256"
        }
      ],
      "name": "getPastVotesIndex",
      "outputs": [
        {
          "internalType": "uint32",
          "name": "",
          "type": "uint32"
        }
      ],
      "stateMutability": "view",
      "type": "function"
    },
    {
      "inputs": [
        {
          "internalType": "address",
          "name": "account",
          "type": "address"
        }
      ],
      "name": "getVotes",
      "outputs": [
        {
          "internalType": "uint256",
          "name": "",
          "type": "uint256"
        }
      ],
      "stateMutability": "view",
      "type": "function"
    },
    {
      "inputs": [
        {
          "internalType": "uint256",
          "name": "_tokenId",
          "type": "uint256"
        }
      ],
      "name": "get_last_user_slope",
      "outputs": [
        {
          "internalType": "int128",
          "name": "",
          "type": "int128"
        }
      ],
      "stateMutability": "view",
      "type": "function"
    },
    {
      "inputs": [
        {
          "internalType": "uint256",
          "name": "_tokenId",
          "type": "uint256"
        },
        {
          "internalType": "uint256",
          "name": "_value",
          "type": "uint256"
        }
      ],
      "name": "increase_amount",
      "outputs": [],
      "stateMutability": "nonpayable",
      "type": "function"
    },
    {
      "inputs": [
        {
          "internalType": "uint256",
          "name": "_tokenId",
          "type": "uint256"
        },
        {
          "internalType": "uint256",
          "name": "_lock_duration",
          "type": "uint256"
        }
      ],
      "name": "increase_unlock_time",
      "outputs": [],
      "stateMutability": "nonpayable",
      "type": "function"
    },
    {
      "inputs": [
        {
          "internalType": "address",
          "name": "_owner",
          "type": "address"
        },
        {
          "internalType": "address",
          "name": "_operator",
          "type": "address"
        }
      ],
      "name": "isApprovedForAll",
      "outputs": [
        {
          "internalType": "bool",
          "name": "",
          "type": "bool"
        }
      ],
      "stateMutability": "view",
      "type": "function"
    },
    {
      "inputs": [
        {
          "internalType": "address",
          "name": "_spender",
          "type": "address"
        },
        {
          "internalType": "uint256",
          "name": "_tokenId",
          "type": "uint256"
        }
      ],
      "name": "isApprovedOrOwner",
      "outputs": [
        {
          "internalType": "bool",
          "name": "",
          "type": "bool"
        }
      ],
      "stateMutability": "view",
      "type": "function"
    },
    {
      "inputs": [
        {
          "internalType": "uint256",
          "name": "",
          "type": "uint256"
        }
      ],
      "name": "locked",
      "outputs": [
        {
          "internalType": "int128",
          "name": "amount",
          "type": "int128"
        },
        {
          "internalType": "uint256",
          "name": "end",
          "type": "uint256"
        }
      ],
      "stateMutability": "view",
      "type": "function"
    },
    {
      "inputs": [
        {
          "internalType": "uint256",
          "name": "_tokenId",
          "type": "uint256"
        }
      ],
      "name": "locked__end",
      "outputs": [
        {
          "internalType": "uint256",
          "name": "",
          "type": "uint256"
        }
      ],
      "stateMutability": "view",
      "type": "function"
    },
    {
      "inputs": [
        {
          "internalType": "uint256",
          "name": "_from",
          "type": "uint256"
        },
        {
          "internalType": "uint256",
          "name": "_to",
          "type": "uint256"
        }
      ],
      "name": "merge",
      "outputs": [],
      "stateMutability": "nonpayable",
      "type": "function"
    },
    {
      "inputs": [],
      "name": "name",
      "outputs": [
        {
          "internalType": "string",
          "name": "",
          "type": "string"
        }
      ],
      "stateMutability": "view",
      "type": "function"
    },
    {
      "inputs": [
        {
          "internalType": "address",
          "name": "",
          "type": "address"
        }
      ],
      "name": "nonces",
      "outputs": [
        {
          "internalType": "uint256",
          "name": "",
          "type": "uint256"
        }
      ],
      "stateMutability": "view",
      "type": "function"
    },
    {
      "inputs": [
        {
          "internalType": "address",
          "name": "",
          "type": "address"
        }
      ],
      "name": "numCheckpoints",
      "outputs": [
        {
          "internalType": "uint32",
          "name": "",
          "type": "uint32"
        }
      ],
      "stateMutability": "view",
      "type": "function"
    },
    {
      "inputs": [
        {
          "internalType": "uint256",
          "name": "_tokenId",
          "type": "uint256"
        }
      ],
      "name": "ownerOf",
      "outputs": [
        {
          "internalType": "address",
          "name": "",
          "type": "address"
        }
      ],
      "stateMutability": "view",
      "type": "function"
    },
    {
      "inputs": [
        {
          "internalType": "uint256",
          "name": "",
          "type": "uint256"
        }
      ],
      "name": "ownership_change",
      "outputs": [
        {
          "internalType": "uint256",
          "name": "",
          "type": "uint256"
        }
      ],
      "stateMutability": "view",
      "type": "function"
    },
    {
      "inputs": [
        {
          "internalType": "uint256",
          "name": "",
          "type": "uint256"
        }
      ],
      "name": "point_history",
      "outputs": [
        {
          "internalType": "int128",
          "name": "bias",
          "type": "int128"
        },
        {
          "internalType": "int128",
          "name": "slope",
          "type": "int128"
        },
        {
          "internalType": "uint256",
          "name": "ts",
          "type": "uint256"
        },
        {
          "internalType": "uint256",
          "name": "blk",
          "type": "uint256"
        }
      ],
      "stateMutability": "view",
      "type": "function"
    },
    {
      "inputs": [
        {
          "internalType": "address",
          "name": "_from",
          "type": "address"
        },
        {
          "internalType": "address",
          "name": "_to",
          "type": "address"
        },
        {
          "internalType": "uint256",
          "name": "_tokenId",
          "type": "uint256"
        }
      ],
      "name": "safeTransferFrom",
      "outputs": [],
      "stateMutability": "nonpayable",
      "type": "function"
    },
    {
      "inputs": [
        {
          "internalType": "address",
          "name": "_from",
          "type": "address"
        },
        {
          "internalType": "address",
          "name": "_to",
          "type": "address"
        },
        {
          "internalType": "uint256",
          "name": "_tokenId",
          "type": "uint256"
        },
        {
          "internalType": "bytes",
          "name": "_data",
          "type": "bytes"
        }
      ],
      "name": "safeTransferFrom",
      "outputs": [],
      "stateMutability": "nonpayable",
      "type": "function"
    },
    {
      "inputs": [
        {
          "internalType": "address",
          "name": "_operator",
          "type": "address"
        },
        {
          "internalType": "bool",
          "name": "_approved",
          "type": "bool"
        }
      ],
      "name": "setApprovalForAll",
      "outputs": [],
      "stateMutability": "nonpayable",
      "type": "function"
    },
    {
      "inputs": [
        {
          "internalType": "address",
          "name": "_proxy",
          "type": "address"
        }
      ],
      "name": "setArtProxy",
      "outputs": [],
      "stateMutability": "nonpayable",
      "type": "function"
    },
    {
      "inputs": [
        {
          "internalType": "address",
          "name": "_team",
          "type": "address"
        }
      ],
      "name": "setTeam",
      "outputs": [],
      "stateMutability": "nonpayable",
      "type": "function"
    },
    {
      "inputs": [
        {
          "internalType": "address",
          "name": "_voter",
          "type": "address"
        }
      ],
      "name": "setVoter",
      "outputs": [],
      "stateMutability": "nonpayable",
      "type": "function"
    },
    {
      "inputs": [
        {
          "internalType": "uint256",
          "name": "",
          "type": "uint256"
        }
      ],
      "name": "slope_changes",
      "outputs": [
        {
          "internalType": "int128",
          "name": "",
          "type": "int128"
        }
      ],
      "stateMutability": "view",
      "type": "function"
    },
    {
      "inputs": [],
      "name": "supply",
      "outputs": [
        {
          "internalType": "uint256",
          "name": "",
          "type": "uint256"
        }
      ],
      "stateMutability": "view",
      "type": "function"
    },
    {
      "inputs": [
        {
          "internalType": "bytes4",
          "name": "_interfaceID",
          "type": "bytes4"
        }
      ],
      "name": "supportsInterface",
      "outputs": [
        {
          "internalType": "bool",
          "name": "",
          "type": "bool"
        }
      ],
      "stateMutability": "view",
      "type": "function"
    },
    {
      "inputs": [],
      "name": "symbol",
      "outputs": [
        {
          "internalType": "string",
          "name": "",
          "type": "string"
        }
      ],
      "stateMutability": "view",
      "type": "function"
    },
    {
      "inputs": [],
      "name": "team",
      "outputs": [
        {
          "internalType": "address",
          "name": "",
          "type": "address"
        }
      ],
      "stateMutability": "view",
      "type": "function"
    },
    {
      "inputs": [],
      "name": "token",
      "outputs": [
        {
          "internalType": "address",
          "name": "",
          "type": "address"
        }
      ],
      "stateMutability": "view",
      "type": "function"
    },
    {
      "inputs": [
        {
          "internalType": "address",
          "name": "_owner",
          "type": "address"
        },
        {
          "internalType": "uint256",
          "name": "_tokenIndex",
          "type": "uint256"
        }
      ],
      "name": "tokenOfOwnerByIndex",
      "outputs": [
        {
          "internalType": "uint256",
          "name": "",
          "type": "uint256"
        }
      ],
      "stateMutability": "view",
      "type": "function"
    },
    {
      "inputs": [
        {
          "internalType": "uint256",
          "name": "_tokenId",
          "type": "uint256"
        }
      ],
      "name": "tokenURI",
      "outputs": [
        {
          "internalType": "string",
          "name": "",
          "type": "string"
        }
      ],
      "stateMutability": "view",
      "type": "function"
    },
    {
      "inputs": [],
      "name": "totalSupply",
      "outputs": [
        {
          "internalType": "uint256",
          "name": "",
          "type": "uint256"
        }
      ],
      "stateMutability": "view",
      "type": "function"
    },
    {
      "inputs": [
        {
          "internalType": "uint256",
          "name": "_block",
          "type": "uint256"
        }
      ],
      "name": "totalSupplyAt",
      "outputs": [
        {
          "internalType": "uint256",
          "name": "",
          "type": "uint256"
        }
      ],
      "stateMutability": "view",
      "type": "function"
    },
    {
      "inputs": [
        {
          "internalType": "uint256",
          "name": "t",
          "type": "uint256"
        }
      ],
      "name": "totalSupplyAtT",
      "outputs": [
        {
          "internalType": "uint256",
          "name": "",
          "type": "uint256"
        }
      ],
      "stateMutability": "view",
      "type": "function"
    },
    {
      "inputs": [
        {
          "internalType": "address",
          "name": "_from",
          "type": "address"
        },
        {
          "internalType": "address",
          "name": "_to",
          "type": "address"
        },
        {
          "internalType": "uint256",
          "name": "_tokenId",
          "type": "uint256"
        }
      ],
      "name": "transferFrom",
      "outputs": [],
      "stateMutability": "nonpayable",
      "type": "function"
    },
    {
      "inputs": [
        {
          "internalType": "uint256",
          "name": "",
          "type": "uint256"
        }
      ],
      "name": "user_point_epoch",
      "outputs": [
        {
          "internalType": "uint256",
          "name": "",
          "type": "uint256"
        }
      ],
      "stateMutability": "view",
      "type": "function"
    },
    {
      "inputs": [
        {
          "internalType": "uint256",
          "name": "",
          "type": "uint256"
        },
        {
          "internalType": "uint256",
          "name": "",
          "type": "uint256"
        }
      ],
      "name": "user_point_history",
      "outputs": [
        {
          "internalType": "int128",
          "name": "bias",
          "type": "int128"
        },
        {
          "internalType": "int128",
          "name": "slope",
          "type": "int128"
        },
        {
          "internalType": "uint256",
          "name": "ts",
          "type": "uint256"
        },
        {
          "internalType": "uint256",
          "name": "blk",
          "type": "uint256"
        }
      ],
      "stateMutability": "view",
      "type": "function"
    },
    {
      "inputs": [
        {
          "internalType": "uint256",
          "name": "_tokenId",
          "type": "uint256"
        },
        {
          "internalType": "uint256",
          "name": "_idx",
          "type": "uint256"
        }
      ],
      "name": "user_point_history__ts",
      "outputs": [
        {
          "internalType": "uint256",
          "name": "",
          "type": "uint256"
        }
      ],
      "stateMutability": "view",
      "type": "function"
    },
    {
      "inputs": [],
      "name": "version",
      "outputs": [
        {
          "internalType": "string",
          "name": "",
          "type": "string"
        }
      ],
      "stateMutability": "view",
      "type": "function"
    },
    {
      "inputs": [
        {
          "internalType": "uint256",
          "name": "",
          "type": "uint256"
        }
      ],
      "name": "voted",
      "outputs": [
        {
          "internalType": "bool",
          "name": "",
          "type": "bool"
        }
      ],
      "stateMutability": "view",
      "type": "function"
    },
    {
      "inputs": [],
      "name": "voter",
      "outputs": [
        {
          "internalType": "address",
          "name": "",
          "type": "address"
        }
      ],
      "stateMutability": "view",
      "type": "function"
    },
    {
      "inputs": [
        {
          "internalType": "uint256",
          "name": "_tokenId",
          "type": "uint256"
        }
      ],
      "name": "voting",
      "outputs": [],
      "stateMutability": "nonpayable",
      "type": "function"
    },
    {
      "inputs": [
        {
          "internalType": "uint256",
          "name": "_tokenId",
          "type": "uint256"
        }
      ],
      "name": "withdraw",
      "outputs": [],
      "stateMutability": "nonpayable",
      "type": "function"
    }
  ],
  "transactionHash": "0xd3b7df5588e008b92a1b951bfba42d6598a0d14a3f6d66b17ce66ef8c9efa053",
  "args": [
    "0x944AF7785d57bcfC00e95388453B93DAD373216e",
    "0x0bd9d21b40428a650DbFC0F7bd3F7B6FA321F915"
  ],
  "numDeployments": 1,
  "solcInputHash": "816572db58a4a8203fcf6f77728173df",
  "bytecode": "0x60a06040526006805460ff191660011790553480156200001e57600080fd5b5060405162004a1c38038062004a1c8339810160408190526200004191620001b8565b6001600160a01b0382811660805260008054336001600160a01b031991821681178355600180548316909117815560028054909216938516939093179055437f3617319a054d772f909f7c479a2cebe5066e836a939412e32403c99029b92f0155427f3617319a054d772f909f7c479a2cebe5066e836a939412e32403c99029b92f005560046020527f9fe05126d2d9ecf60592e254dead906a4b2e492f36cca727682c38e9008c6ac1805460ff1990811684179091557f4267c0a6fd96b7a87f183ee8744f24d011423cd0e0142b3f563f183d8d9a456b8054821684179055635b5e139f60e01b82527e24030bcf4927897dffe721c2d8dda4bfd8910861687c42b03a463b43b04147805490911690921790915560055460405190913091600080516020620049fc833981519152908290a46005546040516000903090600080516020620049fc833981519152908390a45050620001f0565b80516001600160a01b0381168114620001b357600080fd5b919050565b60008060408385031215620001cc57600080fd5b620001d7836200019b565b9150620001e7602084016200019b565b90509250929050565b6080516147e26200021a60003960008181610b220152818161101801526133b501526147e26000f3fe608060405234801561001057600080fd5b50600436106104075760003560e01c80637116c60c11610220578063c1f0fb9f11610130578063e7a324dc116100b8578063f1127ed811610087578063f1127ed814610abc578063f8a0576314610ae7578063fbd3a29d14610b0a578063fc0c546a14610b1d578063fd4a77f114610b4457600080fd5b8063e7a324dc14610a33578063e7e242d414610a5a578063e985e9c514610a6d578063ee99fe2814610aa957600080fd5b8063d1c2babb116100ff578063d1c2babb1461099c578063d1febfb9146109af578063d4e54c3b146109ed578063e0514aba14610a00578063e441135c14610a1357600080fd5b8063c1f0fb9f1461095b578063c2c4c5c11461096e578063c3cda52014610976578063c87b56dd1461098957600080fd5b806395d89b41116101b3578063a183af5211610182578063a183af52146108c7578063a22cb465146108da578063a4d855df146108ed578063b45a3c0e14610900578063b88d4fde1461094857600080fd5b806395d89b4114610465578063981b24d01461088e578063986b7d8a146108a15780639ab24eb0146108b457600080fd5b80638c2c9baf116101ef5780638c2c9baf1461083c5780638e539e8c1461084f5780638fbb38ff14610862578063900cf0cf1461088557600080fd5b80637116c60c146107d357806371197484146107e65780637ecebe001461080957806385f2aef21461082957600080fd5b8063313ce5671161031b5780635594a045116102ae5780636352211e1161027d5780636352211e1461073e57806365fc3873146107675780636f5488371461077a5780636fcfff451461079a57806370a08231146107c057600080fd5b80635594a045146106fc578063587cde1e1461070f5780635c19a95c146107225780635f5b0c321461073557600080fd5b8063461f711c116102ea578063461f711c1461068c57806346c96aac146106b25780634bc2a657146106c557806354fd4d50146106d857600080fd5b8063313ce567146106395780633a46b1a81461065357806342842e0e14610666578063430c20811461067957600080fd5b80631376f3da1161039e57806323b872dd1161036d57806323b872dd146105c457806325a58b56146105d75780632e1a7d4d146105dd5780632e720f7d146105f05780632f745c591461060357600080fd5b80631376f3da1461054757806318160ddd146105825780631c984bc31461058a57806320606b701461059d57600080fd5b8063081812fc116103da578063081812fc146104be578063095cf5c6146104ff578063095ea7b3146105145780630d6a20331461052757600080fd5b806301ffc9a71461040c578063047fc9aa1461044e57806306fdde03146104655780630758c7d814610496575b600080fd5b61043961041a366004613f24565b6001600160e01b03191660009081526004602052604090205460ff1690565b60405190151581526020015b60405180910390f35b61045760135481565b604051908152602001610445565b610489604051806040016040528060058152602001641d9953919560da1b81525081565b6040516104459190613f99565b6104a96104a4366004613fc8565b610b57565b60405163ffffffff9091168152602001610445565b6104e76104cc366004613ff2565b6000908152600960205260409020546001600160a01b031690565b6040516001600160a01b039091168152602001610445565b61051261050d36600461400b565b610cca565b005b610512610522366004613fc8565b610d03565b610457610535366004613ff2565b60146020526000908152604090205481565b61055a610555366004614026565b610deb565b60408051600f95860b81529390940b6020840152928201526060810191909152608001610445565b610457610e32565b610457610598366004614026565b610e42565b6104577f8cad95687ba82c2ce50e74f7b754645e5117c3a5bec8151c0726d5857980a86681565b6105126105d2366004614048565b610e74565b43610457565b6105126105eb366004613ff2565b610e85565b6105126105fe36600461400b565b61113b565b610457610611366004613fc8565b6001600160a01b03919091166000908152600c60209081526040808320938352929052205490565b610641601281565b60405160ff9091168152602001610445565b610457610661366004613fc8565b611174565b610512610674366004614048565b611213565b610439610687366004613fc8565b61122e565b61069f61069a366004613ff2565b611241565b604051600f9190910b8152602001610445565b6000546104e7906001600160a01b031681565b6105126106d336600461400b565b611284565b610489604051806040016040528060058152602001640312e302e360dc1b81525081565b6002546104e7906001600160a01b031681565b6104e761071d36600461400b565b6112bd565b61051261073036600461400b565b6112ed565b61045761040081565b6104e761074c366004613ff2565b6000908152600760205260409020546001600160a01b031690565b610457610775366004614026565b61130b565b610457610788366004613ff2565b600b6020526000908152604090205481565b6104a96107a836600461400b565b60186020526000908152604090205463ffffffff1681565b6104576107ce36600461400b565b61134d565b6104576107e1366004613ff2565b61136b565b61069f6107f4366004613ff2565b601260205260009081526040902054600f0b81565b61045761081736600461400b565b60196020526000908152604090205481565b6001546104e7906001600160a01b031681565b61045761084a366004614026565b6113cb565b61045761085d366004613ff2565b6113d7565b610439610870366004613ff2565b60156020526000908152604090205460ff1681565b61045760115481565b61045761089c366004613ff2565b6113e2565b6105126108af366004613ff2565b611584565b6104576108c236600461400b565b6115c8565b6105126108d5366004614026565b61169b565b6105126108e8366004614092565b61179a565b6105126108fb366004614026565b61181e565b61092e61090e366004613ff2565b60106020526000908152604090208054600190910154600f9190910b9082565b60408051600f9390930b8352602083019190915201610445565b610512610956366004614138565b611a03565b610512610969366004613ff2565b611ba2565b610512611bd1565b6105126109843660046141e3565b611c11565b610489610997366004613ff2565b611f51565b6105126109aa366004614026565b61207d565b61055a6109bd366004613ff2565b600360205260009081526040902080546001820154600290920154600f82810b93600160801b909304900b919084565b6104576109fb366004614243565b6121e2565b610457610a0e366004614026565b612225565b610457610a21366004613ff2565b600e6020526000908152604090205481565b6104577fe48329057bfd03d55e49b547132e39cffd9c1820ad7b9d4c5307691425d15adf81565b610457610a68366004613ff2565b612231565b610439610a7b366004614278565b6001600160a01b039182166000908152600a6020908152604080832093909416825291909152205460ff1690565b610512610ab7366004614026565b612259565b610457610aca3660046142ab565b601760209081526000928352604080842090915290825290205481565b610457610af5366004613ff2565b60009081526010602052604090206001015490565b610512610b18366004613ff2565b61232d565b6104e77f000000000000000000000000000000000000000000000000000000000000000081565b610512610b52366004613ff2565b61235e565b6001600160a01b03821660009081526018602052604081205463ffffffff16808203610b87576000915050610cc4565b6001600160a01b03841660009081526017602052604081208491610bac6001856142f6565b63ffffffff16815260208101919091526040016000205411610bdb57610bd36001826142f6565b915050610cc4565b6001600160a01b0384166000908152601760209081526040808320838052909152902054831015610c10576000915050610cc4565b600080610c1e6001846142f6565b90505b8163ffffffff168163ffffffff161115610cbf5760006002610c4384846142f6565b610c4d9190614331565b610c5790836142f6565b6001600160a01b038816600090815260176020908152604080832063ffffffff851684529091529020805491925090879003610c9957509350610cc492505050565b8054871115610caa57819350610cb8565b610cb56001836142f6565b92505b5050610c21565b509150505b92915050565b6001546001600160a01b03163314610ce157600080fd5b600180546001600160a01b0319166001600160a01b0392909216919091179055565b6000818152600760205260409020546001600160a01b031680610d2557600080fd5b806001600160a01b0316836001600160a01b031603610d4357600080fd5b6000828152600760209081526040808320546001600160a01b038581168552600a845282852033808752945291909320549216149060ff168180610d845750805b610d8d57600080fd5b60008481526009602052604080822080546001600160a01b0319166001600160a01b0389811691821790925591518793918716917f8c5be1e5ebec7d5bd14f71427d1e84f3dd0314c0f7b2291e5b200ac8c7c3b92591a45050505050565b600f60205281600052604060002081633b9aca008110610e0a57600080fd5b6003020180546001820154600290920154600f82810b9550600160801b90920490910b925084565b6000610e3d4261136b565b905090565b6000828152600f6020526040812082633b9aca008110610e6457610e64614354565b6003020160010154905092915050565b610e8083838333612390565b505050565b60065460ff16600114610e9757600080fd5b6006805460ff19166002179055610eae3382612471565b610eba57610eba61436a565b600081815260146020526040902054158015610ee5575060008181526015602052604090205460ff16155b610f0a5760405162461bcd60e51b8152600401610f0190614380565b60405180910390fd5b60008181526010602090815260409182902082518084019093528054600f0b835260010154908201819052421015610f7d5760405162461bcd60e51b8152602060048201526016602482015275546865206c6f636b206469646e27742065787069726560501b6044820152606401610f01565b8051604080518082018252600080825260208083018281528783526010909152929020905181546001600160801b0319166001600160801b039091161781559051600190910155601354600f9190910b90610fd882826143a2565b6013556040805180820190915260008082526020820152610ffc90859085906124d7565b60405163a9059cbb60e01b8152336004820152602481018390527f00000000000000000000000000000000000000000000000000000000000000006001600160a01b03169063a9059cbb906044016020604051808303816000875af1158015611069573d6000803e3d6000fd5b505050506040513d601f19601f8201168201806040525081019061108d91906143b9565b6110995761109961436a565b6110a284612af3565b60408051858152602081018490524281830152905133917f02f25270a4d87bea75db541cdfe559334a275b4a233520ed6c0a2429667cca94919081900360600190a27f5e2aa66efd74cce82b21852e317e5490d9ecc9e6bb953ae24d90851258cc2f5c8161111084826143a2565b6040805192835260208301919091520160405180910390a150506006805460ff191660011790555050565b6001546001600160a01b0316331461115257600080fd5b600280546001600160a01b0319166001600160a01b0392909216919091179055565b6000806111818484610b57565b6001600160a01b038516600090815260176020908152604080832063ffffffff851684529091528120919250600190910190805b82548110156112095760008382815481106111d2576111d2614354565b906000526020600020015490506111e98188612bc6565b6111f390846143d6565b9250508080611201906143ee565b9150506111b5565b5095945050505050565b610e8083838360405180602001604052806000815250611a03565b600061123a8383612471565b9392505050565b6000818152600e6020908152604080832054600f909252822081633b9aca00811061126e5761126e614354565b6003020154600160801b9004600f0b9392505050565b6000546001600160a01b0316331461129b57600080fd5b600080546001600160a01b0319166001600160a01b0392909216919091179055565b6001600160a01b0380821660009081526016602052604081205490911680156112e6578061123a565b5090919050565b6001600160a01b0381166112fe5750335b6113083382612c9a565b50565b60065460009060ff1660011461132057600080fd5b6006805460ff19166002179055611338838333612d0d565b90506006805460ff1916600117905592915050565b6001600160a01b038116600090815260086020526040812054610cc4565b601154600081815260036020908152604080832081516080810183528154600f81810b8352600160801b909104900b938101939093526001810154918301919091526002015460608201529091906113c38185612e64565b949350505050565b600061123a8383612f65565b6000610cc48261136b565b6000438211156113f4576113f461436a565b6011546000611403848361323e565b600081815260036020908152604080832081516080810183528154600f81810b8352600160801b909104900b93810193909352600181015491830191909152600201546060820152919250838310156115125760006003816114668660016143d6565b8152602080820192909252604090810160002081516080810183528154600f81810b8352600160801b909104900b938101939093526001810154918301919091526002015460608083018290528501519192501461150c57826060015181606001516114d291906143a2565b836040015182604001516114e691906143a2565b60608501516114f5908a6143a2565b6114ff9190614407565b6115099190614426565b91505b50611561565b4382606001511461156157606082015161152c90436143a2565b604083015161153b90426143a2565b606084015161154a90896143a2565b6115549190614407565b61155e9190614426565b90505b61157a8282846040015161157591906143d6565b612e64565b9695505050505050565b6000546001600160a01b0316331461159b57600080fd5b6000818152601460205260409020546115b6906001906143a2565b60009182526014602052604090912055565b6001600160a01b03811660009081526018602052604081205463ffffffff168082036115f75750600092915050565b6001600160a01b03831660009081526017602052604081208161161b6001856142f6565b63ffffffff1663ffffffff16815260200190815260200160002060010190506000805b825481101561169257600083828154811061165b5761165b614354565b906000526020600020015490506116728142612bc6565b61167c90846143d6565b925050808061168a906143ee565b91505061163e565b50949350505050565b60065460ff166001146116ad57600080fd5b6006805460ff191660021790556116c43383612471565b6116d0576116d061436a565b60008281526010602090815260409182902082518084019093528054600f0b83526001015490820152816117065761170661436a565b60008160000151600f0b136117565760405162461bcd60e51b8152602060048201526016602482015275139bc8195e1a5cdd1a5b99c81b1bd8dac8199bdd5b9960521b6044820152606401610f01565b428160200151116117795760405162461bcd60e51b8152600401610f019061443a565b611788838360008460026132c4565b50506006805460ff1916600117905550565b336001600160a01b038316036117b2576117b261436a565b336000818152600a602090815260408083206001600160a01b03871680855290835292819020805460ff191686151590811790915590519081529192917f17307eab39ab6107e8899845ad3d59bd9653f200f220920489ca2b5937696c31910160405180910390a35050565b60065460ff1660011461183057600080fd5b6006805460ff191660021790556118473383612471565b6118535761185361436a565b600082815260106020908152604080832081518083019092528054600f0b825260010154918101919091529062093a808061188e85426143d6565b6118989190614426565b6118a29190614407565b9050428260200151116118e65760405162461bcd60e51b815260206004820152600c60248201526b131bd8dac8195e1c1a5c995960a21b6044820152606401610f01565b60008260000151600f0b136119315760405162461bcd60e51b8152602060048201526011602482015270139bdd1a1a5b99c81a5cc81b1bd8dad959607a1b6044820152606401610f01565b816020015181116119845760405162461bcd60e51b815260206004820152601f60248201527f43616e206f6e6c7920696e637265617365206c6f636b206475726174696f6e006044820152606401610f01565b611992630784ce00426143d6565b8111156119e15760405162461bcd60e51b815260206004820152601e60248201527f566f74696e67206c6f636b2063616e2062652034207965617273206d617800006044820152606401610f01565b6119f0846000838560036132c4565b50506006805460ff191660011790555050565b611a0f84848433612390565b823b15611b9c57604051630a85bd0160e11b81526001600160a01b0384169063150b7a0290611a4890339088908790879060040161447e565b6020604051808303816000875af1925050508015611a83575060408051601f3d908101601f19168201909252611a80918101906144b1565b60015b611b2b573d808015611ab1576040519150601f19603f3d011682016040523d82523d6000602084013e611ab6565b606091505b508051600003611b235760405162461bcd60e51b815260206004820152603260248201527f4552433732313a207472616e7366657220746f206e6f6e20455243373231526560448201527131b2b4bb32b91034b6b83632b6b2b73a32b960711b6064820152608401610f01565b805181602001fd5b6001600160e01b03198116630a85bd0160e11b14611b9a5760405162461bcd60e51b815260206004820152602660248201527f4552433732313a2045524337323152656365697665722072656a656374656420604482015265746f6b656e7360d01b6064820152608401610f01565b505b50505050565b6000546001600160a01b03163314611bb957600080fd5b6000908152601560205260409020805460ff19169055565b611c0f600060405180604001604052806000600f0b8152602001600081525060405180604001604052806000600f0b815260200160008152506124d7565b565b6040805180820182526005808252641d9953919560da1b60209283015282518084018452908152640312e302e360dc1b9082015281517f8cad95687ba82c2ce50e74f7b754645e5117c3a5bec8151c0726d5857980a866818301527fc792e9874e7b42c234d1e8448cec020a0f065019c8cd6f7ccdb65b8c110157e9818401527f06c015bd22b4c69690933c1058878ebdfef31f9aaae40bbe86d8a09fe1b2972c60608201524660808201523060a0808301919091528351808303909101815260c0820184528051908301207fe48329057bfd03d55e49b547132e39cffd9c1820ad7b9d4c5307691425d15adf60e08301526001600160a01b038a1661010083015261012082018990526101408083018990528451808403909101815261016083019094528351939092019290922061190160f01b61018084015261018283018290526101a2830181905290916000906101c20160408051601f198184030181528282528051602091820120600080855291840180845281905260ff8a169284019290925260608301889052608083018790529092509060019060a0016020604051602081039080840390855afa158015611dd0573d6000803e3d6000fd5b5050604051601f1901519150506001600160a01b038116611e4a5760405162461bcd60e51b815260206004820152602e60248201527f566f74696e67457363726f773a3a64656c656761746542795369673a20696e7660448201526d616c6964207369676e617475726560901b6064820152608401610f01565b6001600160a01b0381166000908152601960205260408120805491611e6e836143ee565b919050558914611ed35760405162461bcd60e51b815260206004820152602a60248201527f566f74696e67457363726f773a3a64656c656761746542795369673a20696e76604482015269616c6964206e6f6e636560b01b6064820152608401610f01565b87421115611f3a5760405162461bcd60e51b815260206004820152602e60248201527f566f74696e67457363726f773a3a64656c656761746542795369673a2073696760448201526d1b985d1d5c9948195e1c1a5c995960921b6064820152608401610f01565b611f44818b612c9a565b505050505b505050505050565b6000818152600760205260409020546060906001600160a01b0316611fb85760405162461bcd60e51b815260206004820152601b60248201527f517565727920666f72206e6f6e6578697374656e7420746f6b656e00000000006044820152606401610f01565b60008281526010602090815260409182902082518084019093528054600f0b835260010154908201526002546001600160a01b031663dd9ec14984611ffd8142612bc6565b6020850151855160405160e086901b6001600160e01b0319168152600481019490945260248401929092526044830152600f0b6064820152608401600060405180830381865afa158015612055573d6000803e3d6000fd5b505050506040513d6000823e601f3d908101601f1916820160405261123a91908101906144ce565b6000828152601460205260409020541580156120a8575060008281526015602052604090205460ff16155b6120c45760405162461bcd60e51b8152600401610f0190614380565b8082036120d057600080fd5b6120da3383612471565b6120e357600080fd5b6120ed3382612471565b6120f657600080fd5b6000828152601060208181526040808420815180830183528154600f90810b825260019283015482860190815288885295855283872084518086019095528054820b855290920154938301849052805194519095929490910b921115612160578260200151612166565b83602001515b604080518082018252600080825260208083018281528b835260108252848320935184546001600160801b0319166001600160801b03909116178455516001909301929092558251808401909352808352908201529091506121cb90879086906124d7565b6121d486612af3565b611f498583838660046132c4565b60065460009060ff166001146121f757600080fd5b6006805460ff1916600217905561220f848484612d0d565b90506006805460ff191660011790559392505050565b600061123a8383612bc6565b6000818152600b602052604081205443900361224f57506000919050565b610cc48242612bc6565b60065460ff1660011461226b57600080fd5b6006805460ff1916600217905560008281526010602090815260409182902082518084019093528054600f0b83526001015490820152816122ab57600080fd5b60008160000151600f0b136122fb5760405162461bcd60e51b8152602060048201526016602482015275139bc8195e1a5cdd1a5b99c81b1bd8dac8199bdd5b9960521b6044820152606401610f01565b4281602001511161231e5760405162461bcd60e51b8152600401610f019061443a565b611788838360008460006132c4565b6000546001600160a01b0316331461234457600080fd5b6000818152601460205260409020546115b69060016143d6565b6000546001600160a01b0316331461237557600080fd5b6000908152601560205260409020805460ff19166001179055565b6000828152601460205260409020541580156123bb575060008281526015602052604090205460ff16155b6123d75760405162461bcd60e51b8152600401610f0190614380565b6123e18183612471565b6123ea57600080fd5b6123f484836134c9565b6123fe8483613530565b61241961240a856112bd565b612413856112bd565b846135b1565b6124238383613913565b6000828152600b60205260408082204390555183916001600160a01b0380871692908816917fddf252ad1be2c89b69c2b068fc378daa952ba7f163c4a11628f55a4df523b3ef91a450505050565b60008181526007602090815260408083205460098352818420546001600160a01b03918216808652600a855283862088841680885295529285205492938085149392909116149060ff1682806124c45750815b806124cc5750805b979650505050505050565b6040805160808101825260008082526020820181905291810182905260608101919091526040805160808101825260008082526020820181905291810182905260608101919091526011546000908190871561264257428760200151118015612547575060008760000151600f0b135b1561258c57865161255d90630784ce009061453c565b600f0b6020808701919091528701516125779042906143a2565b8560200151612586919061457a565b600f0b85525b4286602001511180156125a6575060008660000151600f0b135b156125eb5785516125bc90630784ce009061453c565b600f0b6020808601919091528601516125d69042906143a2565b84602001516125e5919061457a565b600f0b84525b602080880151600090815260128252604090205490870151600f9190910b93501561264257866020015186602001510361262757829150612642565b602080870151600090815260129091526040902054600f0b91505b6040805160808101825260008082526020820152429181019190915243606082015281156126b7575060008181526003602090815260409182902082516080810184528154600f81810b8352600160801b909104900b9281019290925260018101549282019290925260029091015460608201525b6040810151816000428310156127045760408401516126d690426143a2565b60608501516126e590436143a2565b6126f790670de0b6b3a7640000614407565b6127019190614426565b90505b600062093a806127148186614426565b61271e9190614407565b905060005b60ff8110156128985761273962093a80836143d6565b915060004283111561274d57429250612761565b50600082815260126020526040902054600f0b5b61276b86846143a2565b876020015161277a919061457a565b8751889061278990839061460f565b600f0b9052506020870180518291906127a390839061465f565b600f90810b90915288516000910b121590506127be57600087525b60008760200151600f0b12156127d657600060208801525b60408088018490528501519295508592670de0b6b3a7640000906127fa90856143a2565b6128049086614407565b61280e9190614426565b856060015161281d91906143d6565b606088015261282d6001896143d6565b97504283036128425750436060870152612898565b6000888152600360209081526040918290208951918a01516001600160801b03908116600160801b029216919091178155908801516001820155606088015160029091015550612891816143ee565b9050612723565b505060118590558b1561292357886020015188602001516128b9919061460f565b846020018181516128ca919061465f565b600f0b905250885188516128de919061460f565b845185906128ed90839061465f565b600f90810b90915260208601516000910b1215905061290e57600060208501525b60008460000151600f0b121561292357600084525b6000858152600360209081526040918290208651918701516001600160801b03908116600160801b02921691909117815590850151600182015560608501516002909101558b15612ae557428b6020015111156129da576020890151612989908861465f565b96508a602001518a60200151036129ac5760208801516129a9908861460f565b96505b60208b810151600090815260129091526040902080546001600160801b0319166001600160801b0389161790555b428a602001511115612a35578a602001518a602001511115612a35576020880151612a05908761460f565b60208b810151600090815260129091526040902080546001600160801b0319166001600160801b03831617905595505b60008c8152600e6020526040812054612a4f9060016143d6565b905080600e60008f815260200190815260200160002081905550428960400181815250504389606001818152505088600f60008f815260200190815260200160002082633b9aca008110612aa557612aa5614354565b825160208401516001600160801b03908116600160801b029116176003919091029190910190815560408201516001820155606090910151600290910155505b505050505050505050505050565b612afd3382612471565b612b495760405162461bcd60e51b815260206004820181905260248201527f63616c6c6572206973206e6f74206f776e6572206e6f7220617070726f7665646044820152606401610f01565b6000818152600760205260408120546001600160a01b031690612b6c9083610d03565b612b80612b78826112bd565b6000846135b1565b612b8a3383613530565b60405182906000906001600160a01b038416907fddf252ad1be2c89b69c2b068fc378daa952ba7f163c4a11628f55a4df523b3ef908390a45050565b6000828152600e6020526040812054808203612be6576000915050610cc4565b6000848152600f6020526040812082633b9aca008110612c0857612c08614354565b60408051608081018252600392909202929092018054600f81810b8452600160801b909104900b602083015260018101549282018390526002015460608201529150612c5490856146ae565b8160200151612c63919061457a565b81518290612c7290839061460f565b600f90810b90915282516000910b12159050612c8d57600081525b51600f0b9150610cc49050565b6000612ca5836112bd565b6001600160a01b0384811660008181526016602052604080822080546001600160a01b031916888616908117909155905194955093928516927f3134e8a2e6d97e929a7e54011ea5485d7d196dd5f0ba4d4ef95803e8e3fc257f9190a4610e808382846139a9565b60008062093a8080612d1f86426143d6565b612d299190614426565b612d339190614407565b905060008511612d4257600080fd5b428111612da05760405162461bcd60e51b815260206004820152602660248201527f43616e206f6e6c79206c6f636b20756e74696c2074696d6520696e207468652060448201526566757475726560d01b6064820152608401610f01565b612dae630784ce00426143d6565b811115612dfd5760405162461bcd60e51b815260206004820152601e60248201527f566f74696e67206c6f636b2063616e2062652034207965617273206d617800006044820152606401610f01565b600560008154612e0c906143ee565b90915550600554612e1d8482613d65565b5060008181526010602090815260409182902082518084019093528054600f0b835260019081015491830191909152612e5b918391899186916132c4565b95945050505050565b600080839050600062093a80808360400151612e809190614426565b612e8a9190614407565b905060005b60ff811015612f3d57612ea562093a80836143d6565b9150600085831115612eb957859250612ecd565b50600082815260126020526040902054600f0b5b6040840151612edc90846143a2565b8460200151612eeb919061457a565b84518590612efa90839061460f565b600f0b905250858303612f0d5750612f3d565b8084602001818151612f1f919061465f565b600f0b9052505060408301829052612f36816143ee565b9050612e8f565b5060008260000151600f0b1215612f5357600082525b50516001600160801b03169392505050565b600043821115612f7757612f7761436a565b6000838152600e6020526040812054815b608081101561301757818310156130175760006002612fa784866143d6565b612fb29060016143d6565b612fbc9190614426565b6000888152600f60205260409020909150869082633b9aca008110612fe357612fe3614354565b600302016002015411612ff857809350613006565b6130036001826143a2565b92505b50613010816143ee565b9050612f88565b506000858152600f6020526040812083633b9aca00811061303a5761303a614354565b60408051608081018252600392909202929092018054600f81810b8452600160801b909104900b60208301526001810154928201929092526002909101546060820152601154909150600061308f878361323e565b600081815260036020908152604080832081516080810183528154600f81810b8352600160801b909104900b93810193909352600181015491830191909152600201546060820152919250808484101561316e5760006003816130f38760016143d6565b8152602080820192909252604090810160002081516080810183528154600f81810b8352600160801b909104900b9381019390935260018101549183019190915260020154606080830182905286015191925061315091906143a2565b92508360400151816040015161316691906143a2565b915050613192565b606083015161317d90436143a2565b915082604001514261318f91906143a2565b90505b604083015182156131cf578284606001518c6131ae91906143a2565b6131b89084614407565b6131c29190614426565b6131cc90826143d6565b90505b60408701516131de90826143a2565b87602001516131ed919061457a565b875188906131fc90839061460f565b600f90810b90915288516000910b12905061322c57505093516001600160801b03169650610cc495505050505050565b60009950505050505050505050610cc4565b60008082815b60808110156132ba57818310156132ba576000600261326384866143d6565b61326e9060016143d6565b6132789190614426565b600081815260036020526040902060020154909150871061329b578093506132a9565b6132a66001826143a2565b92505b506132b3816143ee565b9050613244565b5090949350505050565b60135482906132d386826143d6565b6013556040805180820190915260008082526020820152825160208085015190830152600f0b815282518790849061330c90839061465f565b600f0b905250851561332057602083018690525b6000888152601060209081526040909120845181546001600160801b0319166001600160801b03909116178155908401516001909101556133628882856124d7565b33871580159061338457506004856004811115613381576133816146ed565b14155b1561342e576040516323b872dd60e01b81526001600160a01b038281166004830152306024830152604482018a90527f000000000000000000000000000000000000000000000000000000000000000016906323b872dd906064016020604051808303816000875af11580156133fe573d6000803e3d6000fd5b505050506040513d601f19601f8201168201806040525081019061342291906143b9565b61342e5761342e61436a565b8360200151816001600160a01b03167fff04ccafc360e16b67d682d17bd9503c4c6b9a131f6be6325762dc9ffc7de6248b8b89426040516134729493929190614703565b60405180910390a37f5e2aa66efd74cce82b21852e317e5490d9ecc9e6bb953ae24d90851258cc2f5c836134a68a826143d6565b6040805192835260208301919091520160405180910390a1505050505050505050565b6000818152600760205260409020546001600160a01b038381169116146134f2576134f261436a565b6000818152600960205260409020546001600160a01b03161561352c57600081815260096020526040902080546001600160a01b03191690555b5050565b6000818152600760205260409020546001600160a01b038381169116146135595761355961436a565b600081815260076020526040902080546001600160a01b031916905561357f8282613dd6565b6001600160a01b03821660009081526008602052604081208054600192906135a89084906143a2565b90915550505050565b816001600160a01b0316836001600160a01b0316141580156135d35750600081115b15610e80576001600160a01b03831615613754576001600160a01b03831660009081526018602052604081205463ffffffff169081613637576001600160a01b03851660009081526017602090815260408083208380529091529020600101613679565b6001600160a01b03851660009081526017602052604081209061365b6001856142f6565b63ffffffff1663ffffffff1681526020019081526020016000206001015b9050600061368686613e95565b6001600160a01b038716600090815260176020908152604080832063ffffffff8516845290915281209192506001909101905b83548110156137135760008482815481106136d6576136d6614354565b90600052602060002001549050868114613700578254600181018455600084815260209020018190555b508061370b816143ee565b9150506136b9565b5061371f846001614741565b6001600160a01b0388166000908152601860205260409020805463ffffffff191663ffffffff92909216919091179055505050505b6001600160a01b03821615610e80576001600160a01b03821660009081526018602052604081205463ffffffff1690816137b3576001600160a01b038416600090815260176020908152604080832083805290915290206001016137f5565b6001600160a01b0384166000908152601760205260408120906137d76001856142f6565b63ffffffff1663ffffffff1681526020019081526020016000206001015b9050600061380285613e95565b6001600160a01b038616600090815260176020908152604080832063ffffffff85168452909152902083549192506001908101916104009161384491906143d6565b11156138625760405162461bcd60e51b8152600401610f0190614769565b60005b83548110156138b457600084828154811061388257613882614354565b6000918252602080832090910154855460018101875586845291909220015550806138ac816143ee565b915050613865565b508054600181810183556000838152602090209091018690556138d8908590614741565b6001600160a01b0387166000908152601860205260409020805463ffffffff9290921663ffffffff1990921691909117905550505050505050565b6000818152600760205260409020546001600160a01b0316156139385761393861436a565b600081815260076020908152604080832080546001600160a01b0319166001600160a01b03871690811790915580845260088084528285208054600c86528487208188528652848720889055878752600d8652938620939093559084529091528054600192906135a89084906143d6565b806001600160a01b0316826001600160a01b031614610e80576001600160a01b03821615613b5c576001600160a01b03821660009081526018602052604081205463ffffffff169081613a21576001600160a01b03841660009081526017602090815260408083208380529091529020600101613a63565b6001600160a01b038416600090815260176020526040812090613a456001856142f6565b63ffffffff1663ffffffff1681526020019081526020016000206001015b90506000613a7085613e95565b6001600160a01b038616600090815260176020908152604080832063ffffffff8516845290915281209192506001909101905b8354811015613b1b576000848281548110613ac057613ac0614354565b600091825260208083209091015480835260079091526040909120549091506001600160a01b03908116908a1614613b08578254600181018455600084815260209020018190555b5080613b13816143ee565b915050613aa3565b50613b27846001614741565b6001600160a01b0387166000908152601860205260409020805463ffffffff191663ffffffff92909216919091179055505050505b6001600160a01b03811615610e80576001600160a01b03811660009081526018602052604081205463ffffffff169081613bbb576001600160a01b03831660009081526017602090815260408083208380529091529020600101613bfd565b6001600160a01b038316600090815260176020526040812090613bdf6001856142f6565b63ffffffff1663ffffffff1681526020019081526020016000206001015b90506000613c0a84613e95565b6001600160a01b03808616600090815260176020908152604080832063ffffffff861684528252808320938b1683526008909152902054845492935060019091019161040090613c5b9083906143d6565b1115613c795760405162461bcd60e51b8152600401610f0190614769565b60005b8454811015613ccb576000858281548110613c9957613c99614354565b600091825260208083209091015486546001810188558784529190922001555080613cc3816143ee565b915050613c7c565b5060005b81811015613d1d576001600160a01b0389166000908152600c602090815260408083208484528252822054855460018101875586845291909220015580613d15816143ee565b915050613ccf565b50613d29856001614741565b6001600160a01b0387166000908152601860205260409020805463ffffffff9290921663ffffffff199092169190911790555050505050505050565b60006001600160a01b038316613d7d57613d7d61436a565b613d8b6000612413856112bd565b613d958383613913565b60405182906001600160a01b038516906000907fddf252ad1be2c89b69c2b068fc378daa952ba7f163c4a11628f55a4df523b3ef908290a450600192915050565b6001600160a01b038216600090815260086020526040812054613dfb906001906143a2565b6000838152600d6020526040902054909150808203613e4a576001600160a01b0384166000908152600c602090815260408083208584528252808320839055858352600d909152812055611b9c565b6001600160a01b03939093166000908152600c6020908152604080832093835292815282822080548684528484208190558352600d9091528282209490945592839055908252812055565b6001600160a01b038116600090815260186020526040812054429063ffffffff168015801590613efe57506001600160a01b03841660009081526017602052604081208391613ee56001856142f6565b63ffffffff168152602081019190915260400160002054145b1561123a576113c36001826142f6565b6001600160e01b03198116811461130857600080fd5b600060208284031215613f3657600080fd5b813561123a81613f0e565b60005b83811015613f5c578181015183820152602001613f44565b83811115611b9c5750506000910152565b60008151808452613f85816020860160208601613f41565b601f01601f19169290920160200192915050565b60208152600061123a6020830184613f6d565b80356001600160a01b0381168114613fc357600080fd5b919050565b60008060408385031215613fdb57600080fd5b613fe483613fac565b946020939093013593505050565b60006020828403121561400457600080fd5b5035919050565b60006020828403121561401d57600080fd5b61123a82613fac565b6000806040838503121561403957600080fd5b50508035926020909101359150565b60008060006060848603121561405d57600080fd5b61406684613fac565b925061407460208501613fac565b9150604084013590509250925092565b801515811461130857600080fd5b600080604083850312156140a557600080fd5b6140ae83613fac565b915060208301356140be81614084565b809150509250929050565b634e487b7160e01b600052604160045260246000fd5b604051601f8201601f1916810167ffffffffffffffff81118282101715614108576141086140c9565b604052919050565b600067ffffffffffffffff82111561412a5761412a6140c9565b50601f01601f191660200190565b6000806000806080858703121561414e57600080fd5b61415785613fac565b935061416560208601613fac565b925060408501359150606085013567ffffffffffffffff81111561418857600080fd5b8501601f8101871361419957600080fd5b80356141ac6141a782614110565b6140df565b8181528860208385010111156141c157600080fd5b8160208401602083013760006020838301015280935050505092959194509250565b60008060008060008060c087890312156141fc57600080fd5b61420587613fac565b95506020870135945060408701359350606087013560ff8116811461422957600080fd5b9598949750929560808101359460a0909101359350915050565b60008060006060848603121561425857600080fd5b833592506020840135915061426f60408501613fac565b90509250925092565b6000806040838503121561428b57600080fd5b61429483613fac565b91506142a260208401613fac565b90509250929050565b600080604083850312156142be57600080fd5b6142c783613fac565b9150602083013563ffffffff811681146140be57600080fd5b634e487b7160e01b600052601160045260246000fd5b600063ffffffff83811690831681811015614313576143136142e0565b039392505050565b634e487b7160e01b600052601260045260246000fd5b600063ffffffff808416806143485761434861431b565b92169190910492915050565b634e487b7160e01b600052603260045260246000fd5b634e487b7160e01b600052600160045260246000fd5b602080825260089082015267185d1d1858da195960c21b604082015260600190565b6000828210156143b4576143b46142e0565b500390565b6000602082840312156143cb57600080fd5b815161123a81614084565b600082198211156143e9576143e96142e0565b500190565b600060018201614400576144006142e0565b5060010190565b6000816000190483118215151615614421576144216142e0565b500290565b6000826144355761443561431b565b500490565b60208082526024908201527f43616e6e6f742061646420746f2065787069726564206c6f636b2e20576974686040820152636472617760e01b606082015260800190565b6001600160a01b038581168252841660208201526040810183905260806060820181905260009061157a90830184613f6d565b6000602082840312156144c357600080fd5b815161123a81613f0e565b6000602082840312156144e057600080fd5b815167ffffffffffffffff8111156144f757600080fd5b8201601f8101841361450857600080fd5b80516145166141a782614110565b81815285602083850101111561452b57600080fd5b612e5b826020830160208601613f41565b600081600f0b83600f0b806145535761455361431b565b60016001607f1b0319821460001982141615614571576145716142e0565b90059392505050565b600081600f0b83600f0b60016001607f1b036000821360008413838304851182821616156145aa576145aa6142e0565b60016001607f1b031960008512828116878305871216156145cd576145cd6142e0565b600087129250858205871284841616156145e9576145e96142e0565b858505871281841616156145ff576145ff6142e0565b5050509290910295945050505050565b600081600f0b83600f0b600081128160016001607f1b03190183128115161561463a5761463a6142e0565b8160016001607f1b03018313811615614655576146556142e0565b5090039392505050565b600081600f0b83600f0b600082128260016001607f1b0303821381151615614689576146896142e0565b8260016001607f1b03190382128116156146a5576146a56142e0565b50019392505050565b60008083128015600160ff1b8501841216156146cc576146cc6142e0565b6001600160ff1b03840183138116156146e7576146e76142e0565b50500390565b634e487b7160e01b600052602160045260246000fd5b84815260208101849052608081016005841061472f57634e487b7160e01b600052602160045260246000fd5b60408201939093526060015292915050565b600063ffffffff808316818516808303821115614760576147606142e0565b01949350505050565b60208082526023908201527f64737452657020776f756c64206861766520746f6f206d616e7920746f6b656e60408201526249647360e81b60608201526080019056fea26469706673582212207414e763e50126846f1d35c7cbdb3471a7585ac7f76203fdbe0144acf7cebd6c64736f6c634300080d0033ddf252ad1be2c89b69c2b068fc378daa952ba7f163c4a11628f55a4df523b3ef",
  "devdoc": {
    "author": "Modified from Solidly (https://github.com/solidlyexchange/solidly/blob/master/contracts/ve.sol)Modified from Curve (https://github.com/curvefi/curve-dao-contracts/blob/master/contracts/VotingEscrow.vy)Modified from Nouns DAO (https://github.com/withtally/my-nft-dao-project/blob/main/contracts/ERC721Checkpointable.sol)",
    "details": "Vote weight decays linearly over time. Lock time cannot be more than `MAXTIME` (4 years).",
    "kind": "dev",
    "methods": {
      "approve(address,uint256)": {
        "details": "Set or reaffirm the approved address for an NFT. The zero address indicates there is no approved address.      Throws unless `msg.sender` is the current NFT owner, or an authorized operator of the current owner.      Throws if `_tokenId` is not a valid NFT. (NOTE: This is not written the EIP)      Throws if `_approved` is the current owner. (NOTE: This is not written the EIP)",
        "params": {
          "_approved": "Address to be approved for the given NFT ID.",
          "_tokenId": "ID of the token to be approved."
        }
      },
      "balanceOf(address)": {
        "details": "Returns the number of NFTs owned by `_owner`.      Throws if `_owner` is the zero address. NFTs assigned to the zero address are considered invalid.",
        "params": {
          "_owner": "Address for whom to query the balance."
        }
      },
      "constructor": {
        "params": {
          "token_addr": "`FLOW` token address"
        }
      },
      "create_lock(uint256,uint256)": {
        "params": {
          "_lock_duration": "Number of seconds to lock tokens for (rounded down to nearest week)",
          "_value": "Amount to deposit"
        }
      },
      "create_lock_for(uint256,uint256,address)": {
        "params": {
          "_lock_duration": "Number of seconds to lock tokens for (rounded down to nearest week)",
          "_to": "Address to deposit",
          "_value": "Amount to deposit"
        }
      },
      "delegate(address)": {
        "params": {
          "delegatee": "The address to delegate votes to"
        }
      },
      "delegateBySig(address,uint256,uint256,uint8,bytes32,bytes32)": {
        "details": "Delegates votes from signer to `delegatee`."
      },
      "deposit_for(uint256,uint256)": {
        "details": "Anyone (even a smart contract) can deposit for someone else, but      cannot extend their locktime and deposit for a brand new user",
        "params": {
          "_tokenId": "lock NFT",
          "_value": "Amount to add to user's lock"
        }
      },
      "getApproved(uint256)": {
        "details": "Get the approved address for a single NFT.",
        "params": {
          "_tokenId": "ID of the NFT to query the approval of."
        }
      },
      "getVotes(address)": {
        "params": {
          "account": "The address to get votes balance"
        },
        "returns": {
          "_0": "The number of current votes for `account`"
        }
      },
      "get_last_user_slope(uint256)": {
        "params": {
          "_tokenId": "token of the NFT"
        },
        "returns": {
          "_0": "Value of the slope"
        }
      },
      "increase_amount(uint256,uint256)": {
        "params": {
          "_value": "Amount of tokens to deposit and add to the lock"
        }
      },
      "increase_unlock_time(uint256,uint256)": {
        "params": {
          "_lock_duration": "New number of seconds until tokens unlock"
        }
      },
      "isApprovedForAll(address,address)": {
        "details": "Checks if `_operator` is an approved operator for `_owner`.",
        "params": {
          "_operator": "The address that acts on behalf of the owner.",
          "_owner": "The address that owns the NFTs."
        }
      },
      "locked__end(uint256)": {
        "params": {
          "_tokenId": "User NFT"
        },
        "returns": {
          "_0": "Epoch time of the lock end"
        }
      },
      "ownerOf(uint256)": {
        "details": "Returns the address of the owner of the NFT.",
        "params": {
          "_tokenId": "The identifier for an NFT."
        }
      },
      "safeTransferFrom(address,address,uint256)": {
        "details": "Transfers the ownership of an NFT from one address to another address.      Throws unless `msg.sender` is the current owner, an authorized operator, or the      approved address for this NFT.      Throws if `_from` is not the current owner.      Throws if `_to` is the zero address.      Throws if `_tokenId` is not a valid NFT.      If `_to` is a smart contract, it calls `onERC721Received` on `_to` and throws if      the return value is not `bytes4(keccak256(\"onERC721Received(address,address,uint,bytes)\"))`.",
        "params": {
          "_from": "The current owner of the NFT.",
          "_to": "The new owner.",
          "_tokenId": "The NFT to transfer."
        }
      },
      "safeTransferFrom(address,address,uint256,bytes)": {
        "details": "Transfers the ownership of an NFT from one address to another address.      Throws unless `msg.sender` is the current owner, an authorized operator, or the      approved address for this NFT.      Throws if `_from` is not the current owner.      Throws if `_to` is the zero address.      Throws if `_tokenId` is not a valid NFT.      If `_to` is a smart contract, it calls `onERC721Received` on `_to` and throws if      the return value is not `bytes4(keccak256(\"onERC721Received(address,address,uint,bytes)\"))`.",
        "params": {
          "_data": "Additional data with no specified format, sent in call to `_to`.",
          "_from": "The current owner of the NFT.",
          "_to": "The new owner.",
          "_tokenId": "The NFT to transfer."
        }
      },
      "setApprovalForAll(address,bool)": {
        "details": "Enables or disables approval for a third party (\"operator\") to manage all of      `msg.sender`'s assets. It also emits the ApprovalForAll event.      Throws if `_operator` is the `msg.sender`. (NOTE: This is not written the EIP)",
        "params": {
          "_approved": "True if the operators is approved, false to revoke approval.",
          "_operator": "Address to add to the set of authorized operators."
        }
      },
      "supportsInterface(bytes4)": {
        "details": "Interface identification is specified in ERC-165.",
        "params": {
          "_interfaceID": "Id of the interface"
        }
      },
      "tokenOfOwnerByIndex(address,uint256)": {
        "details": "Get token by index"
      },
      "tokenURI(uint256)": {
        "details": "Returns current token URI metadata",
        "params": {
          "_tokenId": "Token ID to fetch URI for."
        }
      },
      "totalSupplyAt(uint256)": {
        "params": {
          "_block": "Block to calculate the total voting power at"
        },
        "returns": {
          "_0": "Total voting power at `_block`"
        }
      },
      "totalSupplyAtT(uint256)": {
        "details": "Adheres to the ERC20 `totalSupply` interface for Aragon compatibility",
        "returns": {
          "_0": "Total voting power"
        }
      },
      "transferFrom(address,address,uint256)": {
        "details": "Throws unless `msg.sender` is the current owner, an authorized operator, or the approved address for this NFT.      Throws if `_from` is not the current owner.      Throws if `_to` is the zero address.      Throws if `_tokenId` is not a valid NFT.",
        "params": {
          "_from": "The current owner of the NFT.",
          "_to": "The new owner.",
          "_tokenId": "The NFT to transfer."
        }
      },
      "user_point_history__ts(uint256,uint256)": {
        "params": {
          "_idx": "User epoch number",
          "_tokenId": "token of the NFT"
        },
        "returns": {
          "_0": "Epoch time of the checkpoint"
        }
      },
      "withdraw(uint256)": {
        "details": "Only possible if the lock has expired"
      }
    },
    "stateVariables": {
      "ERC165_INTERFACE_ID": {
        "details": "ERC165 interface ID of ERC165"
      },
      "ERC721_INTERFACE_ID": {
        "details": "ERC165 interface ID of ERC721"
      },
      "ERC721_METADATA_INTERFACE_ID": {
        "details": "ERC165 interface ID of ERC721Metadata"
      },
      "_not_entered": {
        "details": "reentrancy guard"
      },
      "idToApprovals": {
        "details": "Mapping from NFT ID to approved address."
      },
      "idToOwner": {
        "details": "Mapping from NFT ID to the address that owns it."
      },
      "name": {
        "details": "Returns the token collection name."
      },
      "ownerToNFTokenCount": {
        "details": "Mapping from owner address to count of his tokens."
      },
      "ownerToNFTokenIdList": {
        "details": "Mapping from owner address to mapping of index to tokenIds"
      },
      "ownerToOperators": {
        "details": "Mapping from owner address to mapping of operator addresses."
      },
      "supportedInterfaces": {
        "details": "Mapping of interface id to bool about whether or not it's supported"
      },
      "symbol": {
        "details": "Returns the token collection symbol."
      },
      "tokenId": {
        "details": "Current count of token"
      },
      "tokenToOwnerIndex": {
        "details": "Mapping from NFT ID to index of owner"
      }
    },
    "title": "Voting Escrow",
    "version": 1
  },
  "userdoc": {
    "kind": "user",
    "methods": {
      "DELEGATION_TYPEHASH()": {
        "notice": "The EIP-712 typehash for the delegation struct used by the contract"
      },
      "DOMAIN_TYPEHASH()": {
        "notice": "The EIP-712 typehash for the contract's domain"
      },
      "checkpoint()": {
        "notice": "Record global data to checkpoint"
      },
      "checkpoints(address,uint32)": {
        "notice": "A record of delegated token checkpoints for each account, by index"
      },
      "constructor": {
        "notice": "Contract constructor"
      },
      "create_lock(uint256,uint256)": {
        "notice": "Deposit `_value` tokens for `msg.sender` and lock for `_lock_duration`"
      },
      "create_lock_for(uint256,uint256,address)": {
        "notice": "Deposit `_value` tokens for `_to` and lock for `_lock_duration`"
      },
      "delegate(address)": {
        "notice": "Delegate votes from `msg.sender` to `delegatee`"
      },
      "delegates(address)": {
        "notice": "Overrides the standard `Comp.sol` delegates mapping to return the delegator's own address if they haven't delegated. This avoids having to delegate to oneself."
      },
      "deposit_for(uint256,uint256)": {
        "notice": "Deposit `_value` tokens for `_tokenId` and add to the lock"
      },
      "getVotes(address)": {
        "notice": "Gets the current votes balance for `account`"
      },
      "get_last_user_slope(uint256)": {
        "notice": "Get the most recently recorded rate of voting power decrease for `_tokenId`"
      },
      "increase_amount(uint256,uint256)": {
        "notice": "Deposit `_value` additional tokens for `_tokenId` without modifying the unlock time"
      },
      "increase_unlock_time(uint256,uint256)": {
        "notice": "Extend the unlock time for `_tokenId`"
      },
      "locked__end(uint256)": {
        "notice": "Get timestamp when `_tokenId`'s lock finishes"
      },
      "nonces(address)": {
        "notice": "A record of states for signing / validating signatures"
      },
      "numCheckpoints(address)": {
        "notice": "The number of checkpoints for each account"
      },
      "setApprovalForAll(address,bool)": {
        "notice": "This works even if sender doesn't own any tokens at the time."
      },
      "totalSupplyAt(uint256)": {
        "notice": "Calculate total voting power at some point in the past"
      },
      "totalSupplyAtT(uint256)": {
        "notice": "Calculate total voting power"
      },
      "transferFrom(address,address,uint256)": {
        "notice": "The caller is responsible to confirm that `_to` is capable of receiving NFTs or else        they maybe be permanently lost."
      },
      "user_point_history__ts(uint256,uint256)": {
        "notice": "Get the timestamp for checkpoint `_idx` for `_tokenId`"
      },
      "withdraw(uint256)": {
        "notice": "Withdraw all tokens for `_tokenId`"
      }
    },
    "notice": "veNFT implementation that escrows ERC-20 tokens in the form of an ERC-721 NFTVotes have a weight depending on time, so that users are committed to the future of (whatever they are voting for)",
    "version": 1
  },
  "storageLayout": {
    "storage": [
      {
        "astId": 16307,
        "contract": "contracts/VotingEscrow.sol:VotingEscrow",
        "label": "voter",
        "offset": 0,
        "slot": "0",
        "type": "t_address"
      },
      {
        "astId": 16309,
        "contract": "contracts/VotingEscrow.sol:VotingEscrow",
        "label": "team",
        "offset": 0,
        "slot": "1",
        "type": "t_address"
      },
      {
        "astId": 16311,
        "contract": "contracts/VotingEscrow.sol:VotingEscrow",
        "label": "artProxy",
        "offset": 0,
        "slot": "2",
        "type": "t_address"
      },
      {
        "astId": 16316,
        "contract": "contracts/VotingEscrow.sol:VotingEscrow",
        "label": "point_history",
        "offset": 0,
        "slot": "3",
        "type": "t_mapping(t_uint256,t_struct(Point)16266_storage)"
      },
      {
        "astId": 16321,
        "contract": "contracts/VotingEscrow.sol:VotingEscrow",
        "label": "supportedInterfaces",
        "offset": 0,
        "slot": "4",
        "type": "t_mapping(t_bytes4,t_bool)"
      },
      {
        "astId": 16336,
        "contract": "contracts/VotingEscrow.sol:VotingEscrow",
        "label": "tokenId",
        "offset": 0,
        "slot": "5",
        "type": "t_uint256"
      },
      {
        "astId": 16431,
        "contract": "contracts/VotingEscrow.sol:VotingEscrow",
        "label": "_entered_state",
        "offset": 0,
        "slot": "6",
        "type": "t_uint8"
      },
      {
        "astId": 16550,
        "contract": "contracts/VotingEscrow.sol:VotingEscrow",
        "label": "idToOwner",
        "offset": 0,
        "slot": "7",
        "type": "t_mapping(t_uint256,t_address)"
      },
      {
        "astId": 16555,
        "contract": "contracts/VotingEscrow.sol:VotingEscrow",
        "label": "ownerToNFTokenCount",
        "offset": 0,
        "slot": "8",
        "type": "t_mapping(t_address,t_uint256)"
      },
      {
        "astId": 16599,
        "contract": "contracts/VotingEscrow.sol:VotingEscrow",
        "label": "idToApprovals",
        "offset": 0,
        "slot": "9",
        "type": "t_mapping(t_uint256,t_address)"
      },
      {
        "astId": 16606,
        "contract": "contracts/VotingEscrow.sol:VotingEscrow",
        "label": "ownerToOperators",
        "offset": 0,
        "slot": "10",
        "type": "t_mapping(t_address,t_mapping(t_address,t_bool))"
      },
      {
        "astId": 16610,
        "contract": "contracts/VotingEscrow.sol:VotingEscrow",
        "label": "ownership_change",
        "offset": 0,
        "slot": "11",
        "type": "t_mapping(t_uint256,t_uint256)"
      },
      {
        "astId": 17055,
        "contract": "contracts/VotingEscrow.sol:VotingEscrow",
        "label": "ownerToNFTokenIdList",
        "offset": 0,
        "slot": "12",
        "type": "t_mapping(t_address,t_mapping(t_uint256,t_uint256))"
      },
      {
        "astId": 17060,
        "contract": "contracts/VotingEscrow.sol:VotingEscrow",
        "label": "tokenToOwnerIndex",
        "offset": 0,
        "slot": "13",
        "type": "t_mapping(t_uint256,t_uint256)"
      },
      {
        "astId": 17365,
        "contract": "contracts/VotingEscrow.sol:VotingEscrow",
        "label": "user_point_epoch",
        "offset": 0,
        "slot": "14",
        "type": "t_mapping(t_uint256,t_uint256)"
      },
      {
        "astId": 17372,
        "contract": "contracts/VotingEscrow.sol:VotingEscrow",
        "label": "user_point_history",
        "offset": 0,
        "slot": "15",
        "type": "t_mapping(t_uint256,t_array(t_struct(Point)16266_storage)1000000000_storage)"
      },
      {
        "astId": 17377,
        "contract": "contracts/VotingEscrow.sol:VotingEscrow",
        "label": "locked",
        "offset": 0,
        "slot": "16",
        "type": "t_mapping(t_uint256,t_struct(LockedBalance)16257_storage)"
      },
      {
        "astId": 17379,
        "contract": "contracts/VotingEscrow.sol:VotingEscrow",
        "label": "epoch",
        "offset": 0,
        "slot": "17",
        "type": "t_uint256"
      },
      {
        "astId": 17383,
        "contract": "contracts/VotingEscrow.sol:VotingEscrow",
        "label": "slope_changes",
        "offset": 0,
        "slot": "18",
        "type": "t_mapping(t_uint256,t_int128)"
      },
      {
        "astId": 17385,
        "contract": "contracts/VotingEscrow.sol:VotingEscrow",
        "label": "supply",
        "offset": 0,
        "slot": "19",
        "type": "t_uint256"
      },
      {
        "astId": 19256,
        "contract": "contracts/VotingEscrow.sol:VotingEscrow",
        "label": "attachments",
        "offset": 0,
        "slot": "20",
        "type": "t_mapping(t_uint256,t_uint256)"
      },
      {
        "astId": 19260,
        "contract": "contracts/VotingEscrow.sol:VotingEscrow",
        "label": "voted",
        "offset": 0,
        "slot": "21",
        "type": "t_mapping(t_uint256,t_bool)"
      },
      {
        "astId": 19491,
        "contract": "contracts/VotingEscrow.sol:VotingEscrow",
        "label": "_delegates",
        "offset": 0,
        "slot": "22",
        "type": "t_mapping(t_address,t_address)"
      },
      {
        "astId": 19502,
        "contract": "contracts/VotingEscrow.sol:VotingEscrow",
        "label": "checkpoints",
        "offset": 0,
        "slot": "23",
        "type": "t_mapping(t_address,t_mapping(t_uint32,t_struct(Checkpoint)16272_storage))"
      },
      {
        "astId": 19507,
        "contract": "contracts/VotingEscrow.sol:VotingEscrow",
        "label": "numCheckpoints",
        "offset": 0,
        "slot": "24",
        "type": "t_mapping(t_address,t_uint32)"
      },
      {
        "astId": 19512,
        "contract": "contracts/VotingEscrow.sol:VotingEscrow",
        "label": "nonces",
        "offset": 0,
        "slot": "25",
        "type": "t_mapping(t_address,t_uint256)"
      }
    ],
    "types": {
      "t_address": {
        "encoding": "inplace",
        "label": "address",
        "numberOfBytes": "20"
      },
      "t_array(t_struct(Point)16266_storage)1000000000_storage": {
        "base": "t_struct(Point)16266_storage",
        "encoding": "inplace",
        "label": "struct VotingEscrow.Point[1000000000]",
        "numberOfBytes": "96000000000"
      },
      "t_array(t_uint256)dyn_storage": {
        "base": "t_uint256",
        "encoding": "dynamic_array",
        "label": "uint256[]",
        "numberOfBytes": "32"
      },
      "t_bool": {
        "encoding": "inplace",
        "label": "bool",
        "numberOfBytes": "1"
      },
      "t_bytes4": {
        "encoding": "inplace",
        "label": "bytes4",
        "numberOfBytes": "4"
      },
      "t_int128": {
        "encoding": "inplace",
        "label": "int128",
        "numberOfBytes": "16"
      },
      "t_mapping(t_address,t_address)": {
        "encoding": "mapping",
        "key": "t_address",
        "label": "mapping(address => address)",
        "numberOfBytes": "32",
        "value": "t_address"
      },
      "t_mapping(t_address,t_bool)": {
        "encoding": "mapping",
        "key": "t_address",
        "label": "mapping(address => bool)",
        "numberOfBytes": "32",
        "value": "t_bool"
      },
      "t_mapping(t_address,t_mapping(t_address,t_bool))": {
        "encoding": "mapping",
        "key": "t_address",
        "label": "mapping(address => mapping(address => bool))",
        "numberOfBytes": "32",
        "value": "t_mapping(t_address,t_bool)"
      },
      "t_mapping(t_address,t_mapping(t_uint256,t_uint256))": {
        "encoding": "mapping",
        "key": "t_address",
        "label": "mapping(address => mapping(uint256 => uint256))",
        "numberOfBytes": "32",
        "value": "t_mapping(t_uint256,t_uint256)"
      },
      "t_mapping(t_address,t_mapping(t_uint32,t_struct(Checkpoint)16272_storage))": {
        "encoding": "mapping",
        "key": "t_address",
        "label": "mapping(address => mapping(uint32 => struct VotingEscrow.Checkpoint))",
        "numberOfBytes": "32",
        "value": "t_mapping(t_uint32,t_struct(Checkpoint)16272_storage)"
      },
      "t_mapping(t_address,t_uint256)": {
        "encoding": "mapping",
        "key": "t_address",
        "label": "mapping(address => uint256)",
        "numberOfBytes": "32",
        "value": "t_uint256"
      },
      "t_mapping(t_address,t_uint32)": {
        "encoding": "mapping",
        "key": "t_address",
        "label": "mapping(address => uint32)",
        "numberOfBytes": "32",
        "value": "t_uint32"
      },
      "t_mapping(t_bytes4,t_bool)": {
        "encoding": "mapping",
        "key": "t_bytes4",
        "label": "mapping(bytes4 => bool)",
        "numberOfBytes": "32",
        "value": "t_bool"
      },
      "t_mapping(t_uint256,t_address)": {
        "encoding": "mapping",
        "key": "t_uint256",
        "label": "mapping(uint256 => address)",
        "numberOfBytes": "32",
        "value": "t_address"
      },
      "t_mapping(t_uint256,t_array(t_struct(Point)16266_storage)1000000000_storage)": {
        "encoding": "mapping",
        "key": "t_uint256",
        "label": "mapping(uint256 => struct VotingEscrow.Point[1000000000])",
        "numberOfBytes": "32",
        "value": "t_array(t_struct(Point)16266_storage)1000000000_storage"
      },
      "t_mapping(t_uint256,t_bool)": {
        "encoding": "mapping",
        "key": "t_uint256",
        "label": "mapping(uint256 => bool)",
        "numberOfBytes": "32",
        "value": "t_bool"
      },
      "t_mapping(t_uint256,t_int128)": {
        "encoding": "mapping",
        "key": "t_uint256",
        "label": "mapping(uint256 => int128)",
        "numberOfBytes": "32",
        "value": "t_int128"
      },
      "t_mapping(t_uint256,t_struct(LockedBalance)16257_storage)": {
        "encoding": "mapping",
        "key": "t_uint256",
        "label": "mapping(uint256 => struct VotingEscrow.LockedBalance)",
        "numberOfBytes": "32",
        "value": "t_struct(LockedBalance)16257_storage"
      },
      "t_mapping(t_uint256,t_struct(Point)16266_storage)": {
        "encoding": "mapping",
        "key": "t_uint256",
        "label": "mapping(uint256 => struct VotingEscrow.Point)",
        "numberOfBytes": "32",
        "value": "t_struct(Point)16266_storage"
      },
      "t_mapping(t_uint256,t_uint256)": {
        "encoding": "mapping",
        "key": "t_uint256",
        "label": "mapping(uint256 => uint256)",
        "numberOfBytes": "32",
        "value": "t_uint256"
      },
      "t_mapping(t_uint32,t_struct(Checkpoint)16272_storage)": {
        "encoding": "mapping",
        "key": "t_uint32",
        "label": "mapping(uint32 => struct VotingEscrow.Checkpoint)",
        "numberOfBytes": "32",
        "value": "t_struct(Checkpoint)16272_storage"
      },
      "t_struct(Checkpoint)16272_storage": {
        "encoding": "inplace",
        "label": "struct VotingEscrow.Checkpoint",
        "members": [
          {
            "astId": 16268,
            "contract": "contracts/VotingEscrow.sol:VotingEscrow",
            "label": "timestamp",
            "offset": 0,
            "slot": "0",
            "type": "t_uint256"
          },
          {
            "astId": 16271,
            "contract": "contracts/VotingEscrow.sol:VotingEscrow",
            "label": "tokenIds",
            "offset": 0,
            "slot": "1",
            "type": "t_array(t_uint256)dyn_storage"
          }
        ],
        "numberOfBytes": "64"
      },
      "t_struct(LockedBalance)16257_storage": {
        "encoding": "inplace",
        "label": "struct VotingEscrow.LockedBalance",
        "members": [
          {
            "astId": 16254,
            "contract": "contracts/VotingEscrow.sol:VotingEscrow",
            "label": "amount",
            "offset": 0,
            "slot": "0",
            "type": "t_int128"
          },
          {
            "astId": 16256,
            "contract": "contracts/VotingEscrow.sol:VotingEscrow",
            "label": "end",
            "offset": 0,
            "slot": "1",
            "type": "t_uint256"
          }
        ],
        "numberOfBytes": "64"
      },
      "t_struct(Point)16266_storage": {
        "encoding": "inplace",
        "label": "struct VotingEscrow.Point",
        "members": [
          {
            "astId": 16259,
            "contract": "contracts/VotingEscrow.sol:VotingEscrow",
            "label": "bias",
            "offset": 0,
            "slot": "0",
            "type": "t_int128"
          },
          {
            "astId": 16261,
            "contract": "contracts/VotingEscrow.sol:VotingEscrow",
            "label": "slope",
            "offset": 16,
            "slot": "0",
            "type": "t_int128"
          },
          {
            "astId": 16263,
            "contract": "contracts/VotingEscrow.sol:VotingEscrow",
            "label": "ts",
            "offset": 0,
            "slot": "1",
            "type": "t_uint256"
          },
          {
            "astId": 16265,
            "contract": "contracts/VotingEscrow.sol:VotingEscrow",
            "label": "blk",
            "offset": 0,
            "slot": "2",
            "type": "t_uint256"
          }
        ],
        "numberOfBytes": "96"
      },
      "t_uint256": {
        "encoding": "inplace",
        "label": "uint256",
        "numberOfBytes": "32"
      },
      "t_uint32": {
        "encoding": "inplace",
        "label": "uint32",
        "numberOfBytes": "4"
      },
      "t_uint8": {
        "encoding": "inplace",
        "label": "uint8",
        "numberOfBytes": "1"
      }
    }
  }
}