{
  "address": "0xF80Fec4EcB1AD4b619789C6eF564a211508b5A14",
  "abi": [
    {
      "inputs": [],
      "stateMutability": "nonpayable",
      "type": "constructor"
    },
    {
      "anonymous": false,
      "inputs": [
        {
          "indexed": true,
          "internalType": "address",
          "name": "token0",
          "type": "address"
        },
        {
          "indexed": true,
          "internalType": "address",
          "name": "token1",
          "type": "address"
        },
        {
          "indexed": false,
          "internalType": "bool",
          "name": "stable",
          "type": "bool"
        },
        {
          "indexed": false,
          "internalType": "address",
          "name": "pair",
          "type": "address"
        },
        {
          "indexed": false,
          "internalType": "uint256",
          "name": "",
          "type": "uint256"
        }
      ],
      "name": "PairCreated",
      "type": "event"
    },
    {
      "inputs": [],
      "name": "MAX_FEE",
      "outputs": [
        {
          "internalType": "uint256",
          "name": "",
          "type": "uint256"
        }
      ],
      "stateMutability": "view",
      "type": "function"
    },
    {
      "inputs": [],
      "name": "acceptFeeManager",
      "outputs": [],
      "stateMutability": "nonpayable",
      "type": "function"
    },
    {
      "inputs": [],
      "name": "acceptPauser",
      "outputs": [],
      "stateMutability": "nonpayable",
      "type": "function"
    },
    {
      "inputs": [],
      "name": "acceptTank",
      "outputs": [],
      "stateMutability": "nonpayable",
      "type": "function"
    },
    {
      "inputs": [
        {
          "internalType": "uint256",
          "name": "",
          "type": "uint256"
        }
      ],
      "name": "allPairs",
      "outputs": [
        {
          "internalType": "address",
          "name": "",
          "type": "address"
        }
      ],
      "stateMutability": "view",
      "type": "function"
    },
    {
      "inputs": [],
      "name": "allPairsLength",
      "outputs": [
        {
          "internalType": "uint256",
          "name": "",
          "type": "uint256"
        }
      ],
      "stateMutability": "view",
      "type": "function"
    },
    {
      "inputs": [
        {
          "internalType": "address",
          "name": "tokenA",
          "type": "address"
        },
        {
          "internalType": "address",
          "name": "tokenB",
          "type": "address"
        },
        {
          "internalType": "bool",
          "name": "stable",
          "type": "bool"
        }
      ],
      "name": "createPair",
      "outputs": [
        {
          "internalType": "address",
          "name": "pair",
          "type": "address"
        }
      ],
      "stateMutability": "nonpayable",
      "type": "function"
    },
    {
      "inputs": [],
      "name": "deployer",
      "outputs": [
        {
          "internalType": "address",
          "name": "",
          "type": "address"
        }
      ],
      "stateMutability": "view",
      "type": "function"
    },
    {
      "inputs": [],
      "name": "feeManager",
      "outputs": [
        {
          "internalType": "address",
          "name": "",
          "type": "address"
        }
      ],
      "stateMutability": "view",
      "type": "function"
    },
    {
      "inputs": [
        {
          "internalType": "bool",
          "name": "_stable",
          "type": "bool"
        }
      ],
      "name": "getFee",
      "outputs": [
        {
          "internalType": "uint256",
          "name": "",
          "type": "uint256"
        }
      ],
      "stateMutability": "view",
      "type": "function"
    },
    {
      "inputs": [],
      "name": "getInitializable",
      "outputs": [
        {
          "internalType": "address",
          "name": "",
          "type": "address"
        },
        {
          "internalType": "address",
          "name": "",
          "type": "address"
        },
        {
          "internalType": "bool",
          "name": "",
          "type": "bool"
        }
      ],
      "stateMutability": "view",
      "type": "function"
    },
    {
      "inputs": [
        {
          "internalType": "address",
          "name": "",
          "type": "address"
        },
        {
          "internalType": "address",
          "name": "",
          "type": "address"
        },
        {
          "internalType": "bool",
          "name": "",
          "type": "bool"
        }
      ],
      "name": "getPair",
      "outputs": [
        {
          "internalType": "address",
          "name": "",
          "type": "address"
        }
      ],
      "stateMutability": "view",
      "type": "function"
    },
    {
      "inputs": [],
      "name": "getVoter",
      "outputs": [
        {
          "internalType": "address",
          "name": "",
          "type": "address"
        }
      ],
      "stateMutability": "view",
      "type": "function"
    },
    {
      "inputs": [
        {
          "internalType": "address",
          "name": "",
          "type": "address"
        }
      ],
      "name": "isPair",
      "outputs": [
        {
          "internalType": "bool",
          "name": "",
          "type": "bool"
        }
      ],
      "stateMutability": "view",
      "type": "function"
    },
    {
      "inputs": [],
      "name": "isPaused",
      "outputs": [
        {
          "internalType": "bool",
          "name": "",
          "type": "bool"
        }
      ],
      "stateMutability": "view",
      "type": "function"
    },
    {
      "inputs": [],
      "name": "pairCodeHash",
      "outputs": [
        {
          "internalType": "bytes32",
          "name": "",
          "type": "bytes32"
        }
      ],
      "stateMutability": "pure",
      "type": "function"
    },
    {
      "inputs": [],
      "name": "pauser",
      "outputs": [
        {
          "internalType": "address",
          "name": "",
          "type": "address"
        }
      ],
      "stateMutability": "view",
      "type": "function"
    },
    {
      "inputs": [],
      "name": "pendingFeeManager",
      "outputs": [
        {
          "internalType": "address",
          "name": "",
          "type": "address"
        }
      ],
      "stateMutability": "view",
      "type": "function"
    },
    {
      "inputs": [],
      "name": "pendingPauser",
      "outputs": [
        {
          "internalType": "address",
          "name": "",
          "type": "address"
        }
      ],
      "stateMutability": "view",
      "type": "function"
    },
    {
      "inputs": [],
      "name": "pendingTank",
      "outputs": [
        {
          "internalType": "address",
          "name": "",
          "type": "address"
        }
      ],
      "stateMutability": "view",
      "type": "function"
    },
    {
      "inputs": [
        {
          "internalType": "bool",
          "name": "_stable",
          "type": "bool"
        },
        {
          "internalType": "uint256",
          "name": "_fee",
          "type": "uint256"
        }
      ],
      "name": "setFee",
      "outputs": [],
      "stateMutability": "nonpayable",
      "type": "function"
    },
    {
      "inputs": [
        {
          "internalType": "address",
          "name": "_feeManager",
          "type": "address"
        }
      ],
      "name": "setFeeManager",
      "outputs": [],
      "stateMutability": "nonpayable",
      "type": "function"
    },
    {
      "inputs": [
        {
          "internalType": "bool",
          "name": "_state",
          "type": "bool"
        }
      ],
      "name": "setPause",
      "outputs": [],
      "stateMutability": "nonpayable",
      "type": "function"
    },
    {
      "inputs": [
        {
          "internalType": "address",
          "name": "_pauser",
          "type": "address"
        }
      ],
      "name": "setPauser",
      "outputs": [],
      "stateMutability": "nonpayable",
      "type": "function"
    },
    {
      "inputs": [
        {
          "internalType": "address",
          "name": "_tank",
          "type": "address"
        }
      ],
      "name": "setTank",
      "outputs": [],
      "stateMutability": "nonpayable",
      "type": "function"
    },
    {
      "inputs": [
        {
          "internalType": "address",
          "name": "_team",
          "type": "address"
        }
      ],
      "name": "setTeam",
      "outputs": [],
      "stateMutability": "nonpayable",
      "type": "function"
    },
    {
      "inputs": [
        {
          "internalType": "address",
          "name": "_voter",
          "type": "address"
        }
      ],
      "name": "setVoter",
      "outputs": [],
      "stateMutability": "nonpayable",
      "type": "function"
    },
    {
      "inputs": [],
      "name": "stableFee",
      "outputs": [
        {
          "internalType": "uint256",
          "name": "",
          "type": "uint256"
        }
      ],
      "stateMutability": "view",
      "type": "function"
    },
    {
      "inputs": [],
      "name": "tank",
      "outputs": [
        {
          "internalType": "address",
          "name": "",
          "type": "address"
        }
      ],
      "stateMutability": "view",
      "type": "function"
    },
    {
      "inputs": [],
      "name": "team",
      "outputs": [
        {
          "internalType": "address",
          "name": "",
          "type": "address"
        }
      ],
      "stateMutability": "view",
      "type": "function"
    },
    {
      "inputs": [],
      "name": "volatileFee",
      "outputs": [
        {
          "internalType": "uint256",
          "name": "",
          "type": "uint256"
        }
      ],
      "stateMutability": "view",
      "type": "function"
    },
    {
      "inputs": [],
      "name": "voter",
      "outputs": [
        {
          "internalType": "address",
          "name": "",
          "type": "address"
        }
      ],
      "stateMutability": "view",
      "type": "function"
    }
  ],
  "transactionHash": "0x882af07c2f253e6a4d493bfa3939f44ec94b29f0c81a8318229f4b2e05fe01c6",
  "args": [],
  "numDeployments": 1,
  "solcInputHash": "1386825a358bf0080ec3861c091220d5",
  "bytecode": "0x608060405234801561001057600080fd5b50600080546001600160a81b03191633610100810260ff1916919091178255600480546001600160a01b031990811683179091556003600281905560199055600a805490911690911790556159ff90819061006b90396000f3fe60806040523480156200001157600080fd5b5060043610620002195760003560e01c80638a4fa0d21162000125578063bedb86fb11620000af578063e1f76b44116200007a578063e1f76b4414620004a2578063e5e31b1314620004b9578063eb13c4cf14620004df578063f94c53c7146200051857600080fd5b8063bedb86fb1462000459578063d001e1ea1462000470578063d0fb0203146200047a578063d5f39488146200048e57600080fd5b8063ad8c3cd211620000f0578063ad8c3cd21462000406578063b187bd26146200041d578063b7f01bfc146200043c578063bc063e1a146200045057600080fd5b80638a4fa0d214620003bb5780639a7165e414620003cf5780639aab924814620003e35780639fd0506d14620003ed57600080fd5b80634bc2a65711620001a7578063574f2ba31162000172578063574f2ba3146200034a5780636801cc30146200035357806382dfdce4146200039057806385f2aef214620003a757600080fd5b80634bc2a65714620002e25780635084ed031462000315578063512b45ea146200031f5780635600bbcf146200033657600080fd5b80632d88af4a11620001e85780632d88af4a146200028757806340bbd775146200029e57806346c96aac14620002b7578063472d35b914620002cb57600080fd5b8063095cf5c6146200021e578063167a6f9014620002375780631e3dd18b14620002415780632b37f53c1462000275575b600080fd5b620002356200022f36600462000c85565b62000522565b005b62000235620005bb565b620002586200025236600462000caa565b620005fe565b6040516001600160a01b0390911681526020015b60405180910390f35b6006546001600160a01b031662000258565b620002356200029836600462000c85565b62000629565b620002a860025481565b6040519081526020016200026c565b60065462000258906001600160a01b031681565b62000235620002dc36600462000c85565b62000668565b62000235620002f336600462000c85565b600680546001600160a01b0319166001600160a01b0392909216919091179055565b620002a860035481565b620002a86200033036600462000cd5565b620006d8565b60085462000258906001600160a01b031681565b600c54620002a8565b620002586200036436600462000cf3565b600b6020908152600093845260408085208252928452828420905282529020546001600160a01b031681565b62000258620003a136600462000cf3565b620006f3565b60075462000258906001600160a01b031681565b60055462000258906001600160a01b031681565b60015462000258906001600160a01b031681565b620002a8620009de565b600054620002589061010090046001600160a01b031681565b620002356200041736600462000c85565b62000a12565b6000546200042b9060ff1681565b60405190151581526020016200026c565b60095462000258906001600160a01b031681565b620002a8603281565b620002356200046a36600462000cd5565b62000a4c565b6200023562000a7c565b60045462000258906001600160a01b031681565b600a5462000258906001600160a01b031681565b62000235620004b336600462000d3d565b62000aef565b6200042b620004ca36600462000c85565b600d6020526000908152604090205460ff1681565b600e54600f54604080516001600160a01b0393841681529282166020840152600160a01b90910460ff161515908201526060016200026c565b6200023562000bda565b600a546001600160a01b031633146200053a57600080fd5b6007546001600160a01b031615620005995760405162461bcd60e51b815260206004820152601e60248201527f546865207465616d2068617320616c7265616479206265656e207365742e000060448201526064015b60405180910390fd5b600780546001600160a01b0319166001600160a01b0392909216919091179055565b6001546001600160a01b03163314620005d357600080fd5b600154600080546001600160a01b0390921661010002610100600160a81b0319909216919091179055565b600c81815481106200060f57600080fd5b6000918252602090912001546001600160a01b0316905081565b60005461010090046001600160a01b031633146200064657600080fd5b600180546001600160a01b0319166001600160a01b0392909216919091179055565b6004546001600160a01b03163314620006b65760405162461bcd60e51b815260206004820152600f60248201526e3737ba103332b29036b0b730b3b2b960891b604482015260640162000590565b600580546001600160a01b0319166001600160a01b0392909216919091179055565b600081620006e957600354620006ed565b6002545b92915050565b6000826001600160a01b0316846001600160a01b0316036200073d5760405162461bcd60e51b8152602060048201526002602482015261494160f01b604482015260640162000590565b600080846001600160a01b0316866001600160a01b0316106200076257848662000765565b85855b90925090506001600160a01b038216620007a75760405162461bcd60e51b81526020600482015260026024820152615a4160f01b604482015260640162000590565b6001600160a01b038281166000908152600b6020908152604080832085851684528252808320881515845290915290205416156200080d5760405162461bcd60e51b8152602060048201526002602482015261504560f01b604482015260640162000590565b6040516bffffffffffffffffffffffff19606084811b8216602084015283901b16603482015284151560f81b604882015260009060490160408051601f19818403018152908290528051602090910120600f80546001600160a01b038087166001600160a01b03198b1515600160a01b0281166001600160a81b03199094169390931717909255600e80549288169290911691909117905591508190620008b49062000c5a565b8190604051809103906000f5905080158015620008d5573d6000803e3d6000fd5b506001600160a01b038481166000818152600b602081815260408084208987168086529083528185208d15158087529084528286208054988a166001600160a01b0319998a168117909155828752948452828620878752845282862081875284528286208054891686179055600c8054600181810183557fdf6966c971051c3d54ec59162606531493a51404a002842f56009d7e5cf4a8c79091018054909a168717909955858752600d855295839020805460ff1916909817909755935481519687529186019290925290840152929650907fc4805696c66d7cf352fc1d6bb633ad5ee82f6cb577c453024b6e0eb8306c6fc99060600160405180910390a35050509392505050565b600060405180602001620009f29062000c5a565b6020820181038252601f19601f8201166040525080519060200120905090565b600a546001600160a01b0316331462000a2a57600080fd5b600880546001600160a01b0319166001600160a01b0392909216919091179055565b60005461010090046001600160a01b0316331462000a6957600080fd5b6000805460ff1916911515919091179055565b6007546001600160a01b0316331462000acb5760405162461bcd60e51b815260206004820152601060248201526f6e6f742070656e64696e67207465616d60801b604482015260640162000590565b600854600980546001600160a01b0319166001600160a01b03909216919091179055565b6004546001600160a01b0316331462000b3d5760405162461bcd60e51b815260206004820152600f60248201526e3737ba103332b29036b0b730b3b2b960891b604482015260640162000590565b603281111562000b7f5760405162461bcd60e51b815260206004820152600c60248201526b0cccaca40e8dede40d0d2ced60a31b604482015260640162000590565b8060000362000bc75760405162461bcd60e51b8152602060048201526013602482015272666565206d757374206265206e6f6e7a65726f60681b604482015260640162000590565b811562000bd45760025550565b60035550565b6005546001600160a01b0316331462000c365760405162461bcd60e51b815260206004820152601760248201527f6e6f742070656e64696e6720666565206d616e61676572000000000000000000604482015260640162000590565b600554600480546001600160a01b0319166001600160a01b03909216919091179055565b614c5f8062000d6b83390190565b80356001600160a01b038116811462000c8057600080fd5b919050565b60006020828403121562000c9857600080fd5b62000ca38262000c68565b9392505050565b60006020828403121562000cbd57600080fd5b5035919050565b8035801515811462000c8057600080fd5b60006020828403121562000ce857600080fd5b62000ca38262000cc4565b60008060006060848603121562000d0957600080fd5b62000d148462000c68565b925062000d246020850162000c68565b915062000d346040850162000cc4565b90509250925092565b6000806040838503121562000d5157600080fd5b62000d5c8362000cc4565b94602093909301359350505056fe61016060405260006002556000601055600060115560016016553480156200002657600080fd5b50336001600160a01b0316610100816001600160a01b0316815250506000806000336001600160a01b031663eb13c4cf6040518163ffffffff1660e01b8152600401606060405180830381865afa15801562000086573d6000803e3d6000fd5b505050506040513d601f19601f82011682018060405250810190620000ac9190620007c8565b8015156080526001600160a01b0380831660c052831660a052604051929550909350915083908390620000df90620006f7565b6001600160a01b03928316815291166020820152604001604051809103906000f08015801562000113573d6000803e3d6000fd5b506001600160a01b031660e05280156200034557826001600160a01b03166395d89b416040518163ffffffff1660e01b8152600401600060405180830381865afa15801562000166573d6000803e3d6000fd5b505050506040513d6000823e601f3d908101601f1916820160405262000190919081019062000863565b826001600160a01b03166395d89b416040518163ffffffff1660e01b8152600401600060405180830381865afa158015620001cf573d6000803e3d6000fd5b505050506040513d6000823e601f3d908101601f19168201604052620001f9919081019062000863565b6040516020016200020c9291906200091b565b604051602081830303815290604052600090805190602001906200023292919062000705565b50826001600160a01b03166395d89b416040518163ffffffff1660e01b8152600401600060405180830381865afa15801562000272573d6000803e3d6000fd5b505050506040513d6000823e601f3d908101601f191682016040526200029c919081019062000863565b826001600160a01b03166395d89b416040518163ffffffff1660e01b8152600401600060405180830381865afa158015620002db573d6000803e3d6000fd5b505050506040513d6000823e601f3d908101601f1916820160405262000305919081019062000863565b6040516020016200031892919062000976565b604051602081830303815290604052600190805190602001906200033e92919062000705565b506200055e565b826001600160a01b03166395d89b416040518163ffffffff1660e01b8152600401600060405180830381865afa15801562000384573d6000803e3d6000fd5b505050506040513d6000823e601f3d908101601f19168201604052620003ae919081019062000863565b826001600160a01b03166395d89b416040518163ffffffff1660e01b8152600401600060405180830381865afa158015620003ed573d6000803e3d6000fd5b505050506040513d6000823e601f3d908101601f1916820160405262000417919081019062000863565b6040516020016200042a929190620009c7565b604051602081830303815290604052600090805190602001906200045092919062000705565b50826001600160a01b03166395d89b416040518163ffffffff1660e01b8152600401600060405180830381865afa15801562000490573d6000803e3d6000fd5b505050506040513d6000823e601f3d908101601f19168201604052620004ba919081019062000863565b826001600160a01b03166395d89b416040518163ffffffff1660e01b8152600401600060405180830381865afa158015620004f9573d6000803e3d6000fd5b505050506040513d6000823e601f3d908101601f1916820160405262000523919081019062000863565b6040516020016200053692919062000a24565b604051602081830303815290604052600190805190602001906200055c92919062000705565b505b826001600160a01b031663313ce5676040518163ffffffff1660e01b8152600401602060405180830381865afa1580156200059d573d6000803e3d6000fd5b505050506040513d601f19601f82011682018060405250810190620005c3919062000a46565b620005d090600a62000b87565b6101208181525050816001600160a01b031663313ce5676040518163ffffffff1660e01b8152600401602060405180830381865afa15801562000617573d6000803e3d6000fd5b505050506040513d601f19601f820116820180604052508101906200063d919062000a46565b6200064a90600a62000b87565b61014052505060408051606081018252428152600060208201818152928201818152600a8054600181018255925291517fc65a7bb8d6351c1cf70c95a316cc6a92839c986682d98bc35f958f4883f9d2a860039092029182015591517fc65a7bb8d6351c1cf70c95a316cc6a92839c986682d98bc35f958f4883f9d2a9830155517fc65a7bb8d6351c1cf70c95a316cc6a92839c986682d98bc35f958f4883f9d2aa909101555062000bd4565b61037080620048ef83390190565b828054620007139062000b98565b90600052602060002090601f01602090048101928262000737576000855562000782565b82601f106200075257805160ff191683800117855562000782565b8280016001018555821562000782579182015b828111156200078257825182559160200191906001019062000765565b506200079092915062000794565b5090565b5b8082111562000790576000815560010162000795565b80516001600160a01b0381168114620007c357600080fd5b919050565b600080600060608486031215620007de57600080fd5b620007e984620007ab565b9250620007f960208501620007ab565b9150604084015180151581146200080f57600080fd5b809150509250925092565b634e487b7160e01b600052604160045260246000fd5b60005b838110156200084d57818101518382015260200162000833565b838111156200085d576000848401525b50505050565b6000602082840312156200087657600080fd5b81516001600160401b03808211156200088e57600080fd5b818401915084601f830112620008a357600080fd5b815181811115620008b857620008b86200081a565b604051601f8201601f19908116603f01168101908382118183101715620008e357620008e36200081a565b81604052828152876020848701011115620008fd57600080fd5b6200091083602083016020880162000830565b979650505050505050565b6e029ba30b13632ab189020a6a690169608d1b8152600083516200094781600f85016020880162000830565b602f60f81b600f9184019182015283516200096a81601084016020880162000830565b01601001949350505050565b6473414d4d2d60d81b8152600083516200099881600585016020880162000830565b602f60f81b6005918401918201528351620009bb81600684016020880162000830565b01600601949350505050565b7002b37b630ba34b632ab189020a6a690169607d1b815260008351620009f581601185016020880162000830565b602f60f81b601191840191820152835162000a1881601284016020880162000830565b01601201949350505050565b6476414d4d2d60d81b8152600083516200099881600585016020880162000830565b60006020828403121562000a5957600080fd5b815160ff8116811462000a6b57600080fd5b9392505050565b634e487b7160e01b600052601160045260246000fd5b600181815b8085111562000ac957816000190482111562000aad5762000aad62000a72565b8085161562000abb57918102915b93841c939080029062000a8d565b509250929050565b60008262000ae25750600162000b81565b8162000af15750600062000b81565b816001811462000b0a576002811462000b155762000b35565b600191505062000b81565b60ff84111562000b295762000b2962000a72565b50506001821b62000b81565b5060208310610133831016604e8410600b841016171562000b5a575081810a62000b81565b62000b66838362000a88565b806000190482111562000b7d5762000b7d62000a72565b0290505b92915050565b600062000a6b60ff84168362000ad1565b600181811c9082168062000bad57607f821691505b60208210810362000bce57634e487b7160e01b600052602260045260246000fd5b50919050565b60805160a05160c05160e051610100516101205161014051613b9a62000d556000396000818161050c0152818161294201528181612c2c01528181612cee0152612df90152600081816104e90152818161290101528181612bed01528181612d300152612dd301526000818161091f01528181610d6e01528181610e3f01526122db01526000818161071a0152611eef0152600081816105960152818161076f0152818161087b01528181610a5a01528181610d02015281816117840152818161196f01528181611d9601528181612438015281816127b801526128960152600081816103910152818161056e0152818161074a01528181610a3901528181610ce1015281816116ee0152818161194d01528181611d74015281816123b0015281816125cb015281816126a901528181612c6e01528181612cb501528181612d9a0152612e3d0152600081816104720152818161053e01528181610d3601528181610e07015281816122aa015281816128d90152612bb90152613b9a6000f3fe608060405234801561001057600080fd5b506004361061030c5760003560e01c806370a082311161019d578063b7f01bfc116100e9578063d21220a7116100a2578063dd62ed3e1161007c578063dd62ed3e146108b8578063ebeb31db146108e3578063f140a35a146108eb578063fff6cae9146108fe57600080fd5b8063d21220a714610876578063d294f0931461089d578063d505accf146108a557600080fd5b8063b7f01bfc1461082c578063bc25cf771461083f578063bda39cad14610852578063bf944dbc1461085b578063c245febc14610864578063c5700a021461086d57600080fd5b80639af1d35a116101565780639f767c88116101305780639f767c88146107ad578063a1ac4d13146107cd578063a9059cbb146107ed578063b22d8fe01461080057600080fd5b80639af1d35a146107155780639d63848a1461073c5780639e8cc04b1461079a57600080fd5b806370a08231146106675780637ecebe001461068757806389afcb44146106a75780638a7b8cf2146106cf57806391f36d65146106f957806395d89b411461070d57600080fd5b8063252c09d71161025c57806346c96aac11610215578063517b3f82116101ef578063517b3f82146106255780635881c475146106385780635a76f25e1461064b5780636a6278421461065457600080fd5b806346c96aac146105df5780634a0d56f9146105f25780634d5a9f8a1461060557600080fd5b8063252c09d7146104a7578063313ce567146104ba57806332c0defd146104d4578063392f37e9146104dd578063443cb4bc146105c357806345a1de79146105cc57600080fd5b80631610f543116102c95780631df8c717116102a35780631df8c71714610445578063205aabf11461044d57806322be3de11461046d57806323b872dd1461049457600080fd5b80631610f543146103eb57806318160ddd146103fe578063199995661461041557600080fd5b8063022c0d9f1461031157806306fdde03146103265780630902f1ac14610344578063095ea7b3146103695780630dfe16811461038c57806313345fe1146103cb575b600080fd5b61032461031f3660046135a3565b610906565b005b61032e611053565b60405161033b9190613669565b60405180910390f35b600b54600c54600d545b6040805193845260208401929092529082015260600161033b565b61037c61037736600461369c565b6110e1565b604051901515815260200161033b565b6103b37f000000000000000000000000000000000000000000000000000000000000000081565b6040516001600160a01b03909116815260200161033b565b6103de6103d93660046136c8565b61114e565b60405161033b9190613703565b6103b36103f9366004613747565b61134a565b61040760025481565b60405190815260200161033b565b610324610423366004613747565b600780546001600160a01b0319166001600160a01b0392909216919091179055565b61034e6113d1565b61040761045b366004613747565b60136020526000908152604090205481565b61037c7f000000000000000000000000000000000000000000000000000000000000000081565b61037c6104a2366004613764565b611440565b61034e6104b53660046137a5565b611509565b6104c2601281565b60405160ff909116815260200161033b565b61040760105481565b600b54600c54604080517f000000000000000000000000000000000000000000000000000000000000000081527f000000000000000000000000000000000000000000000000000000000000000060208201529081019290925260608201527f0000000000000000000000000000000000000000000000000000000000000000151560808201526001600160a01b037f0000000000000000000000000000000000000000000000000000000000000000811660a08301527f00000000000000000000000000000000000000000000000000000000000000001660c082015260e00161033b565b610407600b5481565b6007546103b3906001600160a01b031681565b6008546103b3906001600160a01b031681565b6103b3610600366004613747565b61153c565b610407610613366004613747565b60146020526000908152604090205481565b61040761063336600461369c565b6115c3565b6103de6106463660046137be565b6116ab565b610407600c5481565b610407610662366004613747565b6116ba565b610407610675366004613747565b60046020526000908152604090205481565b610407610695366004613747565b60066020526000908152604090205481565b6106ba6106b5366004613747565b61191b565b6040805192835260208301919091520161033b565b6106d7611c38565b604080518251815260208084015190820152918101519082015260600161033b565b60095461037c90600160a01b900460ff1681565b61032e611cb8565b6103b37f000000000000000000000000000000000000000000000000000000000000000081565b604080516001600160a01b037f0000000000000000000000000000000000000000000000000000000000000000811682527f00000000000000000000000000000000000000000000000000000000000000001660208201520161033b565b6104076107a83660046137be565b611cc5565b6104076107bb366004613747565b60126020526000908152604090205481565b6104076107db366004613747565b60156020526000908152604090205481565b61037c6107fb36600461369c565b611d32565b61032461080e366004613801565b60098054911515600160a01b0260ff60a01b19909216919091179055565b6009546103b3906001600160a01b031681565b61032461084d366004613747565b611d48565b61040760115481565b610407600e5481565b610407600f5481565b610407600d5481565b6103b37f000000000000000000000000000000000000000000000000000000000000000081565b6106ba611e66565b6103246108b336600461381e565b611f8d565b6104076108c6366004613895565b600360209081526000928352604080842090915290825290205481565b600a54610407565b6104076108f93660046138ce565b612295565b610324612383565b60165460011461091557600080fd5b60026016819055507f00000000000000000000000000000000000000000000000000000000000000006001600160a01b031663b187bd266040518163ffffffff1660e01b8152600401602060405180830381865afa15801561097b573d6000803e3d6000fd5b505050506040513d601f19601f8201168201806040525081019061099f91906138f3565b156109a957600080fd5b60008511806109b85750600084115b6109ef5760405162461bcd60e51b8152602060048201526003602482015262494f4160e81b60448201526064015b60405180910390fd5b600b54600c548187108015610a0357508086105b610a345760405162461bcd60e51b8152602060048201526002602482015261125360f21b60448201526064016109e6565b6000807f00000000000000000000000000000000000000000000000000000000000000007f00000000000000000000000000000000000000000000000000000000000000006001600160a01b0389811690831614801590610aa75750806001600160a01b0316896001600160a01b031614155b610ad85760405162461bcd60e51b8152602060048201526002602482015261125560f21b60448201526064016109e6565b8a15610ae957610ae9828a8d6124bd565b8915610afa57610afa818a8c6124bd565b8615610b6757604051639a7bff7960e01b81526001600160a01b038a1690639a7bff7990610b349033908f908f908e908e90600401613910565b600060405180830381600087803b158015610b4e57600080fd5b505af1158015610b62573d6000803e3d6000fd5b505050505b6040516370a0823160e01b81523060048201526001600160a01b038316906370a0823190602401602060405180830381865afa158015610bab573d6000803e3d6000fd5b505050506040513d601f19601f82011682018060405250810190610bcf919061395c565b6040516370a0823160e01b81523060048201529094506001600160a01b038216906370a0823190602401602060405180830381865afa158015610c16573d6000803e3d6000fd5b505050506040513d601f19601f82011682018060405250810190610c3a919061395c565b9250505060008985610c4c919061398b565b8311610c59576000610c6d565b610c638a8661398b565b610c6d908461398b565b90506000610c7b8a8661398b565b8311610c88576000610c9c565b610c928a8661398b565b610c9c908461398b565b90506000821180610cad5750600081115b610cdf5760405162461bcd60e51b815260206004820152600360248201526249494160e81b60448201526064016109e6565b7f00000000000000000000000000000000000000000000000000000000000000007f00000000000000000000000000000000000000000000000000000000000000008315610df257604051632895a2f560e11b81527f000000000000000000000000000000000000000000000000000000000000000015156004820152610df290612710906001600160a01b037f0000000000000000000000000000000000000000000000000000000000000000169063512b45ea90602401602060405180830381865afa158015610db5573d6000803e3d6000fd5b505050506040513d601f19601f82011682018060405250810190610dd9919061395c565b610de390876139a2565b610ded91906139d7565b6125ac565b8215610ec357604051632895a2f560e11b81527f000000000000000000000000000000000000000000000000000000000000000015156004820152610ec390612710906001600160a01b037f0000000000000000000000000000000000000000000000000000000000000000169063512b45ea90602401602060405180830381865afa158015610e86573d6000803e3d6000fd5b505050506040513d601f19601f82011682018060405250810190610eaa919061395c565b610eb490866139a2565b610ebe91906139d7565b612799565b6040516370a0823160e01b81523060048201526001600160a01b038316906370a0823190602401602060405180830381865afa158015610f07573d6000803e3d6000fd5b505050506040513d601f19601f82011682018060405250810190610f2b919061395c565b6040516370a0823160e01b81523060048201529096506001600160a01b038216906370a0823190602401602060405180830381865afa158015610f72573d6000803e3d6000fd5b505050506040513d601f19601f82011682018060405250810190610f96919061395c565b9450610fa288886128d5565b610fac87876128d5565b1015610fde5760405162461bcd60e51b81526020600482015260016024820152604b60f81b60448201526064016109e6565b5050610fec84848888612a21565b60408051838152602081018390529081018c9052606081018b90526001600160a01b038a169033907fd78ad95fa46c994b6551d0da85fc275fe613ce37657fb8d5e3d130840159d8229060800160405180910390a350506001601655505050505050505050565b60008054611060906139f9565b80601f016020809104026020016040519081016040528092919081815260200182805461108c906139f9565b80156110d95780601f106110ae576101008083540402835291602001916110d9565b820191906000526020600020905b8154815290600101906020018083116110bc57829003601f168201915b505050505081565b3360008181526003602090815260408083206001600160a01b038716808552925280832085905551919290917f8c5be1e5ebec7d5bd14f71427d1e84f3dd0314c0f7b2291e5b200ac8c7c3b9259061113c9086815260200190565b60405180910390a35060015b92915050565b606060008367ffffffffffffffff81111561116b5761116b613a33565b604051908082528060200260200182016040528015611194578160200160208202803683370190505b50600a549091506000906111aa9060019061398b565b905060006111b885876139a2565b6111c2908361398b565b90506000805b8383101561133a576111da8784613a49565b91506000600a84815481106111f1576111f1613a61565b906000526020600020906003020160000154600a848154811061121657611216613a61565b906000526020600020906003020160000154611232919061398b565b9050600081600a868154811061124a5761124a613a61565b906000526020600020906003020160010154600a868154811061126f5761126f613a61565b90600052602060002090600302016001015461128b919061398b565b61129591906139d7565b9050600082600a87815481106112ad576112ad613a61565b906000526020600020906003020160020154600a87815481106112d2576112d2613a61565b9060005260206000209060030201600201546112ee919061398b565b6112f891906139d7565b90506113068c8e8484612bb5565b88858151811061131857611318613a61565b60209081029190910101525050506001016113338784613a49565b92506111c8565b509293505050505b949350505050565b600080826001600160a01b03166346c96aac6040518163ffffffff1660e01b8152600401602060405180830381865afa15801561138b573d6000803e3d6000fd5b505050506040513d601f19601f820116820180604052508101906113af9190613a77565b600880546001600160a01b0319166001600160a01b0383161790559392505050565b600e54600f5442600080806113ef600b54600c54600d549192909190565b925092509250838114611438576000611408828661398b565b905061141481856139a2565b61141e9088613a49565b965061142a81846139a2565b6114349087613a49565b9550505b505050909192565b6001600160a01b03831660008181526003602090815260408083203380855292528220549192909190821480159061147a57506000198114155b156114f057600061148b858361398b565b6001600160a01b038881166000818152600360209081526040808320948916808452948252918290208590559051848152939450919290917f8c5be1e5ebec7d5bd14f71427d1e84f3dd0314c0f7b2291e5b200ac8c7c3b925910160405180910390a3505b6114fb868686612eaa565b6001925050505b9392505050565b600a818154811061151957600080fd5b600091825260209091206003909102018054600182015460029092015490925083565b600080826001600160a01b031663b7f01bfc6040518163ffffffff1660e01b8152600401602060405180830381865afa15801561157d573d6000803e3d6000fd5b505050506040513d601f19601f820116820180604052508101906115a19190613a77565b600980546001600160a01b0319166001600160a01b0383161790559392505050565b6000806115ce611c38565b90506000806115db6113d1565b5084519193509150420361164357600a80546115f99060029061398b565b8154811061160957611609613a61565b9060005260206000209060030201604051806060016040529081600082015481526020016001820154815260200160028201548152505092505b8251600090611652904261398b565b9050600081856020015185611667919061398b565b61167191906139d7565b9050600082866040015185611686919061398b565b61169091906139d7565b905061169e888a8484612bb5565b9998505050505050505050565b6060611342848484600161114e565b60006016546001146116cb57600080fd5b6002601655600b54600c546040516370a0823160e01b81523060048201526000907f00000000000000000000000000000000000000000000000000000000000000006001600160a01b0316906370a0823190602401602060405180830381865afa15801561173d573d6000803e3d6000fd5b505050506040513d601f19601f82011682018060405250810190611761919061395c565b6040516370a0823160e01b81523060048201529091506000906001600160a01b037f000000000000000000000000000000000000000000000000000000000000000016906370a0823190602401602060405180830381865afa1580156117cb573d6000803e3d6000fd5b505050506040513d601f19601f820116820180604052508101906117ef919061395c565b905060006117fd858461398b565b9050600061180b858461398b565b600254909150600081900361184d576103e861182f61182a84866139a2565b612f6a565b611839919061398b565b975061184860006103e8613052565b611882565b61187f8761185b83866139a2565b61186591906139d7565b8761187084866139a2565b61187a91906139d7565b6130e5565b97505b600088116118b85760405162461bcd60e51b8152602060048201526003602482015262494c4d60e81b60448201526064016109e6565b6118c28989613052565b6118ce85858989612a21565b604080518481526020810184905233917f4c209b5fc8ad50758f13e2e1088ba56a560dff690a1c6fef26394f4c03821c4f910160405180910390a250506001601655509395945050505050565b60008060165460011461192d57600080fd5b6002601655600b54600c546040516370a0823160e01b81523060048201527f0000000000000000000000000000000000000000000000000000000000000000907f0000000000000000000000000000000000000000000000000000000000000000906000906001600160a01b038416906370a0823190602401602060405180830381865afa1580156119c3573d6000803e3d6000fd5b505050506040513d601f19601f820116820180604052508101906119e7919061395c565b6040516370a0823160e01b81523060048201529091506000906001600160a01b038416906370a0823190602401602060405180830381865afa158015611a31573d6000803e3d6000fd5b505050506040513d601f19601f82011682018060405250810190611a55919061395c565b306000908152600460205260409020546002549192509080611a7785846139a2565b611a8191906139d7565b995080611a8e84846139a2565b611a9891906139d7565b985060008a118015611aaa5750600089115b611adc5760405162461bcd60e51b815260206004820152600360248201526224a62160e91b60448201526064016109e6565b611ae630836130fb565b611af1868c8c6124bd565b611afc858c8b6124bd565b6040516370a0823160e01b81523060048201526001600160a01b038716906370a0823190602401602060405180830381865afa158015611b40573d6000803e3d6000fd5b505050506040513d601f19601f82011682018060405250810190611b64919061395c565b6040516370a0823160e01b81523060048201529094506001600160a01b038616906370a0823190602401602060405180830381865afa158015611bab573d6000803e3d6000fd5b505050506040513d601f19601f82011682018060405250810190611bcf919061395c565b9250611bdd84848a8a612a21565b604080518b8152602081018b90526001600160a01b038d169133917fdccd412f0b1252819cb1fd330b93224ca42612892bb3f4f789976e6d81936496910160405180910390a350505050505050506001601681905550915091565b611c5c60405180606001604052806000815260200160008152602001600081525090565b600a8054611c6c9060019061398b565b81548110611c7c57611c7c613a61565b90600052602060002090600302016040518060600160405290816000820154815260200160018201548152602001600282015481525050905090565b60018054611060906139f9565b600080611cd5858585600161114e565b90506000805b8251811015611d1d57828181518110611cf657611cf6613a61565b602002602001015182611d099190613a49565b915080611d1581613a94565b915050611cdb565b50611d2884826139d7565b9695505050505050565b6000611d3f338484612eaa565b50600192915050565b601654600114611d5757600080fd5b6002601655600b546040516370a0823160e01b81523060048201527f0000000000000000000000000000000000000000000000000000000000000000917f000000000000000000000000000000000000000000000000000000000000000091611e249184918691906001600160a01b038416906370a08231906024015b602060405180830381865afa158015611df1573d6000803e3d6000fd5b505050506040513d601f19601f82011682018060405250810190611e15919061395c565b611e1f919061398b565b6124bd565b600c546040516370a0823160e01b8152306004820152611e5c9183918691906001600160a01b038416906370a0823190602401611dd4565b5050600160165550565b600080611e7233613186565b50503360009081526014602090815260408083205460159092529091205481151580611e9e5750600081115b15611f89573360008181526014602090815260408083208390556015909152808220919091555163299e7ae760e11b8152600481019190915260248101839052604481018290526001600160a01b037f0000000000000000000000000000000000000000000000000000000000000000169063533cf5ce90606401600060405180830381600087803b158015611f3357600080fd5b505af1158015611f47573d6000803e3d6000fd5b505060408051858152602081018590523393508392507f865ca08d59f5cb456e85cd2f7ef63664ea4f73327414e9d8152c4158b0e94645910160405180910390a35b9091565b42841015611fcd5760405162461bcd60e51b815260206004820152600d60248201526c14185a5c8e8811561412549151609a1b60448201526064016109e6565b7f8b73c3c69bb8fe3d512ecc4cf759cc79239f7b179b0ffacaa9a75d522b39400f6000604051611ffd9190613aad565b60408051918290038220828201825260018352603160f81b6020938401528151928301939093528101919091527fc89efdaa54c0f20c7adf612882df0950f5a951637e0307cdcb4c672f298b8bc660608201524660808201523060a082015260c00160408051601f19818403018152918152815160209283012060058190556001600160a01b038a166000908152600690935290822080547f6e71edae12b1b97f4d1f60370fef10105fa2faae0126114a169c64845d6126c9918b918b918b9190876120c883613a94565b909155506040805160208101969096526001600160a01b0394851690860152929091166060840152608083015260a082015260c0810187905260e0016040516020818303038152906040528051906020012060405160200161214192919061190160f01b81526002810192909252602282015260420190565b60408051601f198184030181528282528051602091820120600080855291840180845281905260ff88169284019290925260608301869052608083018590529092509060019060a0016020604051602081039080840390855afa1580156121ac573d6000803e3d6000fd5b5050604051601f1901519150506001600160a01b038116158015906121e25750886001600160a01b0316816001600160a01b0316145b61222e5760405162461bcd60e51b815260206004820152601760248201527f506169723a20494e56414c49445f5349474e415455524500000000000000000060448201526064016109e6565b6001600160a01b038981166000818152600360209081526040808320948d16808452948252918290208b905590518a81527f8c5be1e5ebec7d5bd14f71427d1e84f3dd0314c0f7b2291e5b200ac8c7c3b925910160405180910390a3505050505050505050565b600b54600c54604051632895a2f560e11b81527f0000000000000000000000000000000000000000000000000000000000000000151560048201526000929190612710907f00000000000000000000000000000000000000000000000000000000000000006001600160a01b03169063512b45ea90602401602060405180830381865afa15801561232a573d6000803e3d6000fd5b505050506040513d601f19601f8201168201806040525081019061234e919061395c565b61235890876139a2565b61236291906139d7565b61236c908661398b565b945061237a85858484612bb5565b95945050505050565b60165460011461239257600080fd5b60026016556040516370a0823160e01b81523060048201526124b6907f00000000000000000000000000000000000000000000000000000000000000006001600160a01b0316906370a0823190602401602060405180830381865afa1580156123ff573d6000803e3d6000fd5b505050506040513d601f19601f82011682018060405250810190612423919061395c565b6040516370a0823160e01b81523060048201527f00000000000000000000000000000000000000000000000000000000000000006001600160a01b0316906370a0823190602401602060405180830381865afa158015612487573d6000803e3d6000fd5b505050506040513d601f19601f820116820180604052508101906124ab919061395c565b600b54600c54612a21565b6001601655565b6000836001600160a01b03163b116124d457600080fd5b604080516001600160a01b038481166024830152604480830185905283518084039091018152606490920183526020820180516001600160e01b031663a9059cbb60e01b17905291516000928392908716916125309190613b48565b6000604051808303816000865af19150503d806000811461256d576040519150601f19603f3d011682016040523d82523d6000602084013e612572565b606091505b509150915081801561259c57508051158061259c57508080602001905181019061259c91906138f3565b6125a557600080fd5b5050505050565b600954600160a01b900460ff161515600003612679576009546125fa907f0000000000000000000000000000000000000000000000000000000000000000906001600160a01b0316836124bd565b60025460009061261283670de0b6b3a76400006139a2565b61261c91906139d7565b9050801561263c5780601060008282546126369190613a49565b90915550505b604080518381526000602082015233917f112c256902bf554b6ed882d2936687aaeb4225e8cd5b51303c90ca6cf43a8602910160405180910390a2505b600954600160a01b900460ff1615156001036127965760075460405163b66503cf60e01b81526001600160a01b037f000000000000000000000000000000000000000000000000000000000000000081166004830152602482018490529091169063b66503cf906044015b600060405180830381600087803b1580156126fe57600080fd5b505af1158015612712573d6000803e3d6000fd5b50505050600060025482670de0b6b3a764000061272f91906139a2565b61273991906139d7565b905080156127595780601060008282546127539190613a49565b90915550505b604080518381526000602082015233917f112c256902bf554b6ed882d2936687aaeb4225e8cd5b51303c90ca6cf43a8602910160405180910390a2505b50565b600954600160a01b900460ff161515600003612866576009546127e7907f0000000000000000000000000000000000000000000000000000000000000000906001600160a01b0316836124bd565b6002546000906127ff83670de0b6b3a76400006139a2565b61280991906139d7565b905080156128295780601060008282546128239190613a49565b90915550505b604080518381526000602082015233917f112c256902bf554b6ed882d2936687aaeb4225e8cd5b51303c90ca6cf43a8602910160405180910390a2505b600954600160a01b900460ff1615156001036127965760075460405163b66503cf60e01b81526001600160a01b037f000000000000000000000000000000000000000000000000000000000000000081166004830152602482018490529091169063b66503cf906044016126e4565b60007f000000000000000000000000000000000000000000000000000000000000000015612a105760007f000000000000000000000000000000000000000000000000000000000000000061293285670de0b6b3a76400006139a2565b61293c91906139d7565b905060007f000000000000000000000000000000000000000000000000000000000000000061297385670de0b6b3a76400006139a2565b61297d91906139d7565b90506000670de0b6b3a764000061299483856139a2565b61299e91906139d7565b90506000670de0b6b3a76400006129b584806139a2565b6129bf91906139d7565b670de0b6b3a76400006129d286806139a2565b6129dc91906139d7565b6129e69190613a49565b9050670de0b6b3a76400006129fb82846139a2565b612a0591906139d7565b945050505050611148565b612a1a82846139a2565b9050611148565b600d544290600090612a33908361398b565b9050600081118015612a4457508315155b8015612a4f57508215155b15612a9657612a5e81856139a2565b600e6000828254612a6f9190613a49565b90915550612a7f905081846139a2565b600f6000828254612a909190613a49565b90915550505b6000612aa0611c38565b8051909150612aaf908461398b565b9150610708821115612b645760408051606081018252848152600e5460208201908152600f54928201928352600a805460018101825560009190915291517fc65a7bb8d6351c1cf70c95a316cc6a92839c986682d98bc35f958f4883f9d2a8600390930292830155517fc65a7bb8d6351c1cf70c95a316cc6a92839c986682d98bc35f958f4883f9d2a982015590517fc65a7bb8d6351c1cf70c95a316cc6a92839c986682d98bc35f958f4883f9d2aa909101555b600b879055600c869055600d83905560408051888152602081018890527fcf2aa50876cdfbb541206f89af0ee78d44a2abf8d328e37fa4917f982149848a910160405180910390a150505050505050565b60007f000000000000000000000000000000000000000000000000000000000000000015612e38576000612be984846128d5565b90507f0000000000000000000000000000000000000000000000000000000000000000612c1e85670de0b6b3a76400006139a2565b612c2891906139d7565b93507f0000000000000000000000000000000000000000000000000000000000000000612c5d84670de0b6b3a76400006139a2565b612c6791906139d7565b92506000807f00000000000000000000000000000000000000000000000000000000000000006001600160a01b0316876001600160a01b031614612cac578486612caf565b85855b915091507f00000000000000000000000000000000000000000000000000000000000000006001600160a01b0316876001600160a01b031614612d2e577f0000000000000000000000000000000000000000000000000000000000000000612d1f89670de0b6b3a76400006139a2565b612d2991906139d7565b612d6b565b7f0000000000000000000000000000000000000000000000000000000000000000612d6189670de0b6b3a76400006139a2565b612d6b91906139d7565b97506000612d83612d7c848b613a49565b85846132e6565b612d8d908361398b565b9050670de0b6b3a76400007f00000000000000000000000000000000000000000000000000000000000000006001600160a01b0316896001600160a01b031614612df7577f0000000000000000000000000000000000000000000000000000000000000000612e19565b7f00000000000000000000000000000000000000000000000000000000000000005b612e2390836139a2565b612e2d91906139d7565b945050505050611342565b6000807f00000000000000000000000000000000000000000000000000000000000000006001600160a01b0316866001600160a01b031614612e7b578385612e7e565b84845b9092509050612e8d8783613a49565b612e9782896139a2565b612ea191906139d7565b92505050611342565b612eb383613186565b612ebc82613186565b6001600160a01b03831660009081526004602052604081208054839290612ee490849061398b565b90915550506001600160a01b03821660009081526004602052604081208054839290612f11908490613a49565b92505081905550816001600160a01b0316836001600160a01b03167fddf252ad1be2c89b69c2b068fc378daa952ba7f163c4a11628f55a4df523b3ef83604051612f5d91815260200190565b60405180910390a3505050565b600081600003612f7c57506000919050565b60006001612f89846133f5565b901c6001901b90506001818481612fa257612fa26139c1565b048201901c90506001818481612fba57612fba6139c1565b048201901c90506001818481612fd257612fd26139c1565b048201901c90506001818481612fea57612fea6139c1565b048201901c90506001818481613002576130026139c1565b048201901c9050600181848161301a5761301a6139c1565b048201901c90506001818481613032576130326139c1565b048201901c90506115028182858161304c5761304c6139c1565b046130e5565b61305b82613186565b806002600082825461306d9190613a49565b90915550506001600160a01b0382166000908152600460205260408120805483929061309a908490613a49565b90915550506040518181526001600160a01b038316906000907fddf252ad1be2c89b69c2b068fc378daa952ba7f163c4a11628f55a4df523b3ef906020015b60405180910390a35050565b60008183106130f45781611502565b5090919050565b61310482613186565b8060026000828254613116919061398b565b90915550506001600160a01b0382166000908152600460205260408120805483929061314390849061398b565b90915550506040518181526000906001600160a01b038416907fddf252ad1be2c89b69c2b068fc378daa952ba7f163c4a11628f55a4df523b3ef906020016130d9565b6001600160a01b03811660009081526004602052604090205480156132b4576001600160a01b03821660009081526012602090815260408083208054601380855292852080546010546011549481905594909552829055936131e8858461398b565b905060006131f6858461398b565b90508115613251576000670de0b6b3a7640000613213848a6139a2565b61321d91906139d7565b6001600160a01b038a1660009081526014602052604081208054929350839290919061324a908490613a49565b9091555050505b80156132aa576000670de0b6b3a764000061326c838a6139a2565b61327691906139d7565b6001600160a01b038a166000908152601560205260408120805492935083929091906132a3908490613a49565b9091555050505b5050505050505050565b6010546001600160a01b0383166000908152601260209081526040808320939093556011546013909152919020555050565b6000805b60ff8110156133ec578260006133008783613489565b9050858110156133505760006133168887613526565b613320838961398b565b61333290670de0b6b3a76400006139a2565b61333c91906139d7565b90506133488187613a49565b955050613392565b600061335c8887613526565b613366888461398b565b61337890670de0b6b3a76400006139a2565b61338291906139d7565b905061338e818761398b565b9550505b818511156133bb5760016133a6838761398b565b116133b657849350505050611502565b6133d7565b60016133c7868461398b565b116133d757849350505050611502565b505080806133e490613a94565b9150506132ea565b50909392505050565b600080608083901c1561340a57608092831c92015b604083901c1561341c57604092831c92015b602083901c1561342e57602092831c92015b601083901c1561344057601092831c92015b600883901c1561345257600892831c92015b600483901c1561346457600492831c92015b600283901c1561347657600292831c92015b600183901c156111485760010192915050565b6000670de0b6b3a7640000828185816134a282806139a2565b6134ac91906139d7565b6134b691906139a2565b6134c091906139d7565b6134ca91906139a2565b6134d491906139d7565b670de0b6b3a76400008084816134ea82806139a2565b6134f491906139d7565b6134fe91906139a2565b61350891906139d7565b61351290866139a2565b61351c91906139d7565b6115029190613a49565b6000670de0b6b3a7640000838161353d82806139a2565b61354791906139d7565b61355191906139a2565b61355b91906139d7565b670de0b6b3a76400008061356f85806139a2565b61357991906139d7565b6135848660036139a2565b61351291906139a2565b6001600160a01b038116811461279657600080fd5b6000806000806000608086880312156135bb57600080fd5b853594506020860135935060408601356135d48161358e565b9250606086013567ffffffffffffffff808211156135f157600080fd5b818801915088601f83011261360557600080fd5b81358181111561361457600080fd5b89602082850101111561362657600080fd5b9699959850939650602001949392505050565b60005b8381101561365457818101518382015260200161363c565b83811115613663576000848401525b50505050565b6020815260008251806020840152613688816040850160208701613639565b601f01601f19169190910160400192915050565b600080604083850312156136af57600080fd5b82356136ba8161358e565b946020939093013593505050565b600080600080608085870312156136de57600080fd5b84356136e98161358e565b966020860135965060408601359560600135945092505050565b6020808252825182820181905260009190848201906040850190845b8181101561373b5783518352928401929184019160010161371f565b50909695505050505050565b60006020828403121561375957600080fd5b81356115028161358e565b60008060006060848603121561377957600080fd5b83356137848161358e565b925060208401356137948161358e565b929592945050506040919091013590565b6000602082840312156137b757600080fd5b5035919050565b6000806000606084860312156137d357600080fd5b83356137de8161358e565b95602085013595506040909401359392505050565b801515811461279657600080fd5b60006020828403121561381357600080fd5b8135611502816137f3565b600080600080600080600060e0888a03121561383957600080fd5b87356138448161358e565b965060208801356138548161358e565b95506040880135945060608801359350608088013560ff8116811461387857600080fd5b9699959850939692959460a0840135945060c09093013592915050565b600080604083850312156138a857600080fd5b82356138b38161358e565b915060208301356138c38161358e565b809150509250929050565b600080604083850312156138e157600080fd5b8235915060208301356138c38161358e565b60006020828403121561390557600080fd5b8151611502816137f3565b60018060a01b038616815284602082015283604082015260806060820152816080820152818360a0830137600081830160a090810191909152601f909201601f19160101949350505050565b60006020828403121561396e57600080fd5b5051919050565b634e487b7160e01b600052601160045260246000fd5b60008282101561399d5761399d613975565b500390565b60008160001904831182151516156139bc576139bc613975565b500290565b634e487b7160e01b600052601260045260246000fd5b6000826139f457634e487b7160e01b600052601260045260246000fd5b500490565b600181811c90821680613a0d57607f821691505b602082108103613a2d57634e487b7160e01b600052602260045260246000fd5b50919050565b634e487b7160e01b600052604160045260246000fd5b60008219821115613a5c57613a5c613975565b500190565b634e487b7160e01b600052603260045260246000fd5b600060208284031215613a8957600080fd5b81516115028161358e565b600060018201613aa657613aa6613975565b5060010190565b600080835481600182811c915080831680613ac957607f831692505b60208084108203613ae857634e487b7160e01b86526022600452602486fd5b818015613afc5760018114613b0d57613b3a565b60ff19861689528489019650613b3a565b60008a81526020902060005b86811015613b325781548b820152908501908301613b19565b505084890196505b509498975050505050505050565b60008251613b5a818460208701613639565b919091019291505056fea2646970667358221220d6329b64551aafab316bddb9a8c541b6981851493b9e9aabe2cd42c63e8c10c164736f6c634300080d003360e060405234801561001057600080fd5b5060405161037038038061037083398101604081905261002f91610066565b336080526001600160a01b0391821660a0521660c052610099565b80516001600160a01b038116811461006157600080fd5b919050565b6000806040838503121561007957600080fd5b6100828361004a565b91506100906020840161004a565b90509250929050565b60805160a05160c0516102ab6100c5600039600060b601526000608501526000605001526102ab6000f3fe608060405234801561001057600080fd5b506004361061002b5760003560e01c8063533cf5ce14610030575b600080fd5b61004361003e3660046101d0565b610045565b005b336001600160a01b037f0000000000000000000000000000000000000000000000000000000000000000161461007a57600080fd5b81156100ab576100ab7f000000000000000000000000000000000000000000000000000000000000000084846100e1565b80156100dc576100dc7f000000000000000000000000000000000000000000000000000000000000000084836100e1565b505050565b6000836001600160a01b03163b116100f857600080fd5b604080516001600160a01b038481166024830152604480830185905283518084039091018152606490920183526020820180516001600160e01b031663a9059cbb60e01b17905291516000928392908716916101549190610211565b6000604051808303816000865af19150503d8060008114610191576040519150601f19603f3d011682016040523d82523d6000602084013e610196565b606091505b50915091508180156101c05750805115806101c05750808060200190518101906101c0919061024c565b6101c957600080fd5b5050505050565b6000806000606084860312156101e557600080fd5b83356001600160a01b03811681146101fc57600080fd5b95602085013595506040909401359392505050565b6000825160005b818110156102325760208186018101518583015201610218565b81811115610241576000828501525b509190910192915050565b60006020828403121561025e57600080fd5b8151801515811461026e57600080fd5b939250505056fea264697066735822122057d9dfaad8d71579f250065e6b0e6afcc33e3b4669e790501acbc6db928dbfb064736f6c634300080d0033a2646970667358221220e3a4f16c221795049c23ecf6c7ffd0daa1dd9a61d8c32b4b94507cb17321824e64736f6c634300080d0033",
  "devdoc": {
    "kind": "dev",
    "methods": {},
    "version": 1
  },
  "userdoc": {
    "kind": "user",
    "methods": {},
    "version": 1
  },
  "storageLayout": {
    "storage": [
      {
        "astId": 21642,
        "contract": "contracts/factories/PairFactory.sol:PairFactory",
        "label": "isPaused",
        "offset": 0,
        "slot": "0",
        "type": "t_bool"
      },
      {
        "astId": 21644,
        "contract": "contracts/factories/PairFactory.sol:PairFactory",
        "label": "pauser",
        "offset": 1,
        "slot": "0",
        "type": "t_address"
      },
      {
        "astId": 21646,
        "contract": "contracts/factories/PairFactory.sol:PairFactory",
        "label": "pendingPauser",
        "offset": 0,
        "slot": "1",
        "type": "t_address"
      },
      {
        "astId": 21648,
        "contract": "contracts/factories/PairFactory.sol:PairFactory",
        "label": "stableFee",
        "offset": 0,
        "slot": "2",
        "type": "t_uint256"
      },
      {
        "astId": 21650,
        "contract": "contracts/factories/PairFactory.sol:PairFactory",
        "label": "volatileFee",
        "offset": 0,
        "slot": "3",
        "type": "t_uint256"
      },
      {
        "astId": 21655,
        "contract": "contracts/factories/PairFactory.sol:PairFactory",
        "label": "feeManager",
        "offset": 0,
        "slot": "4",
        "type": "t_address"
      },
      {
        "astId": 21657,
        "contract": "contracts/factories/PairFactory.sol:PairFactory",
        "label": "pendingFeeManager",
        "offset": 0,
        "slot": "5",
        "type": "t_address"
      },
      {
        "astId": 21659,
        "contract": "contracts/factories/PairFactory.sol:PairFactory",
        "label": "voter",
        "offset": 0,
        "slot": "6",
        "type": "t_address"
      },
      {
        "astId": 21661,
        "contract": "contracts/factories/PairFactory.sol:PairFactory",
        "label": "team",
        "offset": 0,
        "slot": "7",
        "type": "t_address"
      },
      {
        "astId": 21663,
        "contract": "contracts/factories/PairFactory.sol:PairFactory",
        "label": "pendingTank",
        "offset": 0,
        "slot": "8",
        "type": "t_address"
      },
      {
        "astId": 21665,
        "contract": "contracts/factories/PairFactory.sol:PairFactory",
        "label": "tank",
        "offset": 0,
        "slot": "9",
        "type": "t_address"
      },
      {
        "astId": 21667,
        "contract": "contracts/factories/PairFactory.sol:PairFactory",
        "label": "deployer",
        "offset": 0,
        "slot": "10",
        "type": "t_address"
      },
      {
        "astId": 21675,
        "contract": "contracts/factories/PairFactory.sol:PairFactory",
        "label": "getPair",
        "offset": 0,
        "slot": "11",
        "type": "t_mapping(t_address,t_mapping(t_address,t_mapping(t_bool,t_address)))"
      },
      {
        "astId": 21678,
        "contract": "contracts/factories/PairFactory.sol:PairFactory",
        "label": "allPairs",
        "offset": 0,
        "slot": "12",
        "type": "t_array(t_address)dyn_storage"
      },
      {
        "astId": 21682,
        "contract": "contracts/factories/PairFactory.sol:PairFactory",
        "label": "isPair",
        "offset": 0,
        "slot": "13",
        "type": "t_mapping(t_address,t_bool)"
      },
      {
        "astId": 21684,
        "contract": "contracts/factories/PairFactory.sol:PairFactory",
        "label": "_temp0",
        "offset": 0,
        "slot": "14",
        "type": "t_address"
      },
      {
        "astId": 21686,
        "contract": "contracts/factories/PairFactory.sol:PairFactory",
        "label": "_temp1",
        "offset": 0,
        "slot": "15",
        "type": "t_address"
      },
      {
        "astId": 21688,
        "contract": "contracts/factories/PairFactory.sol:PairFactory",
        "label": "_temp",
        "offset": 20,
        "slot": "15",
        "type": "t_bool"
      }
    ],
    "types": {
      "t_address": {
        "encoding": "inplace",
        "label": "address",
        "numberOfBytes": "20"
      },
      "t_array(t_address)dyn_storage": {
        "base": "t_address",
        "encoding": "dynamic_array",
        "label": "address[]",
        "numberOfBytes": "32"
      },
      "t_bool": {
        "encoding": "inplace",
        "label": "bool",
        "numberOfBytes": "1"
      },
      "t_mapping(t_address,t_bool)": {
        "encoding": "mapping",
        "key": "t_address",
        "label": "mapping(address => bool)",
        "numberOfBytes": "32",
        "value": "t_bool"
      },
      "t_mapping(t_address,t_mapping(t_address,t_mapping(t_bool,t_address)))": {
        "encoding": "mapping",
        "key": "t_address",
        "label": "mapping(address => mapping(address => mapping(bool => address)))",
        "numberOfBytes": "32",
        "value": "t_mapping(t_address,t_mapping(t_bool,t_address))"
      },
      "t_mapping(t_address,t_mapping(t_bool,t_address))": {
        "encoding": "mapping",
        "key": "t_address",
        "label": "mapping(address => mapping(bool => address))",
        "numberOfBytes": "32",
        "value": "t_mapping(t_bool,t_address)"
      },
      "t_mapping(t_bool,t_address)": {
        "encoding": "mapping",
        "key": "t_bool",
        "label": "mapping(bool => address)",
        "numberOfBytes": "32",
        "value": "t_address"
      },
      "t_uint256": {
        "encoding": "inplace",
        "label": "uint256",
        "numberOfBytes": "32"
      }
    }
  }
}