{
  "address": "0x7eEE2ED1bD98dd7e103518405933D56Dac2bC9Df",
  "abi": [
    {
      "inputs": [
        {
          "internalType": "address",
          "name": "_usdc",
          "type": "address"
        },
        {
          "internalType": "address",
          "name": "_velo",
          "type": "address"
        },
        {
          "internalType": "uint16",
          "name": "_fantomChainId",
          "type": "uint16"
        },
        {
          "internalType": "address",
          "name": "_endpoint",
          "type": "address"
        }
      ],
      "stateMutability": "nonpayable",
      "type": "constructor"
    },
    {
      "anonymous": false,
      "inputs": [
        {
          "indexed": false,
          "internalType": "address",
          "name": "fantomSender",
          "type": "address"
        },
        {
          "indexed": false,
          "internalType": "uint256",
          "name": "redeemableUSDC",
          "type": "uint256"
        },
        {
          "indexed": false,
          "internalType": "uint256",
          "name": "redeemableVELO",
          "type": "uint256"
        }
      ],
      "name": "Initialized",
      "type": "event"
    },
    {
      "inputs": [],
      "name": "ELIGIBLE_WEVE",
      "outputs": [
        {
          "internalType": "uint256",
          "name": "",
          "type": "uint256"
        }
      ],
      "stateMutability": "view",
      "type": "function"
    },
    {
      "inputs": [],
      "name": "USDC",
      "outputs": [
        {
          "internalType": "contract IERC20",
          "name": "",
          "type": "address"
        }
      ],
      "stateMutability": "view",
      "type": "function"
    },
    {
      "inputs": [],
      "name": "VELO",
      "outputs": [
        {
          "internalType": "contract IVelo",
          "name": "",
          "type": "address"
        }
      ],
      "stateMutability": "view",
      "type": "function"
    },
    {
      "inputs": [
        {
          "internalType": "bytes",
          "name": "toAddressBytes",
          "type": "bytes"
        }
      ],
      "name": "addressFromPackedBytes",
      "outputs": [
        {
          "internalType": "address",
          "name": "toAddress",
          "type": "address"
        }
      ],
      "stateMutability": "pure",
      "type": "function"
    },
    {
      "inputs": [],
      "name": "claimLeftovers",
      "outputs": [],
      "stateMutability": "nonpayable",
      "type": "function"
    },
    {
      "inputs": [],
      "name": "deployed",
      "outputs": [
        {
          "internalType": "uint256",
          "name": "",
          "type": "uint256"
        }
      ],
      "stateMutability": "view",
      "type": "function"
    },
    {
      "inputs": [],
      "name": "endpoint",
      "outputs": [
        {
          "internalType": "address",
          "name": "",
          "type": "address"
        }
      ],
      "stateMutability": "view",
      "type": "function"
    },
    {
      "inputs": [],
      "name": "fantomChainId",
      "outputs": [
        {
          "internalType": "uint16",
          "name": "",
          "type": "uint16"
        }
      ],
      "stateMutability": "view",
      "type": "function"
    },
    {
      "inputs": [],
      "name": "fantomSender",
      "outputs": [
        {
          "internalType": "address",
          "name": "",
          "type": "address"
        }
      ],
      "stateMutability": "view",
      "type": "function"
    },
    {
      "inputs": [
        {
          "internalType": "address",
          "name": "_fantomSender",
          "type": "address"
        },
        {
          "internalType": "uint256",
          "name": "_redeemableUSDC",
          "type": "uint256"
        },
        {
          "internalType": "uint256",
          "name": "_redeemableVELO",
          "type": "uint256"
        }
      ],
      "name": "initializeReceiverWith",
      "outputs": [],
      "stateMutability": "nonpayable",
      "type": "function"
    },
    {
      "inputs": [],
      "name": "leftoverVELO",
      "outputs": [
        {
          "internalType": "uint256",
          "name": "",
          "type": "uint256"
        }
      ],
      "stateMutability": "view",
      "type": "function"
    },
    {
      "inputs": [
        {
          "internalType": "uint16",
          "name": "srcChainId",
          "type": "uint16"
        },
        {
          "internalType": "bytes",
          "name": "srcAddress",
          "type": "bytes"
        },
        {
          "internalType": "uint64",
          "name": "",
          "type": "uint64"
        },
        {
          "internalType": "bytes",
          "name": "payload",
          "type": "bytes"
        }
      ],
      "name": "lzReceive",
      "outputs": [],
      "stateMutability": "nonpayable",
      "type": "function"
    },
    {
      "inputs": [
        {
          "internalType": "uint256",
          "name": "amountWEVE",
          "type": "uint256"
        }
      ],
      "name": "previewRedeem",
      "outputs": [
        {
          "internalType": "uint256",
          "name": "shareOfUSDC",
          "type": "uint256"
        },
        {
          "internalType": "uint256",
          "name": "shareOfVELO",
          "type": "uint256"
        }
      ],
      "stateMutability": "view",
      "type": "function"
    },
    {
      "inputs": [],
      "name": "redeemableUSDC",
      "outputs": [
        {
          "internalType": "uint256",
          "name": "",
          "type": "uint256"
        }
      ],
      "stateMutability": "view",
      "type": "function"
    },
    {
      "inputs": [],
      "name": "redeemableVELO",
      "outputs": [
        {
          "internalType": "uint256",
          "name": "",
          "type": "uint256"
        }
      ],
      "stateMutability": "view",
      "type": "function"
    },
    {
      "inputs": [],
      "name": "redeemedWEVE",
      "outputs": [
        {
          "internalType": "uint256",
          "name": "",
          "type": "uint256"
        }
      ],
      "stateMutability": "view",
      "type": "function"
    },
    {
      "inputs": [
        {
          "internalType": "address",
          "name": "_team",
          "type": "address"
        }
      ],
      "name": "setTeam",
      "outputs": [],
      "stateMutability": "nonpayable",
      "type": "function"
    },
    {
      "inputs": [],
      "name": "team",
      "outputs": [
        {
          "internalType": "address",
          "name": "",
          "type": "address"
        }
      ],
      "stateMutability": "view",
      "type": "function"
    }
  ],
  "transactionHash": "0x5b13661a7eabb59a780cf3f170d0dc5df51bcbb00337ea5d5992e1b34f7eb04c",
  "args": [
    "0x7F5c764cBc14f9669B88837ca1490cCa17c31607",
    "0x162404E6Cd4633656925b90EF67237F29D5cc85c",
    10012,
    "0x3c2269811836af69497E5F486A85D7316753cf62"
  ],
  "numDeployments": 5,
  "solcInputHash": "7fabbf584e02c1cd20d7799a434dc4a7",
  "bytecode": "0x61012060405234801561001157600080fd5b50604051610f81380380610f81833981016040819052610030916100e2565b8161ffff16600c148061004857508161ffff1661271c145b61008b5760405162461bcd60e51b815260206004820152601060248201526f434841494e5f49445f4e4f545f46544d60801b604482015260640160405180910390fd5b6001600160a01b0393841660805291831660a05261ffff1660c0521660e052600080546001600160a01b03191633179055426101005261013f565b80516001600160a01b03811681146100dd57600080fd5b919050565b600080600080608085870312156100f857600080fd5b610101856100c6565b935061010f602086016100c6565b9250604085015161ffff8116811461012657600080fd5b9150610134606086016100c6565b905092959194509250565b60805160a05160c05160e05161010051610dcd6101b4600039600081816102d601526108c00152600081816101940152610352015260008181610245015261037c01526000818161027f015261059f01526000818161021e015281816104d70152818161078e015261094c0152610dcd6000f3fe608060405234801561001057600080fd5b50600436106101155760003560e01c80636bfd23a7116100a2578063a0eeb39a11610071578063a0eeb39a1461027a578063a408bb4c146102a1578063aaa8f2ef146102a9578063b8ea6281146102bc578063f905c15a146102d157600080fd5b80636bfd23a7146101fd57806385f2aef21461020657806389a3027114610219578063997a03b71461024057600080fd5b80634cdad506116100e95780634cdad506146101675780635e280f111461018f57806363b4eb8d146101ce57806368ecc6bc146101e15780636ac55083146101f457600080fd5b80621d35671461011a578063095cf5c61461012f578063221798ad1461014257806347db1a6a1461015e575b600080fd5b61012d610128366004610af9565b6102f8565b005b61012d61013d366004610ba8565b610651565b61014b60045481565b6040519081526020015b60405180910390f35b61014b60035481565b61017a610175366004610bcc565b61069d565b60408051928352602083019190915201610155565b6101b67f000000000000000000000000000000000000000000000000000000000000000081565b6040516001600160a01b039091168152602001610155565b6001546101b6906001600160a01b031681565b61012d6101ef366004610be5565b6106f3565b61014b60055481565b61014b60025481565b6000546101b6906001600160a01b031681565b6101b67f000000000000000000000000000000000000000000000000000000000000000081565b6102677f000000000000000000000000000000000000000000000000000000000000000081565b60405161ffff9091168152602001610155565b6101b67f000000000000000000000000000000000000000000000000000000000000000081565b61012d610891565b61014b6b0136492b8a2b999d53f0000081565b6101b66102ca366004610c1a565b6014015190565b61014b7f000000000000000000000000000000000000000000000000000000000000000081565b6001546001600160a01b03166103475760405162461bcd60e51b815260206004820152600f60248201526e1393d517d253925512505312569151608a1b60448201526064015b60405180910390fd5b336001600160a01b037f0000000000000000000000000000000000000000000000000000000000000000161480156103a657507f000000000000000000000000000000000000000000000000000000000000000061ffff168461ffff16145b80156103cf57506001546001600160a01b03166103c4846014015190565b6001600160a01b0316145b6104115760405162461bcd60e51b81526020600482015260136024820152722aa720aaaa2427a924ad22a22fa1a0a62622a960691b604482015260640161033e565b600080828060200190518101906104289190610c57565b915091506b0136492b8a2b999d53f00000816002600082825461044b9190610c9b565b925050819055111561049f5760405162461bcd60e51b815260206004820181905260248201527f63616e6e6f742072656465656d206d6f7265207468616e20656c696769626c65604482015260640161033e565b6000806104ab8361069d565b60405163a9059cbb60e01b81526001600160a01b038781166004830152602482018490529294509092507f00000000000000000000000000000000000000000000000000000000000000009091169063a9059cbb906044016020604051808303816000875af1158015610522573d6000803e3d6000fd5b505050506040513d601f19601f820116820180604052508101906105469190610cb3565b6105625760405162461bcd60e51b815260040161033e90610cd5565b80600560008282546105749190610d03565b9091555050604051635569f64b60e11b81526001600160a01b038581166004830152602482018390527f0000000000000000000000000000000000000000000000000000000000000000169063aad3ec96906044016020604051808303816000875af11580156105e8573d6000803e3d6000fd5b505050506040513d601f19601f8201168201806040525081019061060c9190610cb3565b6106475760405162461bcd60e51b815260206004820152600c60248201526b10d310525357d1905253115160a21b604482015260640161033e565b5050505050505050565b6000546001600160a01b0316331461067b5760405162461bcd60e51b815260040161033e90610d1a565b600080546001600160a01b0319166001600160a01b0392909216919091179055565b6000806b0136492b8a2b999d53f00000600354846106bb9190610d3d565b6106c59190610d5c565b91506b0136492b8a2b999d53f00000600454846106e29190610d3d565b6106ec9190610d5c565b9050915091565b6000546001600160a01b0316331461071d5760405162461bcd60e51b815260040161033e90610d1a565b6001546001600160a01b03161561076c5760405162461bcd60e51b81526020600482015260136024820152721053149150511657d253925512505312569151606a1b604482015260640161033e565b6040516323b872dd60e01b8152336004820152306024820152604481018390527f00000000000000000000000000000000000000000000000000000000000000006001600160a01b0316906323b872dd906064016020604051808303816000875af11580156107df573d6000803e3d6000fd5b505050506040513d601f19601f820116820180604052508101906108039190610cb3565b61081f5760405162461bcd60e51b815260040161033e90610cd5565b600180546001600160a01b0319166001600160a01b038516908117909155600383905560048290556005829055604080519182526020820184905281018290527f0f91882b50d9330af0b1d4998e6af7f2eaee90ce7e77ea54fea089af166d021d9060600160405180910390a1505050565b6000546001600160a01b031633146108bb5760405162461bcd60e51b815260040161033e90610d1a565b6108e87f000000000000000000000000000000000000000000000000000000000000000062278d00610c9b565b4210156109375760405162461bcd60e51b815260206004820152601760248201527f4c4546544f564552535f4e4f545f434c41494d41424c45000000000000000000604482015260640161033e565b6040516370a0823160e01b81523060048201527f00000000000000000000000000000000000000000000000000000000000000006001600160a01b03169063a9059cbb90339083906370a0823190602401602060405180830381865afa1580156109a5573d6000803e3d6000fd5b505050506040513d601f19601f820116820180604052508101906109c99190610d7e565b6040516001600160e01b031960e085901b1681526001600160a01b03909216600483015260248201526044016020604051808303816000875af1158015610a14573d6000803e3d6000fd5b505050506040513d601f19601f82011682018060405250810190610a389190610cb3565b610a545760405162461bcd60e51b815260040161033e90610cd5565b565b634e487b7160e01b600052604160045260246000fd5b600082601f830112610a7d57600080fd5b813567ffffffffffffffff80821115610a9857610a98610a56565b604051601f8301601f19908116603f01168101908282118183101715610ac057610ac0610a56565b81604052838152866020858801011115610ad957600080fd5b836020870160208301376000602085830101528094505050505092915050565b60008060008060808587031215610b0f57600080fd5b843561ffff81168114610b2157600080fd5b9350602085013567ffffffffffffffff80821115610b3e57600080fd5b610b4a88838901610a6c565b9450604087013591508082168214610b6157600080fd5b90925060608601359080821115610b7757600080fd5b50610b8487828801610a6c565b91505092959194509250565b6001600160a01b0381168114610ba557600080fd5b50565b600060208284031215610bba57600080fd5b8135610bc581610b90565b9392505050565b600060208284031215610bde57600080fd5b5035919050565b600080600060608486031215610bfa57600080fd5b8335610c0581610b90565b95602085013595506040909401359392505050565b600060208284031215610c2c57600080fd5b813567ffffffffffffffff811115610c4357600080fd5b610c4f84828501610a6c565b949350505050565b60008060408385031215610c6a57600080fd5b8251610c7581610b90565b6020939093015192949293505050565b634e487b7160e01b600052601160045260246000fd5b60008219821115610cae57610cae610c85565b500190565b600060208284031215610cc557600080fd5b81518015158114610bc557600080fd5b6020808252601490820152731554d110d7d514905394d1915497d1905253115160621b604082015260600190565b600082821015610d1557610d15610c85565b500390565b6020808252600990820152684f4e4c595f5445414d60b81b604082015260600190565b6000816000190483118215151615610d5757610d57610c85565b500290565b600082610d7957634e487b7160e01b600052601260045260246000fd5b500490565b600060208284031215610d9057600080fd5b505191905056fea2646970667358221220fcc08a51d0a33b24a91a401bba0a9c91bdb72b806b020a47a1060a734e9c381764736f6c634300080d0033",
  "devdoc": {
    "kind": "dev",
    "methods": {},
    "version": 1
  },
  "userdoc": {
    "kind": "user",
    "methods": {},
    "notice": "Part 2 of 2 in the WeVE (FTM) -> USDC + VELO (OP) redemption process This contract is responsible for receiving the LZ message and distributing USDC + VELO",
    "version": 1
  },
  "storageLayout": {
    "storage": [
      {
        "astId": 24584,
        "contract": "contracts/redeem/RedemptionReceiver.sol:RedemptionReceiver",
        "label": "team",
        "offset": 0,
        "slot": "0",
        "type": "t_address"
      },
      {
        "astId": 24588,
        "contract": "contracts/redeem/RedemptionReceiver.sol:RedemptionReceiver",
        "label": "fantomSender",
        "offset": 0,
        "slot": "1",
        "type": "t_address"
      },
      {
        "astId": 24595,
        "contract": "contracts/redeem/RedemptionReceiver.sol:RedemptionReceiver",
        "label": "redeemedWEVE",
        "offset": 0,
        "slot": "2",
        "type": "t_uint256"
      },
      {
        "astId": 24597,
        "contract": "contracts/redeem/RedemptionReceiver.sol:RedemptionReceiver",
        "label": "redeemableUSDC",
        "offset": 0,
        "slot": "3",
        "type": "t_uint256"
      },
      {
        "astId": 24599,
        "contract": "contracts/redeem/RedemptionReceiver.sol:RedemptionReceiver",
        "label": "redeemableVELO",
        "offset": 0,
        "slot": "4",
        "type": "t_uint256"
      },
      {
        "astId": 24601,
        "contract": "contracts/redeem/RedemptionReceiver.sol:RedemptionReceiver",
        "label": "leftoverVELO",
        "offset": 0,
        "slot": "5",
        "type": "t_uint256"
      }
    ],
    "types": {
      "t_address": {
        "encoding": "inplace",
        "label": "address",
        "numberOfBytes": "20"
      },
      "t_uint256": {
        "encoding": "inplace",
        "label": "uint256",
        "numberOfBytes": "32"
      }
    }
  }
}