{
  "address": "0xd06A463fD49720629A285E3C8De4310bc103df0a",
  "abi": [
    {
      "inputs": [
        {
          "internalType": "address",
          "name": "_voting_escrow",
          "type": "address"
        }
      ],
      "stateMutability": "nonpayable",
      "type": "constructor"
    },
    {
      "anonymous": false,
      "inputs": [
        {
          "indexed": false,
          "internalType": "uint256",
          "name": "time",
          "type": "uint256"
        },
        {
          "indexed": false,
          "internalType": "uint256",
          "name": "tokens",
          "type": "uint256"
        }
      ],
      "name": "CheckpointToken",
      "type": "event"
    },
    {
      "anonymous": false,
      "inputs": [
        {
          "indexed": false,
          "internalType": "uint256",
          "name": "tokenId",
          "type": "uint256"
        },
        {
          "indexed": false,
          "internalType": "uint256",
          "name": "amount",
          "type": "uint256"
        },
        {
          "indexed": false,
          "internalType": "uint256",
          "name": "claim_epoch",
          "type": "uint256"
        },
        {
          "indexed": false,
          "internalType": "uint256",
          "name": "max_epoch",
          "type": "uint256"
        }
      ],
      "name": "Claimed",
      "type": "event"
    },
    {
      "inputs": [],
      "name": "checkpoint_token",
      "outputs": [],
      "stateMutability": "nonpayable",
      "type": "function"
    },
    {
      "inputs": [],
      "name": "checkpoint_total_supply",
      "outputs": [],
      "stateMutability": "nonpayable",
      "type": "function"
    },
    {
      "inputs": [
        {
          "internalType": "uint256",
          "name": "_tokenId",
          "type": "uint256"
        }
      ],
      "name": "claim",
      "outputs": [
        {
          "internalType": "uint256",
          "name": "",
          "type": "uint256"
        }
      ],
      "stateMutability": "nonpayable",
      "type": "function"
    },
    {
      "inputs": [
        {
          "internalType": "uint256[]",
          "name": "_tokenIds",
          "type": "uint256[]"
        }
      ],
      "name": "claim_many",
      "outputs": [
        {
          "internalType": "bool",
          "name": "",
          "type": "bool"
        }
      ],
      "stateMutability": "nonpayable",
      "type": "function"
    },
    {
      "inputs": [
        {
          "internalType": "uint256",
          "name": "_tokenId",
          "type": "uint256"
        }
      ],
      "name": "claimable",
      "outputs": [
        {
          "internalType": "uint256",
          "name": "",
          "type": "uint256"
        }
      ],
      "stateMutability": "view",
      "type": "function"
    },
    {
      "inputs": [],
      "name": "depositor",
      "outputs": [
        {
          "internalType": "address",
          "name": "",
          "type": "address"
        }
      ],
      "stateMutability": "view",
      "type": "function"
    },
    {
      "inputs": [],
      "name": "last_token_time",
      "outputs": [
        {
          "internalType": "uint256",
          "name": "",
          "type": "uint256"
        }
      ],
      "stateMutability": "view",
      "type": "function"
    },
    {
      "inputs": [
        {
          "internalType": "address",
          "name": "_depositor",
          "type": "address"
        }
      ],
      "name": "setDepositor",
      "outputs": [],
      "stateMutability": "nonpayable",
      "type": "function"
    },
    {
      "inputs": [],
      "name": "start_time",
      "outputs": [
        {
          "internalType": "uint256",
          "name": "",
          "type": "uint256"
        }
      ],
      "stateMutability": "view",
      "type": "function"
    },
    {
      "inputs": [],
      "name": "time_cursor",
      "outputs": [
        {
          "internalType": "uint256",
          "name": "",
          "type": "uint256"
        }
      ],
      "stateMutability": "view",
      "type": "function"
    },
    {
      "inputs": [
        {
          "internalType": "uint256",
          "name": "",
          "type": "uint256"
        }
      ],
      "name": "time_cursor_of",
      "outputs": [
        {
          "internalType": "uint256",
          "name": "",
          "type": "uint256"
        }
      ],
      "stateMutability": "view",
      "type": "function"
    },
    {
      "inputs": [],
      "name": "timestamp",
      "outputs": [
        {
          "internalType": "uint256",
          "name": "",
          "type": "uint256"
        }
      ],
      "stateMutability": "view",
      "type": "function"
    },
    {
      "inputs": [],
      "name": "token",
      "outputs": [
        {
          "internalType": "address",
          "name": "",
          "type": "address"
        }
      ],
      "stateMutability": "view",
      "type": "function"
    },
    {
      "inputs": [],
      "name": "token_last_balance",
      "outputs": [
        {
          "internalType": "uint256",
          "name": "",
          "type": "uint256"
        }
      ],
      "stateMutability": "view",
      "type": "function"
    },
    {
      "inputs": [
        {
          "internalType": "uint256",
          "name": "",
          "type": "uint256"
        }
      ],
      "name": "tokens_per_week",
      "outputs": [
        {
          "internalType": "uint256",
          "name": "",
          "type": "uint256"
        }
      ],
      "stateMutability": "view",
      "type": "function"
    },
    {
      "inputs": [
        {
          "internalType": "uint256",
          "name": "",
          "type": "uint256"
        }
      ],
      "name": "user_epoch_of",
      "outputs": [
        {
          "internalType": "uint256",
          "name": "",
          "type": "uint256"
        }
      ],
      "stateMutability": "view",
      "type": "function"
    },
    {
      "inputs": [
        {
          "internalType": "uint256",
          "name": "_tokenId",
          "type": "uint256"
        },
        {
          "internalType": "uint256",
          "name": "_timestamp",
          "type": "uint256"
        }
      ],
      "name": "ve_for_at",
      "outputs": [
        {
          "internalType": "uint256",
          "name": "",
          "type": "uint256"
        }
      ],
      "stateMutability": "view",
      "type": "function"
    },
    {
      "inputs": [
        {
          "internalType": "uint256",
          "name": "",
          "type": "uint256"
        }
      ],
      "name": "ve_supply",
      "outputs": [
        {
          "internalType": "uint256",
          "name": "",
          "type": "uint256"
        }
      ],
      "stateMutability": "view",
      "type": "function"
    },
    {
      "inputs": [],
      "name": "voting_escrow",
      "outputs": [
        {
          "internalType": "address",
          "name": "",
          "type": "address"
        }
      ],
      "stateMutability": "view",
      "type": "function"
    }
  ],
  "transactionHash": "0x27c5e1e464a8506a9d266b0632cf37d05f43b0f3a1ebe2adc653e8e0051168bf",
  "args": [
    "0xF003091B78974ee3F99ec70fC5F42fc9810664EC"
  ],
  "numDeployments": 3,
  "solcInputHash": "98b870afa86e9d5388a96f4e867892a9",
  "bytecode": "0x60806040523480156200001157600080fd5b5060405162001b9f38038062001b9f83398101604081905262000034916200019f565b600062093a80620000468142620001d1565b620000529190620001f4565b90508060008190555080600481905550806001819055506000826001600160a01b031663fc0c546a6040518163ffffffff1660e01b8152600401602060405180830381865afa158015620000aa573d6000803e3d6000fd5b505050506040513d601f19601f82011682018060405250810190620000d091906200019f565b66038d7ea4c6800680546001600160a01b038381166001600160a01b0319928316811790935566038d7ea4c6800580549188169183168217905566071afd498d00088054909216331790915560405163095ea7b360e01b8152600481019190915260001960248201529192509063095ea7b3906044016020604051808303816000875af115801562000166573d6000803e3d6000fd5b505050506040513d601f19601f820116820180604052508101906200018c919062000222565b6200019657600080fd5b50505062000246565b600060208284031215620001b257600080fd5b81516001600160a01b0381168114620001ca57600080fd5b9392505050565b600082620001ef57634e487b7160e01b600052601260045260246000fd5b500490565b60008160001904831182151516156200021d57634e487b7160e01b600052601160045260246000fd5b500290565b6000602082840312156200023557600080fd5b81518015158114620001ca57600080fd5b61194980620002566000396000f3fe608060405234801561001057600080fd5b50600436106101215760003560e01c8063834ee417116100ad578063d4dafba811610071578063d4dafba81461024a578063dfe050311461025d578063edf5999714610276578063f2c098b714610289578063fc0c546a1461029c57600080fd5b8063834ee417146101ed578063b21ed502146101f6578063b80777ea146101fe578063c7c4ff4614610206578063d1d58b251461023757600080fd5b8063379607f5116100f4578063379607f514610194578063486d25fe146101a757806368809889146101c75780637f58e8f8146101da578063811a40fe146101e357600080fd5b8063127dcbd31461012657806316aea5c0146101425780631f1db0431461016257806322b04bfc14610185575b600080fd5b61012f60015481565b6040519081526020015b60405180910390f35b61012f610150366004611567565b60036020526000908152604090205481565b6101756101703660046115c7565b6102b5565b6040519015158152602001610139565b61012f66038d7ea4c680075481565b61012f6101a2366004611567565b6103fb565b61012f6101b5366004611567565b60026020526000908152604090205481565b61012f6101d536600461166d565b6104e5565b61012f60045481565b6101eb610628565b005b61012f60005481565b6101eb610652565b61012f61065a565b66071afd498d00085461021f906001600160a01b031681565b6040516001600160a01b039091168152602001610139565b61012f610245366004611567565b610679565b61012f610258366004611567565b6106b9565b66038d7ea4c680055461021f906001600160a01b031681565b61012f610284366004611567565b6106dc565b6101eb61029736600461168f565b6106f2565b66038d7ea4c680065461021f906001600160a01b031681565b600060015442106102c8576102c8610737565b60045462093a806102d981836116ce565b6102e391906116f0565b66038d7ea4c68005549091506001600160a01b03166000805b85518110156103cb5760008682815181106103195761031961170f565b602002602001015190508060000361033157506103cb565b600061033e8286886108da565b905080156103b657604051631dd33fc560e31b815260048101839052602481018290526001600160a01b0386169063ee99fe2890604401600060405180830381600087803b15801561038f57600080fd5b505af11580156103a3573d6000803e3d6000fd5b5050505080846103b39190611725565b93505b505080806103c39061173d565b9150506102fc565b5080156103f0578066038d7ea4c6800760008282546103ea9190611756565b90915550505b506001949350505050565b6000600154421061040e5761040e610737565b60045462093a8061041f81836116ce565b61042991906116f0565b66038d7ea4c680055490915060009061044d9085906001600160a01b0316846108da565b905080156104de5766038d7ea4c6800554604051631dd33fc560e31b815260048101869052602481018390526001600160a01b039091169063ee99fe2890604401600060405180830381600087803b1580156104a857600080fd5b505af11580156104bc573d6000803e3d6000fd5b505050508066038d7ea4c6800760008282546104d89190611756565b90915550505b9392505050565b66038d7ea4c680055460405163391044d760e21b8152600481018490526000916001600160a01b0316908290829063e441135c90602401602060405180830381865afa158015610539573d6000803e3d6000fd5b505050506040513d601f19601f8201168201806040525081019061055d919061176d565b9050600061056d83878785610cfe565b6040516309bb79ed60e11b815260048101889052602481018290529091506000906001600160a01b03851690631376f3da90604401608060405180830381865afa1580156105bf573d6000803e3d6000fd5b505050506040513d601f19601f820116820180604052508101906105e3919061179d565b905061061d8160400151876105f89190611756565b8260200151610607919061180f565b825161061391906118ad565b600f0b6000610df2565b979650505050505050565b66071afd498d0008546001600160a01b03163314610648576106486118fd565b610650610e09565b565b610650610737565b600062093a8061066a81426116ce565b61067491906116f0565b905090565b60008062093a808060045461068e91906116ce565b61069891906116f0565b66038d7ea4c68005549091506104de9084906001600160a01b031683611066565b66038d7ea4c680088166038d7ea4c6800081106106d557600080fd5b0154905081565b60058166038d7ea4c6800081106106d557600080fd5b66071afd498d0008546001600160a01b0316331461070f57600080fd5b66071afd498d000880546001600160a01b0319166001600160a01b0392909216919091179055565b66038d7ea4c68005546001546001600160a01b0390911690600062093a8061075f81426116ce565b61076991906116f0565b9050826001600160a01b031663c2c4c5c16040518163ffffffff1660e01b8152600401600060405180830381600087803b1580156107a657600080fd5b505af11580156107ba573d6000803e3d6000fd5b5050505060005b60148110156108d2578183116108d25760006107dd8585611403565b60405163d1febfb960e01b8152600481018290529091506000906001600160a01b0387169063d1febfb990602401608060405180830381865afa158015610828573d6000803e3d6000fd5b505050506040513d601f19601f8201168201806040525081019061084c919061179d565b90506000816040015186111561086e57604082015161086b9087611756565b90505b61088d818360200151610881919061180f565b835161061391906118ad565b66038d7ea4c680088766038d7ea4c6800081106108ac576108ac61170f565b01555050506108be62093a8084611725565b9250806108ca8161173d565b9150506107c1565b505060015550565b60405163391044d760e21b8152600481018490526000908190819081906001600160a01b0387169063e441135c90602401602060405180830381865afa158015610928573d6000803e3d6000fd5b505050506040513d601f19601f8201168201806040525081019061094c919061176d565b600080549192508290036109675760009450505050506104de565b600088815260026020526040812054908190036109915761098a888a8486610cfe565b94506109a3565b60008981526003602052604090205494505b846000036109b057600194505b6040516309bb79ed60e11b8152600481018a9052602481018690526000906001600160a01b038a1690631376f3da90604401608060405180830381865afa1580156109ff573d6000803e3d6000fd5b505050506040513d601f19601f82011682018060405250810190610a23919061179d565b905081600003610a685762093a8080600162093a808460400151610a479190611725565b610a519190611756565b610a5b91906116ce565b610a6591906116f0565b91505b6004548210610a8057600096505050505050506104de565b82821015610a8c578291505b6040805160808101825260008082526020820181905291810182905260608101829052905b6032811015610c735789841015610c735782604001518410158015610ad65750858811155b15610b9c57610ae6600189611725565b975082915085881115610b255760405180608001604052806000600f0b81526020016000600f0b81526020016000815260200160008152509250610c61565b6040516309bb79ed60e11b8152600481018d9052602481018990526001600160a01b038c1690631376f3da90604401608060405180830381865afa158015610b71573d6000803e3d6000fd5b505050506040513d601f19601f82011682018060405250810190610b95919061179d565b9250610c61565b6000826040015185610bae9190611756565b90506000610bd1846020015183610bc5919061180f565b855161061391906118ad565b905080158015610be05750878a115b15610bec575050610c73565b8015610c4f5766038d7ea4c680088666038d7ea4c680008110610c1157610c1161170f565b015460058766038d7ea4c680008110610c2c57610c2c61170f565b0154610c3890836116f0565b610c4291906116ce565b610c4c908a611725565b98505b610c5c62093a8087611725565b955050505b80610c6b8161173d565b915050610ab1565b50610c8885610c8360018a611756565b611558565b60008c8152600360209081526040808320849055600282529182902086905581518e8152908101899052908101829052606081018790529097507fcae2990aa9af8eb1c64713b7eddb3a80bf18e49a94a13fe0d0002b5d61d58f009060800160405180910390a150939998505050505050505050565b60008082815b6080811015610de65781831015610de65760006002610d238486611725565b610d2e906002611725565b610d3891906116ce565b6040516309bb79ed60e11b8152600481018a9052602481018290529091506000906001600160a01b038b1690631376f3da90604401608060405180830381865afa158015610d8a573d6000803e3d6000fd5b505050506040513d601f19601f82011682018060405250810190610dae919061179d565b905087816040015111610dc357819450610dd1565b610dce600183611756565b93505b50508080610dde9061173d565b915050610d04565b50909695505050505050565b600081831015610e0257816104de565b5090919050565b66038d7ea4c68006546040516370a0823160e01b81523060048201526000916001600160a01b0316906370a0823190602401602060405180830381865afa158015610e58573d6000803e3d6000fd5b505050506040513d601f19601f82011682018060405250810190610e7c919061176d565b9050600066038d7ea4c680075482610e949190611756565b66038d7ea4c680078390556004549091506000610eb18242611756565b426004559050600062093a80610ec781856116ce565b610ed191906116f0565b90506000805b601481101561102457610eed62093a8084611725565b915081421015610f765783158015610f0457508442145b15610f3e578560058466038d7ea4c680008110610f2357610f2361170f565b016000828254610f339190611725565b909155506110249050565b83610f498642611756565b610f5390886116f0565b610f5d91906116ce565b60058466038d7ea4c680008110610f2357610f2361170f565b83158015610f8357508482145b15610fbd578560058466038d7ea4c680008110610fa257610fa261170f565b016000828254610fb29190611725565b9091555061100b9050565b83610fc88684611756565b610fd290886116f0565b610fdc91906116ce565b60058466038d7ea4c680008110610ff557610ff561170f565b0160008282546110059190611725565b90915550505b819450819250808061101c9061173d565b915050610ed7565b5060408051428152602081018790527fce749457b74e10f393f2c6b1ce4261b78791376db5a3f501477a809f03f500d6910160405180910390a1505050505050565b60405163391044d760e21b8152600481018490526000908190819081906001600160a01b0387169063e441135c90602401602060405180830381865afa1580156110b4573d6000803e3d6000fd5b505050506040513d601f19601f820116820180604052508101906110d8919061176d565b600080549192508290036110f35760009450505050506104de565b6000888152600260205260408120549081900361111d57611116888a8486610cfe565b945061112f565b60008981526003602052604090205494505b8460000361113c57600194505b6040516309bb79ed60e11b8152600481018a9052602481018690526000906001600160a01b038a1690631376f3da90604401608060405180830381865afa15801561118b573d6000803e3d6000fd5b505050506040513d601f19601f820116820180604052508101906111af919061179d565b9050816000036111f45762093a8080600162093a8084604001516111d39190611725565b6111dd9190611756565b6111e791906116ce565b6111f191906116f0565b91505b600454821061120c57600096505050505050506104de565b82821015611218578291505b6040805160808101825260008082526020820181905291810182905260608101829052905b60328110156113f357898410156113f357826040015184101580156112625750858811155b1561132857611272600189611725565b9750829150858811156112b15760405180608001604052806000600f0b81526020016000600f0b815260200160008152602001600081525092506113e1565b6040516309bb79ed60e11b8152600481018d9052602481018990526001600160a01b038c1690631376f3da90604401608060405180830381865afa1580156112fd573d6000803e3d6000fd5b505050506040513d601f19601f82011682018060405250810190611321919061179d565b92506113e1565b600082604001518561133a9190611756565b90506000611351846020015183610bc5919061180f565b9050801580156113605750878a115b1561136c5750506113f3565b80156113cf5766038d7ea4c680088666038d7ea4c6800081106113915761139161170f565b015460058766038d7ea4c6800081106113ac576113ac61170f565b01546113b890836116f0565b6113c291906116ce565b6113cc908a611725565b98505b6113dc62093a8087611725565b955050505b806113eb8161173d565b91505061123d565b50949a9950505050505050505050565b600080600090506000846001600160a01b031663900cf0cf6040518163ffffffff1660e01b8152600401602060405180830381865afa15801561144a573d6000803e3d6000fd5b505050506040513d601f19601f8201168201806040525081019061146e919061176d565b905060005b608081101561154e578183101561154e57600060026114928486611725565b61149d906002611725565b6114a791906116ce565b60405163d1febfb960e01b8152600481018290529091506000906001600160a01b0389169063d1febfb990602401608060405180830381865afa1580156114f2573d6000803e3d6000fd5b505050506040513d601f19601f82011682018060405250810190611516919061179d565b90508681604001511161152b57819450611539565b611536600183611756565b93505b505080806115469061173d565b915050611473565b5090949350505050565b6000818310610e0257816104de565b60006020828403121561157957600080fd5b5035919050565b634e487b7160e01b600052604160045260246000fd5b604051601f8201601f1916810167ffffffffffffffff811182821017156115bf576115bf611580565b604052919050565b600060208083850312156115da57600080fd5b823567ffffffffffffffff808211156115f257600080fd5b818501915085601f83011261160657600080fd5b81358181111561161857611618611580565b8060051b9150611629848301611596565b818152918301840191848101908884111561164357600080fd5b938501935b8385101561166157843582529385019390850190611648565b98975050505050505050565b6000806040838503121561168057600080fd5b50508035926020909101359150565b6000602082840312156116a157600080fd5b81356001600160a01b03811681146104de57600080fd5b634e487b7160e01b600052601160045260246000fd5b6000826116eb57634e487b7160e01b600052601260045260246000fd5b500490565b600081600019048311821515161561170a5761170a6116b8565b500290565b634e487b7160e01b600052603260045260246000fd5b60008219821115611738576117386116b8565b500190565b60006001820161174f5761174f6116b8565b5060010190565b600082821015611768576117686116b8565b500390565b60006020828403121561177f57600080fd5b5051919050565b8051600f81900b811461179857600080fd5b919050565b6000608082840312156117af57600080fd5b6040516080810181811067ffffffffffffffff821117156117d2576117d2611580565b6040526117de83611786565b81526117ec60208401611786565b602082015260408301516040820152606083015160608201528091505092915050565b600081600f0b83600f0b60016001607f1b0360008213600084138383048511828216161561183f5761183f6116b8565b6f7fffffffffffffffffffffffffffffff19600085128281168783058712161561186b5761186b6116b8565b60008712925085820587128484161615611887576118876116b8565b8585058712818416161561189d5761189d6116b8565b5050509290910295945050505050565b600081600f0b83600f0b600081128160016001607f1b0319018312811516156118d8576118d86116b8565b8160016001607f1b030183138116156118f3576118f36116b8565b5090039392505050565b634e487b7160e01b600052600160045260246000fdfea2646970667358221220877c3a13c3ebfa895eaa531d7321700f88e3027df204bd9c0bbc82338f0c4de964736f6c634300080d0033",
  "devdoc": {
    "kind": "dev",
    "methods": {},
    "version": 1
  },
  "userdoc": {
    "kind": "user",
    "methods": {},
    "version": 1
  },
  "storageLayout": {
    "storage": [
      {
        "astId": 9902,
        "contract": "contracts/RewardsDistributor.sol:RewardsDistributor",
        "label": "start_time",
        "offset": 0,
        "slot": "0",
        "type": "t_uint256"
      },
      {
        "astId": 9904,
        "contract": "contracts/RewardsDistributor.sol:RewardsDistributor",
        "label": "time_cursor",
        "offset": 0,
        "slot": "1",
        "type": "t_uint256"
      },
      {
        "astId": 9908,
        "contract": "contracts/RewardsDistributor.sol:RewardsDistributor",
        "label": "time_cursor_of",
        "offset": 0,
        "slot": "2",
        "type": "t_mapping(t_uint256,t_uint256)"
      },
      {
        "astId": 9912,
        "contract": "contracts/RewardsDistributor.sol:RewardsDistributor",
        "label": "user_epoch_of",
        "offset": 0,
        "slot": "3",
        "type": "t_mapping(t_uint256,t_uint256)"
      },
      {
        "astId": 9914,
        "contract": "contracts/RewardsDistributor.sol:RewardsDistributor",
        "label": "last_token_time",
        "offset": 0,
        "slot": "4",
        "type": "t_uint256"
      },
      {
        "astId": 9918,
        "contract": "contracts/RewardsDistributor.sol:RewardsDistributor",
        "label": "tokens_per_week",
        "offset": 0,
        "slot": "5",
        "type": "t_array(t_uint256)1000000000000000_storage"
      },
      {
        "astId": 9920,
        "contract": "contracts/RewardsDistributor.sol:RewardsDistributor",
        "label": "voting_escrow",
        "offset": 0,
        "slot": "1000000000000005",
        "type": "t_address"
      },
      {
        "astId": 9922,
        "contract": "contracts/RewardsDistributor.sol:RewardsDistributor",
        "label": "token",
        "offset": 0,
        "slot": "1000000000000006",
        "type": "t_address"
      },
      {
        "astId": 9924,
        "contract": "contracts/RewardsDistributor.sol:RewardsDistributor",
        "label": "token_last_balance",
        "offset": 0,
        "slot": "1000000000000007",
        "type": "t_uint256"
      },
      {
        "astId": 9928,
        "contract": "contracts/RewardsDistributor.sol:RewardsDistributor",
        "label": "ve_supply",
        "offset": 0,
        "slot": "1000000000000008",
        "type": "t_array(t_uint256)1000000000000000_storage"
      },
      {
        "astId": 9930,
        "contract": "contracts/RewardsDistributor.sol:RewardsDistributor",
        "label": "depositor",
        "offset": 0,
        "slot": "2000000000000008",
        "type": "t_address"
      }
    ],
    "types": {
      "t_address": {
        "encoding": "inplace",
        "label": "address",
        "numberOfBytes": "20"
      },
      "t_array(t_uint256)1000000000000000_storage": {
        "base": "t_uint256",
        "encoding": "inplace",
        "label": "uint256[1000000000000000]",
        "numberOfBytes": "32000000000000000"
      },
      "t_mapping(t_uint256,t_uint256)": {
        "encoding": "mapping",
        "key": "t_uint256",
        "label": "mapping(uint256 => uint256)",
        "numberOfBytes": "32",
        "value": "t_uint256"
      },
      "t_uint256": {
        "encoding": "inplace",
        "label": "uint256",
        "numberOfBytes": "32"
      }
    }
  }
}