{
  "address": "0x162404E6Cd4633656925b90EF67237F29D5cc85c",
  "abi": [
    {
      "inputs": [],
      "stateMutability": "nonpayable",
      "type": "constructor"
    },
    {
      "anonymous": false,
      "inputs": [
        {
          "indexed": true,
          "internalType": "address",
          "name": "owner",
          "type": "address"
        },
        {
          "indexed": true,
          "internalType": "address",
          "name": "spender",
          "type": "address"
        },
        {
          "indexed": false,
          "internalType": "uint256",
          "name": "value",
          "type": "uint256"
        }
      ],
      "name": "Approval",
      "type": "event"
    },
    {
      "anonymous": false,
      "inputs": [
        {
          "indexed": true,
          "internalType": "address",
          "name": "from",
          "type": "address"
        },
        {
          "indexed": true,
          "internalType": "address",
          "name": "to",
          "type": "address"
        },
        {
          "indexed": false,
          "internalType": "uint256",
          "name": "value",
          "type": "uint256"
        }
      ],
      "name": "Transfer",
      "type": "event"
    },
    {
      "inputs": [
        {
          "internalType": "address",
          "name": "",
          "type": "address"
        },
        {
          "internalType": "address",
          "name": "",
          "type": "address"
        }
      ],
      "name": "allowance",
      "outputs": [
        {
          "internalType": "uint256",
          "name": "",
          "type": "uint256"
        }
      ],
      "stateMutability": "view",
      "type": "function"
    },
    {
      "inputs": [
        {
          "internalType": "address",
          "name": "_spender",
          "type": "address"
        },
        {
          "internalType": "uint256",
          "name": "_value",
          "type": "uint256"
        }
      ],
      "name": "approve",
      "outputs": [
        {
          "internalType": "bool",
          "name": "",
          "type": "bool"
        }
      ],
      "stateMutability": "nonpayable",
      "type": "function"
    },
    {
      "inputs": [
        {
          "internalType": "address",
          "name": "",
          "type": "address"
        }
      ],
      "name": "balanceOf",
      "outputs": [
        {
          "internalType": "uint256",
          "name": "",
          "type": "uint256"
        }
      ],
      "stateMutability": "view",
      "type": "function"
    },
    {
      "inputs": [
        {
          "internalType": "address",
          "name": "account",
          "type": "address"
        },
        {
          "internalType": "uint256",
          "name": "amount",
          "type": "uint256"
        }
      ],
      "name": "claim",
      "outputs": [
        {
          "internalType": "bool",
          "name": "",
          "type": "bool"
        }
      ],
      "stateMutability": "nonpayable",
      "type": "function"
    },
    {
      "inputs": [],
      "name": "decimals",
      "outputs": [
        {
          "internalType": "uint8",
          "name": "",
          "type": "uint8"
        }
      ],
      "stateMutability": "view",
      "type": "function"
    },
    {
      "inputs": [
        {
          "internalType": "address",
          "name": "_recipient",
          "type": "address"
        }
      ],
      "name": "initialMint",
      "outputs": [],
      "stateMutability": "nonpayable",
      "type": "function"
    },
    {
      "inputs": [],
      "name": "initialMinted",
      "outputs": [
        {
          "internalType": "bool",
          "name": "",
          "type": "bool"
        }
      ],
      "stateMutability": "view",
      "type": "function"
    },
    {
      "inputs": [],
      "name": "merkleClaim",
      "outputs": [
        {
          "internalType": "address",
          "name": "",
          "type": "address"
        }
      ],
      "stateMutability": "view",
      "type": "function"
    },
    {
      "inputs": [
        {
          "internalType": "address",
          "name": "account",
          "type": "address"
        },
        {
          "internalType": "uint256",
          "name": "amount",
          "type": "uint256"
        }
      ],
      "name": "mint",
      "outputs": [
        {
          "internalType": "bool",
          "name": "",
          "type": "bool"
        }
      ],
      "stateMutability": "nonpayable",
      "type": "function"
    },
    {
      "inputs": [],
      "name": "minter",
      "outputs": [
        {
          "internalType": "address",
          "name": "",
          "type": "address"
        }
      ],
      "stateMutability": "view",
      "type": "function"
    },
    {
      "inputs": [],
      "name": "name",
      "outputs": [
        {
          "internalType": "string",
          "name": "",
          "type": "string"
        }
      ],
      "stateMutability": "view",
      "type": "function"
    },
    {
      "inputs": [],
      "name": "redemptionReceiver",
      "outputs": [
        {
          "internalType": "address",
          "name": "",
          "type": "address"
        }
      ],
      "stateMutability": "view",
      "type": "function"
    },
    {
      "inputs": [
        {
          "internalType": "address",
          "name": "_merkleClaim",
          "type": "address"
        }
      ],
      "name": "setMerkleClaim",
      "outputs": [],
      "stateMutability": "nonpayable",
      "type": "function"
    },
    {
      "inputs": [
        {
          "internalType": "address",
          "name": "_minter",
          "type": "address"
        }
      ],
      "name": "setMinter",
      "outputs": [],
      "stateMutability": "nonpayable",
      "type": "function"
    },
    {
      "inputs": [
        {
          "internalType": "address",
          "name": "_receiver",
          "type": "address"
        }
      ],
      "name": "setRedemptionReceiver",
      "outputs": [],
      "stateMutability": "nonpayable",
      "type": "function"
    },
    {
      "inputs": [],
      "name": "symbol",
      "outputs": [
        {
          "internalType": "string",
          "name": "",
          "type": "string"
        }
      ],
      "stateMutability": "view",
      "type": "function"
    },
    {
      "inputs": [],
      "name": "totalSupply",
      "outputs": [
        {
          "internalType": "uint256",
          "name": "",
          "type": "uint256"
        }
      ],
      "stateMutability": "view",
      "type": "function"
    },
    {
      "inputs": [
        {
          "internalType": "address",
          "name": "_to",
          "type": "address"
        },
        {
          "internalType": "uint256",
          "name": "_value",
          "type": "uint256"
        }
      ],
      "name": "transfer",
      "outputs": [
        {
          "internalType": "bool",
          "name": "",
          "type": "bool"
        }
      ],
      "stateMutability": "nonpayable",
      "type": "function"
    },
    {
      "inputs": [
        {
          "internalType": "address",
          "name": "_from",
          "type": "address"
        },
        {
          "internalType": "address",
          "name": "_to",
          "type": "address"
        },
        {
          "internalType": "uint256",
          "name": "_value",
          "type": "uint256"
        }
      ],
      "name": "transferFrom",
      "outputs": [
        {
          "internalType": "bool",
          "name": "",
          "type": "bool"
        }
      ],
      "stateMutability": "nonpayable",
      "type": "function"
    }
  ],
  "transactionHash": "0xc4fe1ef3bd2c9531ba9f3fe41ca788f79076df1241d1838f586067f566752ef6",
  "args": [],
  "numDeployments": 8,
  "solcInputHash": "7fabbf584e02c1cd20d7799a434dc4a7",
  "bytecode": "0x60806040526000805534801561001457600080fd5b5060038054610100600160a81b0319163361010081029190911790915561003c906000610042565b506100d9565b60008160008082825461005591906100b3565b90915550506001600160a01b0383166000818152600160209081526040808320805487019055518581527fddf252ad1be2c89b69c2b068fc378daa952ba7f163c4a11628f55a4df523b3ef910160405180910390a350600192915050565b600082198211156100d457634e487b7160e01b600052601160045260246000fd5b500190565b61082c806100e86000396000f3fe608060405234801561001057600080fd5b50600436106101215760003560e01c806395d89b41116100ad578063d9b2e35511610071578063d9b2e355146102ac578063dd62ed3e146102bf578063e752c44a146102ea578063ec676a25146102fd578063fca3b5aa1461031057600080fd5b806395d89b4114610241578063a9059cbb14610264578063aad3ec9614610277578063c268f9ba1461028a578063ca1c4de91461029f57600080fd5b806323b872dd116100f457806323b872dd146101ce578063313ce567146101e157806340c10f19146101fb5780635e05fe501461020e57806370a082311461022157600080fd5b806306fdde03146101265780630754617214610164578063095ea7b31461019457806318160ddd146101b7575b600080fd5b61014e6040518060400160405280600981526020016856656c6f64726f6d6560b81b81525081565b60405161015b919061068c565b60405180910390f35b60035461017c9061010090046001600160a01b031681565b6040516001600160a01b03909116815260200161015b565b6101a76101a23660046106fd565b610323565b604051901515815260200161015b565b6101c060005481565b60405190815260200161015b565b6101a76101dc366004610727565b61038f565b6101e9601281565b60405160ff909116815260200161015b565b6101a76102093660046106fd565b610409565b60045461017c906001600160a01b031681565b6101c061022f366004610763565b60016020526000908152604090205481565b61014e6040518060400160405280600481526020016356454c4f60e01b81525081565b6101a76102723660046106fd565b61043c565b6101a76102853660046106fd565b610450565b61029d610298366004610763565b61047f565b005b6003546101a79060ff1681565b61029d6102ba366004610763565b6104d0565b6101c06102cd36600461077e565b600260209081526000928352604080842090915290825290205481565b60055461017c906001600160a01b031681565b61029d61030b366004610763565b61050e565b61029d61031e366004610763565b61054c565b3360008181526002602090815260408083206001600160a01b038716808552925280832085905551919290917f8c5be1e5ebec7d5bd14f71427d1e84f3dd0314c0f7b2291e5b200ac8c7c3b9259061037e9086815260200190565b60405180910390a350600192915050565b6001600160a01b038316600090815260026020908152604080832033845290915281205460001981146103f5576001600160a01b0385166000908152600260209081526040808320338452909152812080548592906103ef9084906107c7565b90915550505b610400858585610590565b95945050505050565b60035460009061010090046001600160a01b0316331461042857600080fd5b6104328383610627565b5060019392505050565b6000610449338484610590565b9392505050565b6004546000906001600160a01b031633148061047657506005546001600160a01b031633145b61042857600080fd5b60035461010090046001600160a01b0316331480156104a1575060035460ff16155b6104aa57600080fd5b6003805460ff191660011790556104cc816a43d42ce83da41d92000000610627565b5050565b60035461010090046001600160a01b031633146104ec57600080fd5b600480546001600160a01b0319166001600160a01b0392909216919091179055565b60035461010090046001600160a01b0316331461052a57600080fd5b600580546001600160a01b0319166001600160a01b0392909216919091179055565b60035461010090046001600160a01b0316331461056857600080fd5b600380546001600160a01b0390921661010002610100600160a81b0319909216919091179055565b6001600160a01b0383166000908152600160205260408120805483919083906105ba9084906107c7565b90915550506001600160a01b03808416600081815260016020526040908190208054860190555190918616907fddf252ad1be2c89b69c2b068fc378daa952ba7f163c4a11628f55a4df523b3ef906106159086815260200190565b60405180910390a35060019392505050565b60008160008082825461063a91906107de565b90915550506001600160a01b0383166000818152600160209081526040808320805487019055518581527fddf252ad1be2c89b69c2b068fc378daa952ba7f163c4a11628f55a4df523b3ef910161037e565b600060208083528351808285015260005b818110156106b95785810183015185820160400152820161069d565b818111156106cb576000604083870101525b50601f01601f1916929092016040019392505050565b80356001600160a01b03811681146106f857600080fd5b919050565b6000806040838503121561071057600080fd5b610719836106e1565b946020939093013593505050565b60008060006060848603121561073c57600080fd5b610745846106e1565b9250610753602085016106e1565b9150604084013590509250925092565b60006020828403121561077557600080fd5b610449826106e1565b6000806040838503121561079157600080fd5b61079a836106e1565b91506107a8602084016106e1565b90509250929050565b634e487b7160e01b600052601160045260246000fd5b6000828210156107d9576107d96107b1565b500390565b600082198211156107f1576107f16107b1565b50019056fea26469706673582212200ee48cb937aa2a18763edead8de90507d9439e6b529b100360b93838fc56165d64736f6c634300080d0033",
  "devdoc": {
    "kind": "dev",
    "methods": {},
    "version": 1
  },
  "userdoc": {
    "kind": "user",
    "methods": {},
    "version": 1
  },
  "storageLayout": {
    "storage": [
      {
        "astId": 13061,
        "contract": "contracts/Velo.sol:Velo",
        "label": "totalSupply",
        "offset": 0,
        "slot": "0",
        "type": "t_uint256"
      },
      {
        "astId": 13065,
        "contract": "contracts/Velo.sol:Velo",
        "label": "balanceOf",
        "offset": 0,
        "slot": "1",
        "type": "t_mapping(t_address,t_uint256)"
      },
      {
        "astId": 13071,
        "contract": "contracts/Velo.sol:Velo",
        "label": "allowance",
        "offset": 0,
        "slot": "2",
        "type": "t_mapping(t_address,t_mapping(t_address,t_uint256))"
      },
      {
        "astId": 13073,
        "contract": "contracts/Velo.sol:Velo",
        "label": "initialMinted",
        "offset": 0,
        "slot": "3",
        "type": "t_bool"
      },
      {
        "astId": 13075,
        "contract": "contracts/Velo.sol:Velo",
        "label": "minter",
        "offset": 1,
        "slot": "3",
        "type": "t_address"
      },
      {
        "astId": 13077,
        "contract": "contracts/Velo.sol:Velo",
        "label": "redemptionReceiver",
        "offset": 0,
        "slot": "4",
        "type": "t_address"
      },
      {
        "astId": 13079,
        "contract": "contracts/Velo.sol:Velo",
        "label": "merkleClaim",
        "offset": 0,
        "slot": "5",
        "type": "t_address"
      }
    ],
    "types": {
      "t_address": {
        "encoding": "inplace",
        "label": "address",
        "numberOfBytes": "20"
      },
      "t_bool": {
        "encoding": "inplace",
        "label": "bool",
        "numberOfBytes": "1"
      },
      "t_mapping(t_address,t_mapping(t_address,t_uint256))": {
        "encoding": "mapping",
        "key": "t_address",
        "label": "mapping(address => mapping(address => uint256))",
        "numberOfBytes": "32",
        "value": "t_mapping(t_address,t_uint256)"
      },
      "t_mapping(t_address,t_uint256)": {
        "encoding": "mapping",
        "key": "t_address",
        "label": "mapping(address => uint256)",
        "numberOfBytes": "32",
        "value": "t_uint256"
      },
      "t_uint256": {
        "encoding": "inplace",
        "label": "uint256",
        "numberOfBytes": "32"
      }
    }
  }
}